{
  "_format": "hh-sol-artifact-1",
  "contractName": "okaybeers",
  "sourceName": "contracts/okaybeers.sol",
  "abi": [
    {
      "inputs": [
        {
          "internalType": "string",
          "name": "name",
          "type": "string"
        },
        {
          "internalType": "string",
          "name": "symbol",
          "type": "string"
        },
        {
          "internalType": "uint256",
          "name": "maxNftSupply",
          "type": "uint256"
        }
      ],
      "stateMutability": "nonpayable",
      "type": "constructor"
    },
    {
      "anonymous": false,
      "inputs": [
        {
          "indexed": true,
          "internalType": "address",
          "name": "owner",
          "type": "address"
        },
        {
          "indexed": true,
          "internalType": "address",
          "name": "approved",
          "type": "address"
        },
        {
          "indexed": true,
          "internalType": "uint256",
          "name": "tokenId",
          "type": "uint256"
        }
      ],
      "name": "Approval",
      "type": "event"
    },
    {
      "anonymous": false,
      "inputs": [
        {
          "indexed": true,
          "internalType": "address",
          "name": "owner",
          "type": "address"
        },
        {
          "indexed": true,
          "internalType": "address",
          "name": "operator",
          "type": "address"
        },
        {
          "indexed": false,
          "internalType": "bool",
          "name": "approved",
          "type": "bool"
        }
      ],
      "name": "ApprovalForAll",
      "type": "event"
    },
    {
      "anonymous": false,
      "inputs": [
        {
          "indexed": true,
          "internalType": "address",
          "name": "previousOwner",
          "type": "address"
        },
        {
          "indexed": true,
          "internalType": "address",
          "name": "newOwner",
          "type": "address"
        }
      ],
      "name": "OwnershipTransferred",
      "type": "event"
    },
    {
      "anonymous": false,
      "inputs": [
        {
          "indexed": true,
          "internalType": "address",
          "name": "from",
          "type": "address"
        },
        {
          "indexed": true,
          "internalType": "address",
          "name": "to",
          "type": "address"
        },
        {
          "indexed": true,
          "internalType": "uint256",
          "name": "tokenId",
          "type": "uint256"
        }
      ],
      "name": "Transfer",
      "type": "event"
    },
    {
      "inputs": [],
      "name": "MAX_OKB",
      "outputs": [
        {
          "internalType": "uint256",
          "name": "",
          "type": "uint256"
        }
      ],
      "stateMutability": "view",
      "type": "function"
    },
    {
      "inputs": [],
      "name": "OKBPrice",
      "outputs": [
        {
          "internalType": "uint256",
          "name": "",
          "type": "uint256"
        }
      ],
      "stateMutability": "view",
      "type": "function"
    },
    {
      "inputs": [
        {
          "internalType": "address",
          "name": "to",
          "type": "address"
        },
        {
          "internalType": "uint256",
          "name": "tokenId",
          "type": "uint256"
        }
      ],
      "name": "approve",
      "outputs": [],
      "stateMutability": "nonpayable",
      "type": "function"
    },
    {
      "inputs": [
        {
          "internalType": "address",
          "name": "owner",
          "type": "address"
        }
      ],
      "name": "balanceOf",
      "outputs": [
        {
          "internalType": "uint256",
          "name": "",
          "type": "uint256"
        }
      ],
      "stateMutability": "view",
      "type": "function"
    },
    {
      "inputs": [],
      "name": "baseURI",
      "outputs": [
        {
          "internalType": "string",
          "name": "",
          "type": "string"
        }
      ],
      "stateMutability": "view",
      "type": "function"
    },
    {
      "inputs": [],
      "name": "deposited",
      "outputs": [
        {
          "internalType": "uint256",
          "name": "",
          "type": "uint256"
        }
      ],
      "stateMutability": "view",
      "type": "function"
    },
    {
      "inputs": [],
      "name": "emergencyDeposit",
      "outputs": [],
      "stateMutability": "payable",
      "type": "function"
    },
    {
      "inputs": [
        {
          "internalType": "uint256",
          "name": "amount",
          "type": "uint256"
        }
      ],
      "name": "emergencyWithdraw",
      "outputs": [],
      "stateMutability": "nonpayable",
      "type": "function"
    },
    {
      "inputs": [],
      "name": "flipState",
      "outputs": [],
      "stateMutability": "nonpayable",
      "type": "function"
    },
    {
      "inputs": [],
      "name": "freeMintQty",
      "outputs": [
        {
          "internalType": "uint256",
          "name": "",
          "type": "uint256"
        }
      ],
      "stateMutability": "view",
      "type": "function"
    },
    {
      "inputs": [
        {
          "internalType": "uint256",
          "name": "tokenId",
          "type": "uint256"
        }
      ],
      "name": "getApproved",
      "outputs": [
        {
          "internalType": "address",
          "name": "",
          "type": "address"
        }
      ],
      "stateMutability": "view",
      "type": "function"
    },
    {
      "inputs": [
        {
          "internalType": "address",
          "name": "owner",
          "type": "address"
        },
        {
          "internalType": "address",
          "name": "operator",
          "type": "address"
        }
      ],
      "name": "isApprovedForAll",
      "outputs": [
        {
          "internalType": "bool",
          "name": "",
          "type": "bool"
        }
      ],
      "stateMutability": "view",
      "type": "function"
    },
    {
      "inputs": [],
      "name": "maxOKBPurchase",
      "outputs": [
        {
          "internalType": "uint256",
          "name": "",
          "type": "uint256"
        }
      ],
      "stateMutability": "view",
      "type": "function"
    },
    {
      "inputs": [],
      "name": "mintContrib",
      "outputs": [
        {
          "internalType": "uint256",
          "name": "",
          "type": "uint256"
        }
      ],
      "stateMutability": "view",
      "type": "function"
    },
    {
      "inputs": [
        {
          "internalType": "uint8",
          "name": "numberOfTokens",
          "type": "uint8"
        }
      ],
      "name": "mintOKB",
      "outputs": [],
      "stateMutability": "payable",
      "type": "function"
    },
    {
      "inputs": [
        {
          "internalType": "address",
          "name": "",
          "type": "address"
        }
      ],
      "name": "mintedQty",
      "outputs": [
        {
          "internalType": "uint8",
          "name": "",
          "type": "uint8"
        }
      ],
      "stateMutability": "view",
      "type": "function"
    },
    {
      "inputs": [],
      "name": "name",
      "outputs": [
        {
          "internalType": "string",
          "name": "",
          "type": "string"
        }
      ],
      "stateMutability": "view",
      "type": "function"
    },
    {
      "inputs": [],
      "name": "owner",
      "outputs": [
        {
          "internalType": "address",
          "name": "",
          "type": "address"
        }
      ],
      "stateMutability": "view",
      "type": "function"
    },
    {
      "inputs": [
        {
          "internalType": "uint256",
          "name": "tokenId",
          "type": "uint256"
        }
      ],
      "name": "ownerOf",
      "outputs": [
        {
          "internalType": "address",
          "name": "",
          "type": "address"
        }
      ],
      "stateMutability": "view",
      "type": "function"
    },
    {
      "inputs": [],
      "name": "ownerWithdrawals",
      "outputs": [
        {
          "internalType": "uint256",
          "name": "",
          "type": "uint256"
        }
      ],
      "stateMutability": "view",
      "type": "function"
    },
    {
      "inputs": [],
      "name": "preMaxPerWallet",
      "outputs": [
        {
          "internalType": "uint256",
          "name": "",
          "type": "uint256"
        }
      ],
      "stateMutability": "view",
      "type": "function"
    },
    {
      "inputs": [
        {
          "internalType": "address",
          "name": "from",
          "type": "address"
        },
        {
          "internalType": "address",
          "name": "to",
          "type": "address"
        },
        {
          "internalType": "uint256",
          "name": "tokenId",
          "type": "uint256"
        }
      ],
      "name": "safeTransferFrom",
      "outputs": [],
      "stateMutability": "nonpayable",
      "type": "function"
    },
    {
      "inputs": [
        {
          "internalType": "address",
          "name": "from",
          "type": "address"
        },
        {
          "internalType": "address",
          "name": "to",
          "type": "address"
        },
        {
          "internalType": "uint256",
          "name": "tokenId",
          "type": "uint256"
        },
        {
          "internalType": "bytes",
          "name": "_data",
          "type": "bytes"
        }
      ],
      "name": "safeTransferFrom",
      "outputs": [],
      "stateMutability": "nonpayable",
      "type": "function"
    },
    {
      "inputs": [],
      "name": "saleIsActive",
      "outputs": [
        {
          "internalType": "bool",
          "name": "",
          "type": "bool"
        }
      ],
      "stateMutability": "view",
      "type": "function"
    },
    {
      "inputs": [
        {
          "internalType": "address",
          "name": "operator",
          "type": "address"
        },
        {
          "internalType": "bool",
          "name": "approved",
          "type": "bool"
        }
      ],
      "name": "setApprovalForAll",
      "outputs": [],
      "stateMutability": "nonpayable",
      "type": "function"
    },
    {
      "inputs": [
        {
          "internalType": "string",
          "name": "baseURI",
          "type": "string"
        }
      ],
      "name": "setBaseURI",
      "outputs": [],
      "stateMutability": "nonpayable",
      "type": "function"
    },
    {
      "inputs": [
        {
          "internalType": "bytes4",
          "name": "interfaceId",
          "type": "bytes4"
        }
      ],
      "name": "supportsInterface",
      "outputs": [
        {
          "internalType": "bool",
          "name": "",
          "type": "bool"
        }
      ],
      "stateMutability": "view",
      "type": "function"
    },
    {
      "inputs": [],
      "name": "symbol",
      "outputs": [
        {
          "internalType": "string",
          "name": "",
          "type": "string"
        }
      ],
      "stateMutability": "view",
      "type": "function"
    },
    {
      "inputs": [
        {
          "internalType": "uint256",
          "name": "tokenId",
          "type": "uint256"
        }
      ],
      "name": "tokenURI",
      "outputs": [
        {
          "internalType": "string",
          "name": "",
          "type": "string"
        }
      ],
      "stateMutability": "view",
      "type": "function"
    },
    {
      "inputs": [],
      "name": "tokensMinted",
      "outputs": [
        {
          "internalType": "uint256",
          "name": "",
          "type": "uint256"
        }
      ],
      "stateMutability": "view",
      "type": "function"
    },
    {
      "inputs": [],
      "name": "totalSupply",
      "outputs": [
        {
          "internalType": "uint256",
          "name": "",
          "type": "uint256"
        }
      ],
      "stateMutability": "view",
      "type": "function"
    },
    {
      "inputs": [
        {
          "internalType": "address",
          "name": "from",
          "type": "address"
        },
        {
          "internalType": "address",
          "name": "to",
          "type": "address"
        },
        {
          "internalType": "uint256",
          "name": "tokenId",
          "type": "uint256"
        }
      ],
      "name": "transferFrom",
      "outputs": [],
      "stateMutability": "nonpayable",
      "type": "function"
    },
    {
      "inputs": [
        {
          "internalType": "uint256",
          "name": "newPrice",
          "type": "uint256"
        }
      ],
      "name": "updateMintPrice",
      "outputs": [],
      "stateMutability": "nonpayable",
      "type": "function"
    },
    {
      "inputs": [
        {
          "internalType": "address",
          "name": "",
          "type": "address"
        }
      ],
      "name": "winner",
      "outputs": [
        {
          "internalType": "uint8",
          "name": "",
          "type": "uint8"
        }
      ],
      "stateMutability": "view",
      "type": "function"
    },
    {
      "inputs": [],
      "name": "winnersCount",
      "outputs": [
        {
          "internalType": "uint8",
          "name": "",
          "type": "uint8"
        }
      ],
      "stateMutability": "view",
      "type": "function"
    },
    {
      "inputs": [
        {
          "internalType": "uint256",
          "name": "amount",
          "type": "uint256"
        }
      ],
      "name": "withdraw",
      "outputs": [],
      "stateMutability": "nonpayable",
      "type": "function"
    },
    {
      "inputs": [],
      "name": "withdrawWinnings",
      "outputs": [],
      "stateMutability": "nonpayable",
      "type": "function"
    },
    {
      "inputs": [
        {
          "internalType": "address",
          "name": "",
          "type": "address"
        }
      ],
      "name": "withdrawn",
      "outputs": [
        {
          "internalType": "bool",
          "name": "",
          "type": "bool"
        }
      ],
      "stateMutability": "view",
      "type": "function"
    }
  ],
  "bytecode": "0x600a805460ff191690556000600b5560e0604052602e60808181529062002b0060a03980516200003891600f91602090910190620001c9565b5066470de4df820000601055600060118190556013805460ff1916905560148190556015553480156200006a57600080fd5b5060405162002b2e38038062002b2e8339810160408190526200008d916200031a565b828260006200009b62000167565b600080546001600160a01b0319166001600160a01b0383169081178255604051929350917f8be0079c531659141344cd1fd0a4f28419497f9722a3daafe3b4186f6b6457e0908290a350620000f76301ffc9a760e01b6200016b565b81516200010c90600c906020850190620001c9565b5080516200012290600d906020840190620001c9565b50620001356380ac58cd60e01b6200016b565b62000147635b5e139f60e01b6200016b565b6200015963780e9d6360e01b6200016b565b5050600e5550620004149050565b3390565b6001600160e01b03198082161415620001a15760405162461bcd60e51b815260040162000198906200038a565b60405180910390fd5b6001600160e01b0319166000908152600160208190526040909120805460ff19169091179055565b828054620001d790620003c1565b90600052602060002090601f016020900481019282620001fb576000855562000246565b82601f106200021657805160ff191683800117855562000246565b8280016001018555821562000246579182015b828111156200024657825182559160200191906001019062000229565b506200025492915062000258565b5090565b5b8082111562000254576000815560010162000259565b600082601f83011262000280578081fd5b81516001600160401b03808211156200029d576200029d620003fe565b6040516020601f8401601f1916820181018381118382101715620002c557620002c5620003fe565b6040528382528584018101871015620002dc578485fd5b8492505b83831015620002ff5785830181015182840182015291820191620002e0565b838311156200031057848185840101525b5095945050505050565b6000806000606084860312156200032f578283fd5b83516001600160401b038082111562000346578485fd5b62000354878388016200026f565b945060208601519150808211156200036a578384fd5b5062000379868287016200026f565b925050604084015190509250925092565b6020808252601c908201527f4552433136353a20696e76616c696420696e7465726661636520696400000000604082015260600190565b600281046001821680620003d657607f821691505b60208210811415620003f857634e487b7160e01b600052602260045260246000fd5b50919050565b634e487b7160e01b600052604160045260246000fd5b6126dc80620004246000396000f3fe6080604052600436106102245760003560e01c806370a0823111610123578063b88d4fde116100ab578063e985e9c51161006f578063e985e9c5146105d8578063eb27bf81146105f8578063eb8d24441461060d578063eef49ee314610622578063f240ca561461063757610224565b8063b88d4fde1461055b578063c87b56dd1461057b578063cc42e83a1461059b578063cfb15ef0146105b0578063d885a21e146105d057610224565b806388256beb116100f257806388256beb146104e75780638da5cb5b146104fc5780638e9203511461051157806395d89b4114610526578063a22cb4651461053b57610224565b806370a0823114610488578063807f54f6146104a857806384c99fc2146104bd578063861d47b4146104d257610224565b80632e1a7d4d116101b157806355f804b31161017557806355f804b3146103fe5780636352211e1461041e5780636c0360eb1461043e5780636de9f32b146104535780636ef610921461046857610224565b80632e1a7d4d1461037457806342842e0e1461039457806349713811146103b45780634a2eeebb146103c95780635312ea8e146103de57610224565b8063081812fc116101f8578063081812fc146102c5578063095ea7b3146102f257806318160ddd1461031257806323b872dd146103275780632ad957861461034757610224565b8062728e461461022957806301ffc9a71461024b578063027969961461028157806306fdde03146102a3575b600080fd5b34801561023557600080fd5b50610249610244366004611d0e565b61064a565b005b34801561025757600080fd5b5061026b610266366004611c90565b610697565b6040516102789190611e3d565b60405180910390f35b34801561028d57600080fd5b506102966106ba565b6040516102789190612494565b3480156102af57600080fd5b506102b86106c0565b6040516102789190611e48565b3480156102d157600080fd5b506102e56102e0366004611d0e565b610752565b6040516102789190611dec565b3480156102fe57600080fd5b5061024961030d366004611c67565b610795565b34801561031e57600080fd5b5061029661082d565b34801561033357600080fd5b50610249610342366004611b79565b610833565b34801561035357600080fd5b50610367610362366004611b2d565b61086b565b604051610278919061249d565b34801561038057600080fd5b5061024961038f366004611d0e565b610880565b3480156103a057600080fd5b506102496103af366004611b79565b610948565b3480156103c057600080fd5b50610367610963565b3480156103d557600080fd5b5061029661096c565b3480156103ea57600080fd5b506102496103f9366004611d0e565b610972565b34801561040a57600080fd5b50610249610419366004611cc8565b6109de565b34801561042a57600080fd5b506102e5610439366004611d0e565b610a29565b34801561044a57600080fd5b506102b8610a66565b34801561045f57600080fd5b50610296610a75565b34801561047457600080fd5b5061026b610483366004611b2d565b610a7b565b34801561049457600080fd5b506102966104a3366004611b2d565b610a90565b3480156104b457600080fd5b50610296610ad4565b3480156104c957600080fd5b50610296610ada565b3480156104de57600080fd5b50610296610adf565b3480156104f357600080fd5b50610296610ae4565b34801561050857600080fd5b506102e5610aea565b34801561051d57600080fd5b50610249610af9565b34801561053257600080fd5b506102b8610b4c565b34801561054757600080fd5b50610249610556366004611c2d565b610b5b565b34801561056757600080fd5b50610249610576366004611bb4565b610c29565b34801561058757600080fd5b506102b8610596366004611d0e565b610c68565b3480156105a757600080fd5b50610249610ccd565b3480156105bc57600080fd5b506103676105cb366004611b2d565b610ded565b610249610e02565b3480156105e457600080fd5b5061026b6105f3366004611b47565b610e35565b34801561060457600080fd5b50610296610e63565b34801561061957600080fd5b5061026b610e69565b34801561062e57600080fd5b50610296610e72565b610249610645366004611d26565b610e78565b6106526110ab565b6001600160a01b0316610663610aea565b6001600160a01b0316146106925760405162461bcd60e51b81526004016106899061226f565b60405180910390fd5b601055565b6001600160e01b0319811660009081526001602052604090205460ff165b919050565b600e5481565b6060600c80546106cf90612592565b80601f01602080910402602001604051908101604052809291908181526020018280546106fb90612592565b80156107485780601f1061071d57610100808354040283529160200191610748565b820191906000526020600020905b81548152906001019060200180831161072b57829003601f168201915b5050505050905090565b600061075d826110af565b6107795760405162461bcd60e51b815260040161068990612223565b506000908152600260205260409020546001600160a01b031690565b60006107a082610a29565b9050806001600160a01b0316836001600160a01b031614156107d45760405162461bcd60e51b815260040161068990612383565b806001600160a01b03166107e66110ab565b6001600160a01b031614806108025750610802816105f36110ab565b61081e5760405162461bcd60e51b8152600401610689906120aa565b61082883836110c4565b505050565b600b5490565b61084461083e6110ab565b82611132565b6108605760405162461bcd60e51b8152600401610689906123c4565b6108288383836111b7565b60086020526000908152604090205460ff1681565b6108886110ab565b6001600160a01b0316610899610aea565b6001600160a01b0316146108bf5760405162461bcd60e51b81526004016106899061226f565b601454606460115460466108d391906124fc565b6108dd91906124e8565b6108e7919061251b565b8111156109065760405162461bcd60e51b81526004016106899061219a565b8060145461091491906124ab565b601455604051339082156108fc029083906000818181858888f19350505050158015610944573d6000803e3d6000fd5b5050565b61082883838360405180602001604052806000815250610c29565b600a5460ff1681565b60145481565b61097a6110ab565b6001600160a01b031661098b610aea565b6001600160a01b0316146109b15760405162461bcd60e51b81526004016106899061226f565b604051339082156108fc029083906000818181858888f19350505050158015610944573d6000803e3d6000fd5b6109e66110ab565b6001600160a01b03166109f7610aea565b6001600160a01b031614610a1d5760405162461bcd60e51b81526004016106899061226f565b610a268161137c565b50565b6000808211610a4a5760405162461bcd60e51b815260040161068990612151565b506000908152600560205260409020546001600160a01b031690565b6060600f80546106cf90612592565b600b5481565b60126020526000908152604090205460ff1681565b60006001600160a01b038216610ab85760405162461bcd60e51b815260040161068990612107565b506001600160a01b031660009081526004602052604090205490565b60115481565b601e81565b603c81565b60105481565b6000546001600160a01b031690565b610b016110ab565b6001600160a01b0316610b12610aea565b6001600160a01b031614610b385760405162461bcd60e51b81526004016106899061226f565b6013805460ff19811660ff90911615179055565b6060600d80546106cf90612592565b610b636110ab565b6001600160a01b0316826001600160a01b03161415610b945760405162461bcd60e51b815260040161068990611f57565b8060036000610ba16110ab565b6001600160a01b03908116825260208083019390935260409182016000908120918716808252919093529120805460ff191692151592909217909155610be56110ab565b6001600160a01b03167f17307eab39ab6107e8899845ad3d59bd9653f200f220920489ca2b5937696c3183604051610c1d9190611e3d565b60405180910390a35050565b610c3a610c346110ab565b83611132565b610c565760405162461bcd60e51b8152600401610689906123c4565b610c628484848461138f565b50505050565b6060610c73826110af565b610c8f5760405162461bcd60e51b8152600401610689906122ed565b6000610c99610a66565b905080610ca5846113c2565b604051602001610cb6929190611d8f565b604051602081830303815290604052915050919050565b3360009081526008602052604090205460ff16610cfc5760405162461bcd60e51b81526004016106899061244c565b600e54610d0761082d565b1015610d255760405162461bcd60e51b81526004016106899061233c565b3360009081526012602052604090205460ff1615610d555760405162461bcd60e51b815260040161068990612062565b336000908152601260205260408120805460ff19166001179055601154606490610d8090601e6124fc565b610d8a91906124e8565b600a54336000908152600860205260408120549293509160ff91821691610db3918591166124fc565b610dbd91906124e8565b604051909150339082156108fc029083906000818181858888f19350505050158015610828573d6000803e3d6000fd5b60096020526000908152604090205460ff1681565b60003411610e225760405162461bcd60e51b815260040161068990611ead565b34601554610e3091906124ab565b601555565b6001600160a01b03918216600090815260036020908152604080832093909416825291909152205460ff1690565b6103e881565b60135460ff1681565b60155481565b6000610e8261082d565b9050601e8260ff161115610ea85760405162461bcd60e51b815260040161068990612206565b600e54610eb860ff8416836124ab565b1115610ed65760405162461bcd60e51b815260040161068990612477565b60135460ff16610ef85760405162461bcd60e51b81526004016106899061208d565b6103e88110610f3657348260ff16601054610f1391906124fc565b1115610f315760405162461bcd60e51b815260040161068990612366565b611030565b33600090815260096020526040902054603c90610f5790849060ff166124c3565b60ff161115610f785760405162461bcd60e51b815260040161068990612020565b610f84816103e861251b565b8260ff1611610fb3578160ff16601054610f9e91906124fc565b601154610fab91906124ab565b601155611030565b6010543490610fc4836103e861251b565b610fd19060ff861661251b565b610fdb91906124fc565b1115610ff95760405162461bcd60e51b815260040161068990612366565b601054611008826103e861251b565b6110159060ff851661251b565b61101f91906124fc565b60115461102c91906124ab565b6011555b3360009081526009602052604090205461104e90839060ff166124c3565b336000908152600960205260409020805460ff191660ff9290921691909117905560015b8260ff16811161082857600e54821015611099576110993361109483856124ab565b6114dd565b806110a3816125cd565b915050611072565b3390565b60009081526006602052604090205460ff1690565b600081815260026020526040902080546001600160a01b0319166001600160a01b03841690811790915581906110f982610a29565b6001600160a01b03167f8c5be1e5ebec7d5bd14f71427d1e84f3dd0314c0f7b2291e5b200ac8c7c3b92560405160405180910390a45050565b600061113d826110af565b6111595760405162461bcd60e51b815260040161068990611fd4565b600061116483610a29565b9050806001600160a01b0316846001600160a01b0316148061119f5750836001600160a01b031661119484610752565b6001600160a01b0316145b806111af57506111af8185610e35565b949350505050565b826001600160a01b03166111ca82610a29565b6001600160a01b0316146111f05760405162461bcd60e51b8152600401610689906122a4565b6001600160a01b0382166112165760405162461bcd60e51b815260040161068990611f13565b611221838383610828565b61122c6000826110c4565b6001600160a01b03831660009081526004602052604081208054916112508361255e565b9091555050600081815260056020908152604080832080546001600160a01b0319166001600160a01b038716908117909155835260049091528120805491611297836125cd565b909155505060008181526007602052604090205460ff1615611336576001600160a01b0383166000908152600860205260408120805460ff16916112da83612575565b82546101009290920a60ff8181021990931691831602179091556001600160a01b03841660009081526008602052604081208054909216925061131c836125e8565b91906101000a81548160ff021916908360ff160217905550505b80826001600160a01b0316846001600160a01b03167fddf252ad1be2c89b69c2b068fc378daa952ba7f163c4a11628f55a4df523b3ef60405160405180910390a4505050565b805161094490600f906020840190611a0d565b61139a8484846111b7565b6113a6848484846114f7565b610c625760405162461bcd60e51b815260040161068990611e5b565b6060816113e757506040805180820190915260018152600360fc1b60208201526106b5565b8160005b811561141157806113fb816125cd565b915061140a9050600a836124e8565b91506113eb565b60008167ffffffffffffffff81111561143a57634e487b7160e01b600052604160045260246000fd5b6040519080825280601f01601f191660200182016040528015611464576020820181803683370190505b5090505b84156111af5761147960018361251b565b9150611486600a86612608565b6114919060306124ab565b60f81b8183815181106114b457634e487b7160e01b600052603260045260246000fd5b60200101906001600160f81b031916908160001a9053506114d6600a866124e8565b9450611468565b6109448282604051806020016040528060008152506115d6565b600061150b846001600160a01b0316611609565b611517575060016111af565b600061159f630a85bd0160e11b61152c6110ab565b8887876040516024016115429493929190611e00565b604051602081830303815290604052906001600160e01b0319166020820180516001600160e01b038381831617835250505050604051806060016040528060328152602001612675603291396001600160a01b038816919061160f565b90506000818060200190518101906115b79190611cac565b6001600160e01b031916630a85bd0160e11b1492505050949350505050565b6115e08383611628565b6115ed60008484846114f7565b6108285760405162461bcd60e51b815260040161068990611e5b565b3b151590565b606061161e84846000856118d2565b90505b9392505050565b6001600160a01b03821661164e5760405162461bcd60e51b8152600401610689906121d1565b611657816110af565b156116745760405162461bcd60e51b815260040161068990611edc565b61168060008383610828565b600081815260056020908152604080832080546001600160a01b0319166001600160a01b03871690811790915560068352818420805460ff191660019081179091559084526004909252909120546116d7916124ab565b6001600160a01b038316600090815260046020526040902055600b546116fe9060016124ab565b600b55600e5461171090600a906124e8565b600e5461171d919061251b565b61172561082d565b1080156117375750600a5460ff16600f145b15611757576000818152600760205260409020805460ff19169055611896565b6002600e5461176691906124e8565b600e54611773919061251b565b61177b61082d565b10801561178c5750600a805460ff16145b156117ac576000818152600760205260409020805460ff19169055611896565b60006117b6611992565b9050606481101561187d57600a54601460ff909116101561186157600a546117e29060ff1660016124c3565b600a805460ff92831660ff19918216179091556000848152600760209081526040808320805490941660019081179094556001600160a01b038816835260089091529020546118329216906124c3565b6001600160a01b0384166000908152600860205260409020805460ff191660ff92909216919091179055611878565b6000828152600760205260409020805460ff191690555b611894565b6000828152600760205260409020805460ff191690555b505b60405181906001600160a01b038416906000907fddf252ad1be2c89b69c2b068fc378daa952ba7f163c4a11628f55a4df523b3ef908290a45050565b6060824710156118f45760405162461bcd60e51b815260040161068990611f8e565b6118fd85611609565b6119195760405162461bcd60e51b815260040161068990612415565b600080866001600160a01b031685876040516119359190611d73565b60006040518083038185875af1925050503d8060008114611972576040519150601f19603f3d011682016040523d82523d6000602084013e611977565b606091505b50915091506119878282866119d4565b979650505050505050565b60008044426040516020016119a8929190611dde565b60408051601f19818403018152919052805160209091012090506119ce6103e882612608565b91505090565b606083156119e3575081611621565b8251156119f35782518084602001fd5b8160405162461bcd60e51b81526004016106899190611e48565b828054611a1990612592565b90600052602060002090601f016020900481019282611a3b5760008555611a81565b82601f10611a5457805160ff1916838001178555611a81565b82800160010185558215611a81579182015b82811115611a81578251825591602001919060010190611a66565b50611a8d929150611a91565b5090565b5b80821115611a8d5760008155600101611a92565b600067ffffffffffffffff80841115611ac157611ac1612648565b604051601f8501601f191681016020018281118282101715611ae557611ae5612648565b604052848152915081838501861015611afd57600080fd5b8484602083013760006020868301015250509392505050565b80356001600160a01b03811681146106b557600080fd5b600060208284031215611b3e578081fd5b61162182611b16565b60008060408385031215611b59578081fd5b611b6283611b16565b9150611b7060208401611b16565b90509250929050565b600080600060608486031215611b8d578081fd5b611b9684611b16565b9250611ba460208501611b16565b9150604084013590509250925092565b60008060008060808587031215611bc9578081fd5b611bd285611b16565b9350611be060208601611b16565b925060408501359150606085013567ffffffffffffffff811115611c02578182fd5b8501601f81018713611c12578182fd5b611c2187823560208401611aa6565b91505092959194509250565b60008060408385031215611c3f578182fd5b611c4883611b16565b915060208301358015158114611c5c578182fd5b809150509250929050565b60008060408385031215611c79578182fd5b611c8283611b16565b946020939093013593505050565b600060208284031215611ca1578081fd5b81356116218161265e565b600060208284031215611cbd578081fd5b81516116218161265e565b600060208284031215611cd9578081fd5b813567ffffffffffffffff811115611cef578182fd5b8201601f81018413611cff578182fd5b6111af84823560208401611aa6565b600060208284031215611d1f578081fd5b5035919050565b600060208284031215611d37578081fd5b813560ff81168114611621578182fd5b60008151808452611d5f816020860160208601612532565b601f01601f19169290920160200192915050565b60008251611d85818460208701612532565b9190910192915050565b600066697066733a2f2f60c81b82528351611db1816007850160208801612532565b602f60f81b6007918401918201528351611dd2816008840160208801612532565b01600801949350505050565b918252602082015260400190565b6001600160a01b0391909116815260200190565b6001600160a01b0385811682528416602082015260408101839052608060608201819052600090611e3390830184611d47565b9695505050505050565b901515815260200190565b6000602082526116216020830184611d47565b60208082526032908201527f4552433732313a207472616e7366657220746f206e6f6e20455243373231526560408201527131b2b4bb32b91034b6b83632b6b2b73a32b960711b606082015260800190565b6020808252601590820152740daeae6e840c8cae0dee6d2e840e6dedaca40cae8d605b1b604082015260600190565b6020808252601c908201527f4552433732313a20746f6b656e20616c7265616479206d696e74656400000000604082015260600190565b60208082526024908201527f4552433732313a207472616e7366657220746f20746865207a65726f206164646040820152637265737360e01b606082015260800190565b60208082526019908201527f4552433732313a20617070726f766520746f2063616c6c657200000000000000604082015260600190565b60208082526026908201527f416464726573733a20696e73756666696369656e742062616c616e636520666f6040820152651c8818d85b1b60d21b606082015260800190565b6020808252602c908201527f4552433732313a206f70657261746f7220717565727920666f72206e6f6e657860408201526b34b9ba32b73a103a37b5b2b760a11b606082015260800190565b60208082526022908201527f6d6178207065722077616c6c6574207265616368656420666f72207072656d696040820152611b9d60f21b606082015260800190565b60208082526011908201527020b63932b0b23c903bb4ba34323930bbb760791b604082015260600190565b60208082526003908201526204531360ec1b604082015260600190565b60208082526038908201527f4552433732313a20617070726f76652063616c6c6572206973206e6f74206f7760408201527f6e6572206e6f7220617070726f76656420666f7220616c6c0000000000000000606082015260800190565b6020808252602a908201527f4552433732313a2062616c616e636520717565727920666f7220746865207a65604082015269726f206164647265737360b01b606082015260800190565b60208082526029908201527f4552433732313a206f776e657220717565727920666f72206e6f6e657869737460408201526832b73a103a37b5b2b760b91b606082015260800190565b6020808252601d908201527f43616e6e6f74207769746864726177206d6f7265207468616e20373025000000604082015260600190565b6020808252818101527f4552433732313a206d696e7420746f20746865207a65726f2061646472657373604082015260600190565b60208082526003908201526245313160e81b604082015260600190565b6020808252602c908201527f4552433732313a20617070726f76656420717565727920666f72206e6f6e657860408201526b34b9ba32b73a103a37b5b2b760a11b606082015260800190565b6020808252818101527f4f776e61626c653a2063616c6c6572206973206e6f7420746865206f776e6572604082015260600190565b60208082526029908201527f4552433732313a207472616e73666572206f6620746f6b656e2074686174206960408201526839903737ba1037bbb760b91b606082015260800190565b6020808252602f908201527f4552433732314d657461646174613a2055524920717565727920666f72206e6f60408201526e3732bc34b9ba32b73a103a37b5b2b760891b606082015260800190565b60208082526010908201526f4d696e74696e67206e6f7420646f6e6560801b604082015260600190565b60208082526003908201526245313560e81b604082015260600190565b60208082526021908201527f4552433732313a20617070726f76616c20746f2063757272656e74206f776e656040820152603960f91b606082015260800190565b60208082526031908201527f4552433732313a207472616e736665722063616c6c6572206973206e6f74206f6040820152701ddb995c881b9bdc88185c1c1c9bdd9959607a1b606082015260800190565b6020808252601d908201527f416464726573733a2063616c6c20746f206e6f6e2d636f6e7472616374000000604082015260600190565b6020808252601190820152704e6f2077696e6e696e6720746f6b656e7360781b604082015260600190565b60208082526003908201526222989960e91b604082015260600190565b90815260200190565b60ff91909116815260200190565b600082198211156124be576124be61261c565b500190565b600060ff821660ff84168060ff038211156124e0576124e061261c565b019392505050565b6000826124f7576124f7612632565b500490565b60008160001904831182151516156125165761251661261c565b500290565b60008282101561252d5761252d61261c565b500390565b60005b8381101561254d578181015183820152602001612535565b83811115610c625750506000910152565b60008161256d5761256d61261c565b506000190190565b600060ff8216806125885761258861261c565b6000190192915050565b6002810460018216806125a657607f821691505b602082108114156125c757634e487b7160e01b600052602260045260246000fd5b50919050565b60006000198214156125e1576125e161261c565b5060010190565b600060ff821660ff8114156125ff576125ff61261c565b60010192915050565b60008261261757612617612632565b500690565b634e487b7160e01b600052601160045260246000fd5b634e487b7160e01b600052601260045260246000fd5b634e487b7160e01b600052604160045260246000fd5b6001600160e01b031981168114610a2657600080fdfe4552433732313a207472616e7366657220746f206e6f6e20455243373231526563656976657220696d706c656d656e746572a26469706673582212205594f92230937d4fbe47af574701c3a0cba2ce838c33e64ab2249fc85e426f5964736f6c63430008000033516d58525344324b4c32624e6e55457a624a424e4748326b36314e524c67546f7844334a7169396d62336f796567",
  "linkReferences": {},
  "deployedLinkReferences": {}
}