{
  "_format": "hh-sol-artifact-1",
  "contractName": "ERC721",
  "sourceName": "contracts/nflottie.sol",
  "abi": [
    {
      "inputs": [
        {
          "internalType": "string",
          "name": "name_",
          "type": "string"
        },
        {
          "internalType": "string",
          "name": "symbol_",
          "type": "string"
        }
      ],
      "stateMutability": "nonpayable",
      "type": "constructor"
    },
    {
      "anonymous": false,
      "inputs": [
        {
          "indexed": true,
          "internalType": "address",
          "name": "owner",
          "type": "address"
        },
        {
          "indexed": true,
          "internalType": "address",
          "name": "approved",
          "type": "address"
        },
        {
          "indexed": true,
          "internalType": "uint256",
          "name": "tokenId",
          "type": "uint256"
        }
      ],
      "name": "Approval",
      "type": "event"
    },
    {
      "anonymous": false,
      "inputs": [
        {
          "indexed": true,
          "internalType": "address",
          "name": "owner",
          "type": "address"
        },
        {
          "indexed": true,
          "internalType": "address",
          "name": "operator",
          "type": "address"
        },
        {
          "indexed": false,
          "internalType": "bool",
          "name": "approved",
          "type": "bool"
        }
      ],
      "name": "ApprovalForAll",
      "type": "event"
    },
    {
      "anonymous": false,
      "inputs": [
        {
          "indexed": true,
          "internalType": "address",
          "name": "from",
          "type": "address"
        },
        {
          "indexed": true,
          "internalType": "address",
          "name": "to",
          "type": "address"
        },
        {
          "indexed": true,
          "internalType": "uint256",
          "name": "tokenId",
          "type": "uint256"
        }
      ],
      "name": "Transfer",
      "type": "event"
    },
    {
      "inputs": [
        {
          "internalType": "address",
          "name": "to",
          "type": "address"
        },
        {
          "internalType": "uint256",
          "name": "tokenId",
          "type": "uint256"
        }
      ],
      "name": "approve",
      "outputs": [],
      "stateMutability": "nonpayable",
      "type": "function"
    },
    {
      "inputs": [
        {
          "internalType": "address",
          "name": "owner",
          "type": "address"
        }
      ],
      "name": "balanceOf",
      "outputs": [
        {
          "internalType": "uint256",
          "name": "",
          "type": "uint256"
        }
      ],
      "stateMutability": "view",
      "type": "function"
    },
    {
      "inputs": [],
      "name": "baseURI",
      "outputs": [
        {
          "internalType": "string",
          "name": "",
          "type": "string"
        }
      ],
      "stateMutability": "view",
      "type": "function"
    },
    {
      "inputs": [
        {
          "internalType": "uint256",
          "name": "tokenId",
          "type": "uint256"
        }
      ],
      "name": "getApproved",
      "outputs": [
        {
          "internalType": "address",
          "name": "",
          "type": "address"
        }
      ],
      "stateMutability": "view",
      "type": "function"
    },
    {
      "inputs": [
        {
          "internalType": "address",
          "name": "owner",
          "type": "address"
        },
        {
          "internalType": "address",
          "name": "operator",
          "type": "address"
        }
      ],
      "name": "isApprovedForAll",
      "outputs": [
        {
          "internalType": "bool",
          "name": "",
          "type": "bool"
        }
      ],
      "stateMutability": "view",
      "type": "function"
    },
    {
      "inputs": [],
      "name": "name",
      "outputs": [
        {
          "internalType": "string",
          "name": "",
          "type": "string"
        }
      ],
      "stateMutability": "view",
      "type": "function"
    },
    {
      "inputs": [
        {
          "internalType": "uint256",
          "name": "tokenId",
          "type": "uint256"
        }
      ],
      "name": "ownerOf",
      "outputs": [
        {
          "internalType": "address",
          "name": "",
          "type": "address"
        }
      ],
      "stateMutability": "view",
      "type": "function"
    },
    {
      "inputs": [
        {
          "internalType": "address",
          "name": "from",
          "type": "address"
        },
        {
          "internalType": "address",
          "name": "to",
          "type": "address"
        },
        {
          "internalType": "uint256",
          "name": "tokenId",
          "type": "uint256"
        }
      ],
      "name": "safeTransferFrom",
      "outputs": [],
      "stateMutability": "nonpayable",
      "type": "function"
    },
    {
      "inputs": [
        {
          "internalType": "address",
          "name": "from",
          "type": "address"
        },
        {
          "internalType": "address",
          "name": "to",
          "type": "address"
        },
        {
          "internalType": "uint256",
          "name": "tokenId",
          "type": "uint256"
        },
        {
          "internalType": "bytes",
          "name": "_data",
          "type": "bytes"
        }
      ],
      "name": "safeTransferFrom",
      "outputs": [],
      "stateMutability": "nonpayable",
      "type": "function"
    },
    {
      "inputs": [
        {
          "internalType": "address",
          "name": "operator",
          "type": "address"
        },
        {
          "internalType": "bool",
          "name": "approved",
          "type": "bool"
        }
      ],
      "name": "setApprovalForAll",
      "outputs": [],
      "stateMutability": "nonpayable",
      "type": "function"
    },
    {
      "inputs": [
        {
          "internalType": "bytes4",
          "name": "interfaceId",
          "type": "bytes4"
        }
      ],
      "name": "supportsInterface",
      "outputs": [
        {
          "internalType": "bool",
          "name": "",
          "type": "bool"
        }
      ],
      "stateMutability": "view",
      "type": "function"
    },
    {
      "inputs": [],
      "name": "symbol",
      "outputs": [
        {
          "internalType": "string",
          "name": "",
          "type": "string"
        }
      ],
      "stateMutability": "view",
      "type": "function"
    },
    {
      "inputs": [
        {
          "internalType": "uint256",
          "name": "tokenId",
          "type": "uint256"
        }
      ],
      "name": "tokenURI",
      "outputs": [
        {
          "internalType": "string",
          "name": "",
          "type": "string"
        }
      ],
      "stateMutability": "view",
      "type": "function"
    },
    {
      "inputs": [],
      "name": "tokensMinted",
      "outputs": [
        {
          "internalType": "uint256",
          "name": "",
          "type": "uint256"
        }
      ],
      "stateMutability": "view",
      "type": "function"
    },
    {
      "inputs": [],
      "name": "totalSupply",
      "outputs": [
        {
          "internalType": "uint256",
          "name": "",
          "type": "uint256"
        }
      ],
      "stateMutability": "view",
      "type": "function"
    },
    {
      "inputs": [
        {
          "internalType": "address",
          "name": "from",
          "type": "address"
        },
        {
          "internalType": "address",
          "name": "to",
          "type": "address"
        },
        {
          "internalType": "uint256",
          "name": "tokenId",
          "type": "uint256"
        }
      ],
      "name": "transferFrom",
      "outputs": [],
      "stateMutability": "nonpayable",
      "type": "function"
    }
  ],
  "bytecode": "0x600060065560e0604052602e6080818152906200185360a03980516200002e9160099160209091019062000136565b503480156200003c57600080fd5b5060405162001881380380620018818339810160408190526200005f9162000287565b620000716301ffc9a760e01b620000db565b81516200008690600790602085019062000136565b5080516200009c90600890602084019062000136565b50620000af6380ac58cd60e01b620000db565b620000c1635b5e139f60e01b620000db565b620000d363780e9d6360e01b620000db565b505062000378565b6001600160e01b03198082161415620001115760405162461bcd60e51b81526004016200010890620002ee565b60405180910390fd5b6001600160e01b0319166000908152602081905260409020805460ff19166001179055565b828054620001449062000325565b90600052602060002090601f016020900481019282620001685760008555620001b3565b82601f106200018357805160ff1916838001178555620001b3565b82800160010185558215620001b3579182015b82811115620001b357825182559160200191906001019062000196565b50620001c1929150620001c5565b5090565b5b80821115620001c15760008155600101620001c6565b600082601f830112620001ed578081fd5b81516001600160401b03808211156200020a576200020a62000362565b6040516020601f8401601f191682018101838111838210171562000232576200023262000362565b604052838252858401810187101562000249578485fd5b8492505b838310156200026c57858301810151828401820152918201916200024d565b838311156200027d57848185840101525b5095945050505050565b600080604083850312156200029a578182fd5b82516001600160401b0380821115620002b1578384fd5b620002bf86838701620001dc565b93506020850151915080821115620002d5578283fd5b50620002e485828601620001dc565b9150509250929050565b6020808252601c908201527f4552433136353a20696e76616c696420696e7465726661636520696400000000604082015260600190565b6002810460018216806200033a57607f821691505b602082108114156200035c57634e487b7160e01b600052602260045260246000fd5b50919050565b634e487b7160e01b600052604160045260246000fd5b6114cb80620003886000396000f3fe608060405234801561001057600080fd5b50600436106101005760003560e01c80636c0360eb11610097578063a22cb46511610066578063a22cb465146101f1578063b88d4fde14610204578063c87b56dd14610217578063e985e9c51461022a57610100565b80636c0360eb146101c65780636de9f32b146101ce57806370a08231146101d657806395d89b41146101e957610100565b806318160ddd116100d357806318160ddd1461017857806323b872dd1461018d57806342842e0e146101a05780636352211e146101b357610100565b806301ffc9a71461010557806306fdde031461012e578063081812fc14610143578063095ea7b314610163575b600080fd5b610118610113366004610dbd565b61023d565b6040516101259190610ef5565b60405180910390f35b610136610260565b6040516101259190610f00565b610156610151366004610df5565b6102f2565b6040516101259190610ea4565b610176610171366004610d94565b61033e565b005b6101806103d6565b604051610125919061130f565b61017661019b366004610c53565b6103dc565b6101766101ae366004610c53565b610414565b6101566101c1366004610df5565b61042f565b61013661046c565b61018061047b565b6101806101e4366004610c07565b610481565b6101366104c5565b6101766101ff366004610d5a565b6104d4565b610176610212366004610c8e565b6105a2565b610136610225366004610df5565b6105e1565b610118610238366004610c21565b610646565b6001600160e01b0319811660009081526020819052604090205460ff165b919050565b60606007805461026f9061139e565b80601f016020809104026020016040519081016040528092919081815260200182805461029b9061139e565b80156102e85780601f106102bd576101008083540402835291602001916102e8565b820191906000526020600020905b8154815290600101906020018083116102cb57829003601f168201915b5050505050905090565b60006102fd82610674565b6103225760405162461bcd60e51b815260040161031990611162565b60405180910390fd5b506000908152600160205260409020546001600160a01b031690565b60006103498261042f565b9050806001600160a01b0316836001600160a01b0316141561037d5760405162461bcd60e51b815260040161031990611246565b806001600160a01b031661038f610689565b6001600160a01b031614806103ab57506103ab81610238610689565b6103c75760405162461bcd60e51b815260040161031990611072565b6103d1838361068d565b505050565b60065490565b6103ed6103e7610689565b826106fb565b6104095760405162461bcd60e51b815260040161031990611287565b6103d1838383610780565b6103d1838383604051806020016040528060008152506105a2565b60008082116104505760405162461bcd60e51b815260040161031990611119565b506000908152600460205260409020546001600160a01b031690565b60606009805461026f9061139e565b60065481565b60006001600160a01b0382166104a95760405162461bcd60e51b8152600401610319906110cf565b506001600160a01b031660009081526003602052604090205490565b60606008805461026f9061139e565b6104dc610689565b6001600160a01b0316826001600160a01b0316141561050d5760405162461bcd60e51b815260040161031990610fa9565b806002600061051a610689565b6001600160a01b03908116825260208083019390935260409182016000908120918716808252919093529120805460ff19169215159290921790915561055e610689565b6001600160a01b03167f17307eab39ab6107e8899845ad3d59bd9653f200f220920489ca2b5937696c31836040516105969190610ef5565b60405180910390a35050565b6105b36105ad610689565b836106fb565b6105cf5760405162461bcd60e51b815260040161031990611287565b6105db848484846108ab565b50505050565b60606105ec82610674565b6106085760405162461bcd60e51b8152600401610319906111f7565b600061061261046c565b90508061061e846108de565b60405160200161062f929190610e55565b604051602081830303815290604052915050919050565b6001600160a01b03918216600090815260026020908152604080832093909416825291909152205460ff1690565b60009081526005602052604090205460ff1690565b3390565b600081815260016020526040902080546001600160a01b0319166001600160a01b03841690811790915581906106c28261042f565b6001600160a01b03167f8c5be1e5ebec7d5bd14f71427d1e84f3dd0314c0f7b2291e5b200ac8c7c3b92560405160405180910390a45050565b600061070682610674565b6107225760405162461bcd60e51b815260040161031990611026565b600061072d8361042f565b9050806001600160a01b0316846001600160a01b031614806107685750836001600160a01b031661075d846102f2565b6001600160a01b0316145b8061077857506107788185610646565b949350505050565b826001600160a01b03166107938261042f565b6001600160a01b0316146107b95760405162461bcd60e51b8152600401610319906111ae565b6001600160a01b0382166107df5760405162461bcd60e51b815260040161031990610f65565b6107ea8383836103d1565b6107f560008261068d565b6001600160a01b038316600090815260036020526040812080549161081983611387565b9091555050600081815260046020908152604080832080546001600160a01b0319166001600160a01b038716908117909155835260039091528120805491610860836113d9565b919050555080826001600160a01b0316846001600160a01b03167fddf252ad1be2c89b69c2b068fc378daa952ba7f163c4a11628f55a4df523b3ef60405160405180910390a4505050565b6108b6848484610780565b6108c2848484846109f9565b6105db5760405162461bcd60e51b815260040161031990610f13565b60608161090357506040805180820190915260018152600360fc1b602082015261025b565b8160005b811561092d5780610917816113d9565b91506109269050600a83611330565b9150610907565b60008167ffffffffffffffff81111561095657634e487b7160e01b600052604160045260246000fd5b6040519080825280601f01601f191660200182016040528015610980576020820181803683370190505b5090505b841561077857610995600183611344565b91506109a2600a866113f4565b6109ad906030611318565b60f81b8183815181106109d057634e487b7160e01b600052603260045260246000fd5b60200101906001600160f81b031916908160001a9053506109f2600a86611330565b9450610984565b6000610a0d846001600160a01b0316610ad8565b610a1957506001610778565b6000610aa1630a85bd0160e11b610a2e610689565b888787604051602401610a449493929190610eb8565b604051602081830303815290604052906001600160e01b0319166020820180516001600160e01b038381831617835250505050604051806060016040528060328152602001611464603291396001600160a01b0388169190610ade565b9050600081806020019051810190610ab99190610dd9565b6001600160e01b031916630a85bd0160e11b1492505050949350505050565b3b151590565b6060610aed8484600085610af7565b90505b9392505050565b606082471015610b195760405162461bcd60e51b815260040161031990610fe0565b610b2285610ad8565b610b3e5760405162461bcd60e51b8152600401610319906112d8565b600080866001600160a01b03168587604051610b5a9190610e39565b60006040518083038185875af1925050503d8060008114610b97576040519150601f19603f3d011682016040523d82523d6000602084013e610b9c565b606091505b5091509150610bac828286610bb7565b979650505050505050565b60608315610bc6575081610af0565b825115610bd65782518084602001fd5b8160405162461bcd60e51b81526004016103199190610f00565b80356001600160a01b038116811461025b57600080fd5b600060208284031215610c18578081fd5b610af082610bf0565b60008060408385031215610c33578081fd5b610c3c83610bf0565b9150610c4a60208401610bf0565b90509250929050565b600080600060608486031215610c67578081fd5b610c7084610bf0565b9250610c7e60208501610bf0565b9150604084013590509250925092565b60008060008060808587031215610ca3578081fd5b610cac85610bf0565b93506020610cbb818701610bf0565b935060408601359250606086013567ffffffffffffffff80821115610cde578384fd5b818801915088601f830112610cf1578384fd5b813581811115610d0357610d03611434565b604051601f8201601f1916810185018381118282101715610d2657610d26611434565b60405281815283820185018b1015610d3c578586fd5b81858501868301379081019093019390935250939692955090935050565b60008060408385031215610d6c578182fd5b610d7583610bf0565b915060208301358015158114610d89578182fd5b809150509250929050565b60008060408385031215610da6578182fd5b610daf83610bf0565b946020939093013593505050565b600060208284031215610dce578081fd5b8135610af08161144a565b600060208284031215610dea578081fd5b8151610af08161144a565b600060208284031215610e06578081fd5b5035919050565b60008151808452610e2581602086016020860161135b565b601f01601f19169290920160200192915050565b60008251610e4b81846020870161135b565b9190910192915050565b600066697066733a2f2f60c81b82528351610e7781600785016020880161135b565b602f60f81b6007918401918201528351610e9881600884016020880161135b565b01600801949350505050565b6001600160a01b0391909116815260200190565b6001600160a01b0385811682528416602082015260408101839052608060608201819052600090610eeb90830184610e0d565b9695505050505050565b901515815260200190565b600060208252610af06020830184610e0d565b60208082526032908201527f4552433732313a207472616e7366657220746f206e6f6e20455243373231526560408201527131b2b4bb32b91034b6b83632b6b2b73a32b960711b606082015260800190565b60208082526024908201527f4552433732313a207472616e7366657220746f20746865207a65726f206164646040820152637265737360e01b606082015260800190565b60208082526019908201527f4552433732313a20617070726f766520746f2063616c6c657200000000000000604082015260600190565b60208082526026908201527f416464726573733a20696e73756666696369656e742062616c616e636520666f6040820152651c8818d85b1b60d21b606082015260800190565b6020808252602c908201527f4552433732313a206f70657261746f7220717565727920666f72206e6f6e657860408201526b34b9ba32b73a103a37b5b2b760a11b606082015260800190565b60208082526038908201527f4552433732313a20617070726f76652063616c6c6572206973206e6f74206f7760408201527f6e6572206e6f7220617070726f76656420666f7220616c6c0000000000000000606082015260800190565b6020808252602a908201527f4552433732313a2062616c616e636520717565727920666f7220746865207a65604082015269726f206164647265737360b01b606082015260800190565b60208082526029908201527f4552433732313a206f776e657220717565727920666f72206e6f6e657869737460408201526832b73a103a37b5b2b760b91b606082015260800190565b6020808252602c908201527f4552433732313a20617070726f76656420717565727920666f72206e6f6e657860408201526b34b9ba32b73a103a37b5b2b760a11b606082015260800190565b60208082526029908201527f4552433732313a207472616e73666572206f6620746f6b656e2074686174206960408201526839903737ba1037bbb760b91b606082015260800190565b6020808252602f908201527f4552433732314d657461646174613a2055524920717565727920666f72206e6f60408201526e3732bc34b9ba32b73a103a37b5b2b760891b606082015260800190565b60208082526021908201527f4552433732313a20617070726f76616c20746f2063757272656e74206f776e656040820152603960f91b606082015260800190565b60208082526031908201527f4552433732313a207472616e736665722063616c6c6572206973206e6f74206f6040820152701ddb995c881b9bdc88185c1c1c9bdd9959607a1b606082015260800190565b6020808252601d908201527f416464726573733a2063616c6c20746f206e6f6e2d636f6e7472616374000000604082015260600190565b90815260200190565b6000821982111561132b5761132b611408565b500190565b60008261133f5761133f61141e565b500490565b60008282101561135657611356611408565b500390565b60005b8381101561137657818101518382015260200161135e565b838111156105db5750506000910152565b60008161139657611396611408565b506000190190565b6002810460018216806113b257607f821691505b602082108114156113d357634e487b7160e01b600052602260045260246000fd5b50919050565b60006000198214156113ed576113ed611408565b5060010190565b6000826114035761140361141e565b500690565b634e487b7160e01b600052601160045260246000fd5b634e487b7160e01b600052601260045260246000fd5b634e487b7160e01b600052604160045260246000fd5b6001600160e01b03198116811461146057600080fd5b5056fe4552433732313a207472616e7366657220746f206e6f6e20455243373231526563656976657220696d706c656d656e746572a2646970667358221220b9c708055b71c95ab5cce6f03ebdc8318d8ed00371517add4da32095ae310dd164736f6c63430008000033516d5258436b6355414c706b5a37796d70456671796968636d486b706a71547673755743507175347a4c59793248",
  "linkReferences": {},
  "deployedLinkReferences": {}
}