{
  "_format": "hh-sol-artifact-1",
  "contractName": "NFLottie",
  "sourceName": "contracts/nflottie.sol",
  "abi": [
    {
      "inputs": [
        {
          "internalType": "string",
          "name": "name",
          "type": "string"
        },
        {
          "internalType": "string",
          "name": "symbol",
          "type": "string"
        },
        {
          "internalType": "uint256",
          "name": "maxNftSupply",
          "type": "uint256"
        }
      ],
      "stateMutability": "nonpayable",
      "type": "constructor"
    },
    {
      "anonymous": false,
      "inputs": [
        {
          "indexed": true,
          "internalType": "address",
          "name": "owner",
          "type": "address"
        },
        {
          "indexed": true,
          "internalType": "address",
          "name": "approved",
          "type": "address"
        },
        {
          "indexed": true,
          "internalType": "uint256",
          "name": "tokenId",
          "type": "uint256"
        }
      ],
      "name": "Approval",
      "type": "event"
    },
    {
      "anonymous": false,
      "inputs": [
        {
          "indexed": true,
          "internalType": "address",
          "name": "owner",
          "type": "address"
        },
        {
          "indexed": true,
          "internalType": "address",
          "name": "operator",
          "type": "address"
        },
        {
          "indexed": false,
          "internalType": "bool",
          "name": "approved",
          "type": "bool"
        }
      ],
      "name": "ApprovalForAll",
      "type": "event"
    },
    {
      "anonymous": false,
      "inputs": [
        {
          "indexed": true,
          "internalType": "address",
          "name": "previousOwner",
          "type": "address"
        },
        {
          "indexed": true,
          "internalType": "address",
          "name": "newOwner",
          "type": "address"
        }
      ],
      "name": "OwnershipTransferred",
      "type": "event"
    },
    {
      "anonymous": false,
      "inputs": [
        {
          "indexed": true,
          "internalType": "address",
          "name": "from",
          "type": "address"
        },
        {
          "indexed": true,
          "internalType": "address",
          "name": "to",
          "type": "address"
        },
        {
          "indexed": true,
          "internalType": "uint256",
          "name": "tokenId",
          "type": "uint256"
        }
      ],
      "name": "Transfer",
      "type": "event"
    },
    {
      "inputs": [],
      "name": "MAX_NFL",
      "outputs": [
        {
          "internalType": "uint256",
          "name": "",
          "type": "uint256"
        }
      ],
      "stateMutability": "view",
      "type": "function"
    },
    {
      "inputs": [],
      "name": "NFLPrice",
      "outputs": [
        {
          "internalType": "uint256",
          "name": "",
          "type": "uint256"
        }
      ],
      "stateMutability": "view",
      "type": "function"
    },
    {
      "inputs": [
        {
          "internalType": "address",
          "name": "to",
          "type": "address"
        },
        {
          "internalType": "uint256",
          "name": "tokenId",
          "type": "uint256"
        }
      ],
      "name": "approve",
      "outputs": [],
      "stateMutability": "nonpayable",
      "type": "function"
    },
    {
      "inputs": [
        {
          "internalType": "address",
          "name": "owner",
          "type": "address"
        }
      ],
      "name": "balanceOf",
      "outputs": [
        {
          "internalType": "uint256",
          "name": "",
          "type": "uint256"
        }
      ],
      "stateMutability": "view",
      "type": "function"
    },
    {
      "inputs": [],
      "name": "baseURI",
      "outputs": [
        {
          "internalType": "string",
          "name": "",
          "type": "string"
        }
      ],
      "stateMutability": "view",
      "type": "function"
    },
    {
      "inputs": [],
      "name": "flipState",
      "outputs": [],
      "stateMutability": "nonpayable",
      "type": "function"
    },
    {
      "inputs": [
        {
          "internalType": "uint256",
          "name": "tokenId",
          "type": "uint256"
        }
      ],
      "name": "getApproved",
      "outputs": [
        {
          "internalType": "address",
          "name": "",
          "type": "address"
        }
      ],
      "stateMutability": "view",
      "type": "function"
    },
    {
      "inputs": [
        {
          "internalType": "address",
          "name": "owner",
          "type": "address"
        },
        {
          "internalType": "address",
          "name": "operator",
          "type": "address"
        }
      ],
      "name": "isApprovedForAll",
      "outputs": [
        {
          "internalType": "bool",
          "name": "",
          "type": "bool"
        }
      ],
      "stateMutability": "view",
      "type": "function"
    },
    {
      "inputs": [],
      "name": "maxNFLPurchase",
      "outputs": [
        {
          "internalType": "uint256",
          "name": "",
          "type": "uint256"
        }
      ],
      "stateMutability": "view",
      "type": "function"
    },
    {
      "inputs": [
        {
          "internalType": "uint8",
          "name": "numberOfTokens",
          "type": "uint8"
        }
      ],
      "name": "mintNFL",
      "outputs": [],
      "stateMutability": "payable",
      "type": "function"
    },
    {
      "inputs": [],
      "name": "name",
      "outputs": [
        {
          "internalType": "string",
          "name": "",
          "type": "string"
        }
      ],
      "stateMutability": "view",
      "type": "function"
    },
    {
      "inputs": [],
      "name": "owner",
      "outputs": [
        {
          "internalType": "address",
          "name": "",
          "type": "address"
        }
      ],
      "stateMutability": "view",
      "type": "function"
    },
    {
      "inputs": [
        {
          "internalType": "uint256",
          "name": "tokenId",
          "type": "uint256"
        }
      ],
      "name": "ownerOf",
      "outputs": [
        {
          "internalType": "address",
          "name": "",
          "type": "address"
        }
      ],
      "stateMutability": "view",
      "type": "function"
    },
    {
      "inputs": [],
      "name": "reserveNFL",
      "outputs": [],
      "stateMutability": "nonpayable",
      "type": "function"
    },
    {
      "inputs": [
        {
          "internalType": "address",
          "name": "from",
          "type": "address"
        },
        {
          "internalType": "address",
          "name": "to",
          "type": "address"
        },
        {
          "internalType": "uint256",
          "name": "tokenId",
          "type": "uint256"
        }
      ],
      "name": "safeTransferFrom",
      "outputs": [],
      "stateMutability": "nonpayable",
      "type": "function"
    },
    {
      "inputs": [
        {
          "internalType": "address",
          "name": "from",
          "type": "address"
        },
        {
          "internalType": "address",
          "name": "to",
          "type": "address"
        },
        {
          "internalType": "uint256",
          "name": "tokenId",
          "type": "uint256"
        },
        {
          "internalType": "bytes",
          "name": "_data",
          "type": "bytes"
        }
      ],
      "name": "safeTransferFrom",
      "outputs": [],
      "stateMutability": "nonpayable",
      "type": "function"
    },
    {
      "inputs": [],
      "name": "saleIsActive",
      "outputs": [
        {
          "internalType": "bool",
          "name": "",
          "type": "bool"
        }
      ],
      "stateMutability": "view",
      "type": "function"
    },
    {
      "inputs": [
        {
          "internalType": "address",
          "name": "operator",
          "type": "address"
        },
        {
          "internalType": "bool",
          "name": "approved",
          "type": "bool"
        }
      ],
      "name": "setApprovalForAll",
      "outputs": [],
      "stateMutability": "nonpayable",
      "type": "function"
    },
    {
      "inputs": [
        {
          "internalType": "string",
          "name": "baseURI",
          "type": "string"
        }
      ],
      "name": "setBaseURI",
      "outputs": [],
      "stateMutability": "nonpayable",
      "type": "function"
    },
    {
      "inputs": [
        {
          "internalType": "bytes4",
          "name": "interfaceId",
          "type": "bytes4"
        }
      ],
      "name": "supportsInterface",
      "outputs": [
        {
          "internalType": "bool",
          "name": "",
          "type": "bool"
        }
      ],
      "stateMutability": "view",
      "type": "function"
    },
    {
      "inputs": [],
      "name": "symbol",
      "outputs": [
        {
          "internalType": "string",
          "name": "",
          "type": "string"
        }
      ],
      "stateMutability": "view",
      "type": "function"
    },
    {
      "inputs": [
        {
          "internalType": "uint256",
          "name": "tokenId",
          "type": "uint256"
        }
      ],
      "name": "tokenURI",
      "outputs": [
        {
          "internalType": "string",
          "name": "",
          "type": "string"
        }
      ],
      "stateMutability": "view",
      "type": "function"
    },
    {
      "inputs": [],
      "name": "tokensMinted",
      "outputs": [
        {
          "internalType": "uint256",
          "name": "",
          "type": "uint256"
        }
      ],
      "stateMutability": "view",
      "type": "function"
    },
    {
      "inputs": [],
      "name": "totalSupply",
      "outputs": [
        {
          "internalType": "uint256",
          "name": "",
          "type": "uint256"
        }
      ],
      "stateMutability": "view",
      "type": "function"
    },
    {
      "inputs": [
        {
          "internalType": "address",
          "name": "from",
          "type": "address"
        },
        {
          "internalType": "address",
          "name": "to",
          "type": "address"
        },
        {
          "internalType": "uint256",
          "name": "tokenId",
          "type": "uint256"
        }
      ],
      "name": "transferFrom",
      "outputs": [],
      "stateMutability": "nonpayable",
      "type": "function"
    },
    {
      "inputs": [
        {
          "internalType": "uint256",
          "name": "newPrice",
          "type": "uint256"
        }
      ],
      "name": "updateMintPrice",
      "outputs": [],
      "stateMutability": "nonpayable",
      "type": "function"
    },
    {
      "inputs": [
        {
          "internalType": "uint256",
          "name": "amount",
          "type": "uint256"
        }
      ],
      "name": "withdraw",
      "outputs": [],
      "stateMutability": "nonpayable",
      "type": "function"
    }
  ],
  "bytecode": "0x600060075560e0604052602e608081815290620021e860a03980516200002e91600a91602090910190620001b0565b5066b1a2bc2ec50000600b55600c805460ff191690553480156200005157600080fd5b506040516200221638038062002216833981016040819052620000749162000301565b82826000620000826200014e565b600080546001600160a01b0319166001600160a01b0383169081178255604051929350917f8be0079c531659141344cd1fd0a4f28419497f9722a3daafe3b4186f6b6457e0908290a350620000de6301ffc9a760e01b62000152565b8151620000f3906008906020850190620001b0565b50805162000109906009906020840190620001b0565b506200011c6380ac58cd60e01b62000152565b6200012e635b5e139f60e01b62000152565b6200014063780e9d6360e01b62000152565b5050600d5550620003fb9050565b3390565b6001600160e01b03198082161415620001885760405162461bcd60e51b81526004016200017f9062000371565b60405180910390fd5b6001600160e01b0319166000908152600160208190526040909120805460ff19169091179055565b828054620001be90620003a8565b90600052602060002090601f016020900481019282620001e257600085556200022d565b82601f10620001fd57805160ff19168380011785556200022d565b828001600101855582156200022d579182015b828111156200022d57825182559160200191906001019062000210565b506200023b9291506200023f565b5090565b5b808211156200023b576000815560010162000240565b600082601f83011262000267578081fd5b81516001600160401b0380821115620002845762000284620003e5565b6040516020601f8401601f1916820181018381118382101715620002ac57620002ac620003e5565b6040528382528584018101871015620002c3578485fd5b8492505b83831015620002e65785830181015182840182015291820191620002c7565b83831115620002f757848185840101525b5095945050505050565b60008060006060848603121562000316578283fd5b83516001600160401b03808211156200032d578485fd5b6200033b8783880162000256565b9450602086015191508082111562000351578384fd5b50620003608682870162000256565b925050604084015190509250925092565b6020808252601c908201527f4552433136353a20696e76616c696420696e7465726661636520696400000000604082015260600190565b600281046001821680620003bd57607f821691505b60208210811415620003df57634e487b7160e01b600052602260045260246000fd5b50919050565b634e487b7160e01b600052604160045260246000fd5b611ddd806200040b6000396000f3fe60806040526004361061019b5760003560e01c806370a08231116100ec578063a08bfd731161008a578063b88d4fde11610064578063b88d4fde14610439578063c87b56dd14610459578063e985e9c514610479578063eb8d2444146104995761019b565b8063a08bfd73146103ef578063a22cb46514610404578063ab892593146104245761019b565b80638da5cb5b116100c65780638da5cb5b1461039b5780638e920351146103b0578063945dece6146103c557806395d89b41146103da5761019b565b806370a082311461035357806387c769f61461037357806389ff0804146103865761019b565b806323b872dd1161015957806355f804b31161013357806355f804b3146102e95780636352211e146103095780636c0360eb146103295780636de9f32b1461033e5761019b565b806323b872dd146102895780632e1a7d4d146102a957806342842e0e146102c95761019b565b8062728e46146101a057806301ffc9a7146101c257806306fdde03146101f8578063081812fc1461021a578063095ea7b31461024757806318160ddd14610267575b600080fd5b3480156101ac57600080fd5b506101c06101bb3660046115b5565b6104ae565b005b3480156101ce57600080fd5b506101e26101dd366004611537565b6104fb565b6040516101ef91906116d6565b60405180910390f35b34801561020457600080fd5b5061020d61051e565b6040516101ef91906116e1565b34801561022657600080fd5b5061023a6102353660046115b5565b6105b0565b6040516101ef9190611685565b34801561025357600080fd5b506101c061026236600461150e565b6105f3565b34801561027357600080fd5b5061027c61068b565b6040516101ef9190611c05565b34801561029557600080fd5b506101c06102a4366004611420565b610691565b3480156102b557600080fd5b506101c06102c43660046115b5565b6106c9565b3480156102d557600080fd5b506101c06102e4366004611420565b610739565b3480156102f557600080fd5b506101c061030436600461156f565b610754565b34801561031557600080fd5b5061023a6103243660046115b5565b61079f565b34801561033557600080fd5b5061020d6107dc565b34801561034a57600080fd5b5061027c6107eb565b34801561035f57600080fd5b5061027c61036e3660046113d4565b6107f1565b6101c06103813660046115cd565b610835565b34801561039257600080fd5b5061027c610921565b3480156103a757600080fd5b5061023a610927565b3480156103bc57600080fd5b506101c0610936565b3480156103d157600080fd5b5061027c610989565b3480156103e657600080fd5b5061020d61098e565b3480156103fb57600080fd5b506101c061099d565b34801561041057600080fd5b506101c061041f3660046114d4565b610a14565b34801561043057600080fd5b5061027c610ae2565b34801561044557600080fd5b506101c061045436600461145b565b610ae8565b34801561046557600080fd5b5061020d6104743660046115b5565b610b27565b34801561048557600080fd5b506101e26104943660046113ee565b610b8c565b3480156104a557600080fd5b506101e2610bba565b6104b6610bc3565b6001600160a01b03166104c7610927565b6001600160a01b0316146104f65760405162461bcd60e51b81526004016104ed90611a35565b60405180910390fd5b600b55565b6001600160e01b0319811660009081526001602052604090205460ff165b919050565b60606008805461052d90611cb3565b80601f016020809104026020016040519081016040528092919081815260200182805461055990611cb3565b80156105a65780601f1061057b576101008083540402835291602001916105a6565b820191906000526020600020905b81548152906001019060200180831161058957829003601f168201915b5050505050905090565b60006105bb82610bc7565b6105d75760405162461bcd60e51b81526004016104ed906119e9565b506000908152600260205260409020546001600160a01b031690565b60006105fe8261079f565b9050806001600160a01b0316836001600160a01b031614156106325760405162461bcd60e51b81526004016104ed90611b1f565b806001600160a01b0316610644610bc3565b6001600160a01b03161480610660575061066081610494610bc3565b61067c5760405162461bcd60e51b81526004016104ed906118a7565b6106868383610bdc565b505050565b60075490565b6106a261069c610bc3565b82610c4a565b6106be5760405162461bcd60e51b81526004016104ed90611b60565b610686838383610ccf565b6106d1610bc3565b6001600160a01b03166106e2610927565b6001600160a01b0316146107085760405162461bcd60e51b81526004016104ed90611a35565b604051339082156108fc029083906000818181858888f19350505050158015610735573d6000803e3d6000fd5b5050565b61068683838360405180602001604052806000815250610ae8565b61075c610bc3565b6001600160a01b031661076d610927565b6001600160a01b0316146107935760405162461bcd60e51b81526004016104ed90611a35565b61079c81610dfa565b50565b60008082116107c05760405162461bcd60e51b81526004016104ed9061194e565b506000908152600560205260409020546001600160a01b031690565b6060600a805461052d90611cb3565b60075481565b60006001600160a01b0382166108195760405162461bcd60e51b81526004016104ed90611904565b506001600160a01b031660009081526004602052604090205490565b600061083f61068b565b9050600a8260ff1611156108655760405162461bcd60e51b81526004016104ed906119cc565b600d5461087560ff841683611c0e565b11156108935760405162461bcd60e51b81526004016104ed90611be8565b600c5460ff166108b55760405162461bcd60e51b81526004016104ed9061188a565b348260ff16600b546108c79190611c3a565b11156108e55760405162461bcd60e51b81526004016104ed90611b02565b60015b8260ff16811161068657600d5482101561090f5761090f3361090a8385611c0e565b610e0d565b8061091981611cee565b9150506108e8565b600d5481565b6000546001600160a01b031690565b61093e610bc3565b6001600160a01b031661094f610927565b6001600160a01b0316146109755760405162461bcd60e51b81526004016104ed90611a35565b600c805460ff19811660ff90911615179055565b600a81565b60606009805461052d90611cb3565b6109a5610bc3565b6001600160a01b03166109b6610927565b6001600160a01b0316146109dc5760405162461bcd60e51b81526004016104ed90611a35565b60006109e661068b565b905060015b600a81101561073557610a023361090a8385611c0e565b80610a0c81611cee565b9150506109eb565b610a1c610bc3565b6001600160a01b0316826001600160a01b03161415610a4d5760405162461bcd60e51b81526004016104ed906117c1565b8060036000610a5a610bc3565b6001600160a01b03908116825260208083019390935260409182016000908120918716808252919093529120805460ff191692151592909217909155610a9e610bc3565b6001600160a01b03167f17307eab39ab6107e8899845ad3d59bd9653f200f220920489ca2b5937696c3183604051610ad691906116d6565b60405180910390a35050565b600b5481565b610af9610af3610bc3565b83610c4a565b610b155760405162461bcd60e51b81526004016104ed90611b60565b610b2184848484610e27565b50505050565b6060610b3282610bc7565b610b4e5760405162461bcd60e51b81526004016104ed90611ab3565b6000610b586107dc565b905080610b6484610e5a565b604051602001610b75929190611636565b604051602081830303815290604052915050919050565b6001600160a01b03918216600090815260036020908152604080832093909416825291909152205460ff1690565b600c5460ff1681565b3390565b60009081526006602052604090205460ff1690565b600081815260026020526040902080546001600160a01b0319166001600160a01b0384169081179091558190610c118261079f565b6001600160a01b03167f8c5be1e5ebec7d5bd14f71427d1e84f3dd0314c0f7b2291e5b200ac8c7c3b92560405160405180910390a45050565b6000610c5582610bc7565b610c715760405162461bcd60e51b81526004016104ed9061183e565b6000610c7c8361079f565b9050806001600160a01b0316846001600160a01b03161480610cb75750836001600160a01b0316610cac846105b0565b6001600160a01b0316145b80610cc75750610cc78185610b8c565b949350505050565b826001600160a01b0316610ce28261079f565b6001600160a01b031614610d085760405162461bcd60e51b81526004016104ed90611a6a565b6001600160a01b038216610d2e5760405162461bcd60e51b81526004016104ed9061177d565b610d39838383610686565b610d44600082610bdc565b6001600160a01b0383166000908152600460205260408120805491610d6883611c9c565b9091555050600081815260056020908152604080832080546001600160a01b0319166001600160a01b038716908117909155835260049091528120805491610daf83611cee565b919050555080826001600160a01b0316846001600160a01b03167fddf252ad1be2c89b69c2b068fc378daa952ba7f163c4a11628f55a4df523b3ef60405160405180910390a4505050565b805161073590600a9060208401906112b4565b610735828260405180602001604052806000815250610f75565b610e32848484610ccf565b610e3e84848484610fa8565b610b215760405162461bcd60e51b81526004016104ed906116f4565b606081610e7f57506040805180820190915260018152600360fc1b6020820152610519565b8160005b8115610ea95780610e9381611cee565b9150610ea29050600a83611c26565b9150610e83565b60008167ffffffffffffffff811115610ed257634e487b7160e01b600052604160045260246000fd5b6040519080825280601f01601f191660200182016040528015610efc576020820181803683370190505b5090505b8415610cc757610f11600183611c59565b9150610f1e600a86611d09565b610f29906030611c0e565b60f81b818381518110610f4c57634e487b7160e01b600052603260045260246000fd5b60200101906001600160f81b031916908160001a905350610f6e600a86611c26565b9450610f00565b610f7f8383611087565b610f8c6000848484610fa8565b6106865760405162461bcd60e51b81526004016104ed906116f4565b6000610fbc846001600160a01b031661119c565b610fc857506001610cc7565b6000611050630a85bd0160e11b610fdd610bc3565b888787604051602401610ff39493929190611699565b604051602081830303815290604052906001600160e01b0319166020820180516001600160e01b038381831617835250505050604051806060016040528060328152602001611d76603291396001600160a01b03881691906111a2565b90506000818060200190518101906110689190611553565b6001600160e01b031916630a85bd0160e11b1492505050949350505050565b6001600160a01b0382166110ad5760405162461bcd60e51b81526004016104ed90611997565b6110b681610bc7565b156110d35760405162461bcd60e51b81526004016104ed90611746565b6110df60008383610686565b600081815260056020908152604080832080546001600160a01b0319166001600160a01b03871690811790915560068352818420805460ff1916600190811790915590845260049092529091205461113691611c0e565b6001600160a01b03831660009081526004602052604090205560075461115d906001611c0e565b60075560405181906001600160a01b038416906000907fddf252ad1be2c89b69c2b068fc378daa952ba7f163c4a11628f55a4df523b3ef908290a45050565b3b151590565b60606111b184846000856111bb565b90505b9392505050565b6060824710156111dd5760405162461bcd60e51b81526004016104ed906117f8565b6111e68561119c565b6112025760405162461bcd60e51b81526004016104ed90611bb1565b600080866001600160a01b0316858760405161121e919061161a565b60006040518083038185875af1925050503d806000811461125b576040519150601f19603f3d011682016040523d82523d6000602084013e611260565b606091505b509150915061127082828661127b565b979650505050505050565b6060831561128a5750816111b4565b82511561129a5782518084602001fd5b8160405162461bcd60e51b81526004016104ed91906116e1565b8280546112c090611cb3565b90600052602060002090601f0160209004810192826112e25760008555611328565b82601f106112fb57805160ff1916838001178555611328565b82800160010185558215611328579182015b8281111561132857825182559160200191906001019061130d565b50611334929150611338565b5090565b5b808211156113345760008155600101611339565b600067ffffffffffffffff8084111561136857611368611d49565b604051601f8501601f19168101602001828111828210171561138c5761138c611d49565b6040528481529150818385018610156113a457600080fd5b8484602083013760006020868301015250509392505050565b80356001600160a01b038116811461051957600080fd5b6000602082840312156113e5578081fd5b6111b4826113bd565b60008060408385031215611400578081fd5b611409836113bd565b9150611417602084016113bd565b90509250929050565b600080600060608486031215611434578081fd5b61143d846113bd565b925061144b602085016113bd565b9150604084013590509250925092565b60008060008060808587031215611470578081fd5b611479856113bd565b9350611487602086016113bd565b925060408501359150606085013567ffffffffffffffff8111156114a9578182fd5b8501601f810187136114b9578182fd5b6114c88782356020840161134d565b91505092959194509250565b600080604083850312156114e6578182fd5b6114ef836113bd565b915060208301358015158114611503578182fd5b809150509250929050565b60008060408385031215611520578182fd5b611529836113bd565b946020939093013593505050565b600060208284031215611548578081fd5b81356111b481611d5f565b600060208284031215611564578081fd5b81516111b481611d5f565b600060208284031215611580578081fd5b813567ffffffffffffffff811115611596578182fd5b8201601f810184136115a6578182fd5b610cc78482356020840161134d565b6000602082840312156115c6578081fd5b5035919050565b6000602082840312156115de578081fd5b813560ff811681146111b4578182fd5b60008151808452611606816020860160208601611c70565b601f01601f19169290920160200192915050565b6000825161162c818460208701611c70565b9190910192915050565b600066697066733a2f2f60c81b82528351611658816007850160208801611c70565b602f60f81b6007918401918201528351611679816008840160208801611c70565b01600801949350505050565b6001600160a01b0391909116815260200190565b6001600160a01b03858116825284166020820152604081018390526080606082018190526000906116cc908301846115ee565b9695505050505050565b901515815260200190565b6000602082526111b460208301846115ee565b60208082526032908201527f4552433732313a207472616e7366657220746f206e6f6e20455243373231526560408201527131b2b4bb32b91034b6b83632b6b2b73a32b960711b606082015260800190565b6020808252601c908201527f4552433732313a20746f6b656e20616c7265616479206d696e74656400000000604082015260600190565b60208082526024908201527f4552433732313a207472616e7366657220746f20746865207a65726f206164646040820152637265737360e01b606082015260800190565b60208082526019908201527f4552433732313a20617070726f766520746f2063616c6c657200000000000000604082015260600190565b60208082526026908201527f416464726573733a20696e73756666696369656e742062616c616e636520666f6040820152651c8818d85b1b60d21b606082015260800190565b6020808252602c908201527f4552433732313a206f70657261746f7220717565727920666f72206e6f6e657860408201526b34b9ba32b73a103a37b5b2b760a11b606082015260800190565b60208082526003908201526204531360ec1b604082015260600190565b60208082526038908201527f4552433732313a20617070726f76652063616c6c6572206973206e6f74206f7760408201527f6e6572206e6f7220617070726f76656420666f7220616c6c0000000000000000606082015260800190565b6020808252602a908201527f4552433732313a2062616c616e636520717565727920666f7220746865207a65604082015269726f206164647265737360b01b606082015260800190565b60208082526029908201527f4552433732313a206f776e657220717565727920666f72206e6f6e657869737460408201526832b73a103a37b5b2b760b91b606082015260800190565b6020808252818101527f4552433732313a206d696e7420746f20746865207a65726f2061646472657373604082015260600190565b60208082526003908201526245313160e81b604082015260600190565b6020808252602c908201527f4552433732313a20617070726f76656420717565727920666f72206e6f6e657860408201526b34b9ba32b73a103a37b5b2b760a11b606082015260800190565b6020808252818101527f4f776e61626c653a2063616c6c6572206973206e6f7420746865206f776e6572604082015260600190565b60208082526029908201527f4552433732313a207472616e73666572206f6620746f6b656e2074686174206960408201526839903737ba1037bbb760b91b606082015260800190565b6020808252602f908201527f4552433732314d657461646174613a2055524920717565727920666f72206e6f60408201526e3732bc34b9ba32b73a103a37b5b2b760891b606082015260800190565b60208082526003908201526245313560e81b604082015260600190565b60208082526021908201527f4552433732313a20617070726f76616c20746f2063757272656e74206f776e656040820152603960f91b606082015260800190565b60208082526031908201527f4552433732313a207472616e736665722063616c6c6572206973206e6f74206f6040820152701ddb995c881b9bdc88185c1c1c9bdd9959607a1b606082015260800190565b6020808252601d908201527f416464726573733a2063616c6c20746f206e6f6e2d636f6e7472616374000000604082015260600190565b60208082526003908201526222989960e91b604082015260600190565b90815260200190565b60008219821115611c2157611c21611d1d565b500190565b600082611c3557611c35611d33565b500490565b6000816000190483118215151615611c5457611c54611d1d565b500290565b600082821015611c6b57611c6b611d1d565b500390565b60005b83811015611c8b578181015183820152602001611c73565b83811115610b215750506000910152565b600081611cab57611cab611d1d565b506000190190565b600281046001821680611cc757607f821691505b60208210811415611ce857634e487b7160e01b600052602260045260246000fd5b50919050565b6000600019821415611d0257611d02611d1d565b5060010190565b600082611d1857611d18611d33565b500690565b634e487b7160e01b600052601160045260246000fd5b634e487b7160e01b600052601260045260246000fd5b634e487b7160e01b600052604160045260246000fd5b6001600160e01b03198116811461079c57600080fdfe4552433732313a207472616e7366657220746f206e6f6e20455243373231526563656976657220696d706c656d656e746572a264697066735822122032157d7b641cab0277145f33628423c8439d289273f9652fd3efd8c2c71d498b64736f6c63430008000033516d5258436b6355414c706b5a37796d70456671796968636d486b706a71547673755743507175347a4c59793248",
  "linkReferences": {},
  "deployedLinkReferences": {}
}