{"contracts/swimskin.sol":{"ERC721":{"abi":[{"inputs":[{"internalType":"string","name":"name_","type":"string"},{"internalType":"string","name":"symbol_","type":"string"}],"stateMutability":"nonpayable","type":"constructor"},{"anonymous":false,"inputs":[{"indexed":true,"internalType":"address","name":"owner","type":"address"},{"indexed":true,"internalType":"address","name":"approved","type":"address"},{"indexed":true,"internalType":"uint256","name":"tokenId","type":"uint256"}],"name":"Approval","type":"event"},{"anonymous":false,"inputs":[{"indexed":true,"internalType":"address","name":"owner","type":"address"},{"indexed":true,"internalType":"address","name":"operator","type":"address"},{"indexed":false,"internalType":"bool","name":"approved","type":"bool"}],"name":"ApprovalForAll","type":"event"},{"anonymous":false,"inputs":[{"indexed":true,"internalType":"address","name":"from","type":"address"},{"indexed":true,"internalType":"address","name":"to","type":"address"},{"indexed":true,"internalType":"uint256","name":"tokenId","type":"uint256"}],"name":"Transfer","type":"event"},{"inputs":[],"name":"MAX_SSK","outputs":[{"internalType":"uint256","name":"","type":"uint256"}],"stateMutability":"view","type":"function"},{"inputs":[{"internalType":"address","name":"to","type":"address"},{"internalType":"uint256","name":"tokenId","type":"uint256"}],"name":"approve","outputs":[],"stateMutability":"nonpayable","type":"function"},{"inputs":[{"internalType":"address","name":"owner","type":"address"}],"name":"balanceOf","outputs":[{"internalType":"uint256","name":"","type":"uint256"}],"stateMutability":"view","type":"function"},{"inputs":[],"name":"baseURI","outputs":[{"internalType":"string","name":"","type":"string"}],"stateMutability":"view","type":"function"},{"inputs":[{"internalType":"uint256","name":"tokenId","type":"uint256"}],"name":"getApproved","outputs":[{"internalType":"address","name":"","type":"address"}],"stateMutability":"view","type":"function"},{"inputs":[{"internalType":"address","name":"owner","type":"address"},{"internalType":"address","name":"operator","type":"address"}],"name":"isApprovedForAll","outputs":[{"internalType":"bool","name":"","type":"bool"}],"stateMutability":"view","type":"function"},{"inputs":[{"internalType":"address","name":"","type":"address"}],"name":"mintedQty","outputs":[{"internalType":"uint8","name":"","type":"uint8"}],"stateMutability":"view","type":"function"},{"inputs":[],"name":"name","outputs":[{"internalType":"string","name":"","type":"string"}],"stateMutability":"view","type":"function"},{"inputs":[{"internalType":"uint256","name":"tokenId","type":"uint256"}],"name":"ownerOf","outputs":[{"internalType":"address","name":"","type":"address"}],"stateMutability":"view","type":"function"},{"inputs":[{"internalType":"address","name":"from","type":"address"},{"internalType":"address","name":"to","type":"address"},{"internalType":"uint256","name":"tokenId","type":"uint256"}],"name":"safeTransferFrom","outputs":[],"stateMutability":"nonpayable","type":"function"},{"inputs":[{"internalType":"address","name":"from","type":"address"},{"internalType":"address","name":"to","type":"address"},{"internalType":"uint256","name":"tokenId","type":"uint256"},{"internalType":"bytes","name":"_data","type":"bytes"}],"name":"safeTransferFrom","outputs":[],"stateMutability":"nonpayable","type":"function"},{"inputs":[{"internalType":"address","name":"operator","type":"address"},{"internalType":"bool","name":"approved","type":"bool"}],"name":"setApprovalForAll","outputs":[],"stateMutability":"nonpayable","type":"function"},{"inputs":[{"internalType":"bytes4","name":"interfaceId","type":"bytes4"}],"name":"supportsInterface","outputs":[{"internalType":"bool","name":"","type":"bool"}],"stateMutability":"view","type":"function"},{"inputs":[],"name":"symbol","outputs":[{"internalType":"string","name":"","type":"string"}],"stateMutability":"view","type":"function"},{"inputs":[{"internalType":"uint256","name":"tokenId","type":"uint256"}],"name":"tokenURI","outputs":[{"internalType":"string","name":"","type":"string"}],"stateMutability":"view","type":"function"},{"inputs":[],"name":"tokensMinted","outputs":[{"internalType":"uint256","name":"","type":"uint256"}],"stateMutability":"view","type":"function"},{"inputs":[],"name":"totalSupply","outputs":[{"internalType":"uint256","name":"","type":"uint256"}],"stateMutability":"view","type":"function"},{"inputs":[{"internalType":"address","name":"from","type":"address"},{"internalType":"address","name":"to","type":"address"},{"internalType":"uint256","name":"tokenId","type":"uint256"}],"name":"transferFrom","outputs":[],"stateMutability":"nonpayable","type":"function"},{"inputs":[{"internalType":"address","name":"","type":"address"}],"name":"winner","outputs":[{"internalType":"uint8","name":"","type":"uint8"}],"stateMutability":"view","type":"function"},{"inputs":[],"name":"winnersCount","outputs":[{"internalType":"uint8","name":"","type":"uint8"}],"stateMutability":"view","type":"function"}],"evm":{"bytecode":{"linkReferences":{},"object":"6009805460ff191690556000600a5560e0604052602e6080818152906200175460a03980516200003891600e9160209091019062000140565b503480156200004657600080fd5b506040516200178238038062001782833981016040819052620000699162000291565b6200007b6301ffc9a760e01b620000e5565b81516200009090600b90602085019062000140565b508051620000a690600c90602084019062000140565b50620000b96380ac58cd60e01b620000e5565b620000cb635b5e139f60e01b620000e5565b620000dd63780e9d6360e01b620000e5565b505062000367565b6001600160e01b031980821614156200011b5760405162461bcd60e51b81526004016200011290620002f8565b60405180910390fd5b6001600160e01b0319166000908152602081905260409020805460ff19166001179055565b8280546200014e9062000314565b90600052602060002090601f016020900481019282620001725760008555620001bd565b82601f106200018d57805160ff1916838001178555620001bd565b82800160010185558215620001bd579182015b82811115620001bd578251825591602001919060010190620001a0565b50620001cb929150620001cf565b5090565b5b80821115620001cb5760008155600101620001d0565b600082601f830112620001f7578081fd5b81516001600160401b038082111562000214576200021462000351565b6040516020601f8401601f19168201810183811183821017156200023c576200023c62000351565b604052838252858401810187101562000253578485fd5b8492505b8383101562000276578583018101518284018201529182019162000257565b838311156200028757848185840101525b5095945050505050565b60008060408385031215620002a4578182fd5b82516001600160401b0380821115620002bb578384fd5b620002c986838701620001e6565b93506020850151915080821115620002df578283fd5b50620002ee85828601620001e6565b9150509250929050565b602080825260029082015261329b60f11b604082015260600190565b6002810460018216806200032957607f821691505b602082108114156200034b57634e487b7160e01b600052602260045260246000fd5b50919050565b634e487b7160e01b600052604160045260246000fd5b6113dd80620003776000396000f3fe608060405234801561001057600080fd5b506004361061012c5760003560e01c8063686e1079116100ad578063a22cb46511610071578063a22cb4651461024d578063b88d4fde14610260578063c87b56dd14610273578063cfb15ef014610286578063e985e9c5146102995761012c565b8063686e10791461021a5780636c0360eb146102225780636de9f32b1461022a57806370a082311461023257806395d89b41146102455761012c565b806323b872dd116100f457806323b872dd146101b95780632ad95786146101cc57806342842e0e146101ec57806349713811146101ff5780636352211e146102075761012c565b806301ffc9a71461013157806306fdde031461015a578063081812fc1461016f578063095ea7b31461018f57806318160ddd146101a4575b600080fd5b61014461013f366004610eff565b6102ac565b6040516101519190611037565b60405180910390f35b6101626102cf565b6040516101519190611042565b61018261017d366004610f37565b610361565b6040516101519190610fe6565b6101a261019d366004610ed6565b6103ad565b005b6101ac610445565b6040516101519190611208565b6101a26101c7366004610d95565b61044b565b6101df6101da366004610d49565b610483565b6040516101519190611211565b6101a26101fa366004610d95565b610498565b6101df6104b3565b610182610215366004610f37565b6104bc565b6101ac6104f9565b6101626104ff565b6101ac61050e565b6101ac610240366004610d49565b610514565b610162610558565b6101a261025b366004610e9c565b610567565b6101a261026e366004610dd0565b610635565b610162610281366004610f37565b610674565b6101df610294366004610d49565b6106d9565b6101446102a7366004610d63565b6106ee565b6001600160e01b0319811660009081526020819052604090205460ff165b919050565b6060600b80546102de906112c2565b80601f016020809104026020016040519081016040528092919081815260200182805461030a906112c2565b80156103575780601f1061032c57610100808354040283529160200191610357565b820191906000526020600020905b81548152906001019060200180831161033a57829003601f168201915b5050505050905090565b600061036c8261071c565b6103915760405162461bcd60e51b8152600401610388906111eb565b60405180910390fd5b506000908152600160205260409020546001600160a01b031690565b60006103b8826104bc565b9050806001600160a01b0316836001600160a01b031614156103ec5760405162461bcd60e51b81526004016103889061113d565b806001600160a01b03166103fe610731565b6001600160a01b0316148061041a575061041a816102a7610731565b6104365760405162461bcd60e51b81526004016103889061115a565b6104408383610735565b505050565b600a5490565b61045c610456610731565b826107a3565b6104785760405162461bcd60e51b8152600401610388906110c9565b610440838383610828565b60076020526000908152604090205460ff1681565b61044083838360405180602001604052806000815250610635565b60095460ff1681565b60008082116104dd5760405162461bcd60e51b815260040161038890611072565b506000908152600460205260409020546001600160a01b031690565b600d5481565b6060600e80546102de906112c2565b600a5481565b60006001600160a01b03821661053c5760405162461bcd60e51b8152600401610388906111b1565b506001600160a01b031660009081526003602052604090205490565b6060600c80546102de906112c2565b61056f610731565b6001600160a01b0316826001600160a01b031614156105a05760405162461bcd60e51b8152600401610388906110e6565b80600260006105ad610731565b6001600160a01b03908116825260208083019390935260409182016000908120918716808252919093529120805460ff1916921515929092179091556105f1610731565b6001600160a01b03167f17307eab39ab6107e8899845ad3d59bd9653f200f220920489ca2b5937696c31836040516106299190611037565b60405180910390a35050565b610646610640610731565b836107a3565b6106625760405162461bcd60e51b815260040161038890611194565b61066e848484846109ed565b50505050565b606061067f8261071c565b61069b5760405162461bcd60e51b815260040161038890611120565b60006106a56104ff565b9050806106b184610a20565b6040516020016106c2929190610f97565b604051602081830303815290604052915050919050565b60086020526000908152604090205460ff1681565b6001600160a01b03918216600090815260026020908152604080832093909416825291909152205460ff1690565b60009081526005602052604090205460ff1690565b3390565b600081815260016020526040902080546001600160a01b0319166001600160a01b038416908117909155819061076a826104bc565b6001600160a01b03167f8c5be1e5ebec7d5bd14f71427d1e84f3dd0314c0f7b2291e5b200ac8c7c3b92560405160405180910390a45050565b60006107ae8261071c565b6107ca5760405162461bcd60e51b81526004016103889061108f565b60006107d5836104bc565b9050806001600160a01b0316846001600160a01b031614806108105750836001600160a01b031661080584610361565b6001600160a01b0316145b80610820575061082081856106ee565b949350505050565b826001600160a01b031661083b826104bc565b6001600160a01b0316146108615760405162461bcd60e51b8152600401610388906110ac565b6001600160a01b0382166108875760405162461bcd60e51b8152600401610388906111ce565b610892838383610440565b61089d600082610735565b6001600160a01b03831660009081526003602052604081208054916108c18361128e565b9091555050600081815260046020908152604080832080546001600160a01b0319166001600160a01b038716908117909155835260039091528120805491610908836112fd565b909155505060008181526006602052604090205460ff16156109a7576001600160a01b0383166000908152600760205260408120805460ff169161094b836112a5565b82546101009290920a60ff8181021990931691831602179091556001600160a01b03841660009081526007602052604081208054909216925061098d83611318565b91906101000a81548160ff021916908360ff160217905550505b80826001600160a01b0316846001600160a01b03167fddf252ad1be2c89b69c2b068fc378daa952ba7f163c4a11628f55a4df523b3ef60405160405180910390a4505050565b6109f8848484610828565b610a0484848484610b3b565b61066e5760405162461bcd60e51b815260040161038890611177565b606081610a4557506040805180820190915260018152600360fc1b60208201526102ca565b8160005b8115610a6f5780610a59816112fd565b9150610a689050600a83611237565b9150610a49565b60008167ffffffffffffffff811115610a9857634e487b7160e01b600052604160045260246000fd5b6040519080825280601f01601f191660200182016040528015610ac2576020820181803683370190505b5090505b841561082057610ad760018361124b565b9150610ae4600a86611338565b610aef90603061121f565b60f81b818381518110610b1257634e487b7160e01b600052603260045260246000fd5b60200101906001600160f81b031916908160001a905350610b34600a86611237565b9450610ac6565b6000610b4f846001600160a01b0316610c1a565b610b5b57506001610820565b6000610be3630a85bd0160e11b610b70610731565b888787604051602401610b869493929190610ffa565b60408051601f19818403018152918152602080830180516001600160e01b03166001600160e01b031990951694909417909352805180820190915260038152620ca64760eb1b928101929092526001600160a01b03881691610c20565b9050600081806020019051810190610bfb9190610f1b565b6001600160e01b031916630a85bd0160e11b1492505050949350505050565b3b151590565b6060610c2f8484600085610c39565b90505b9392505050565b606082471015610c5b5760405162461bcd60e51b815260040161038890611103565b610c6485610c1a565b610c805760405162461bcd60e51b815260040161038890611055565b600080866001600160a01b03168587604051610c9c9190610f7b565b60006040518083038185875af1925050503d8060008114610cd9576040519150601f19603f3d011682016040523d82523d6000602084013e610cde565b606091505b5091509150610cee828286610cf9565b979650505050505050565b60608315610d08575081610c32565b825115610d185782518084602001fd5b8160405162461bcd60e51b81526004016103889190611042565b80356001600160a01b03811681146102ca57600080fd5b600060208284031215610d5a578081fd5b610c3282610d32565b60008060408385031215610d75578081fd5b610d7e83610d32565b9150610d8c60208401610d32565b90509250929050565b600080600060608486031215610da9578081fd5b610db284610d32565b9250610dc060208501610d32565b9150604084013590509250925092565b60008060008060808587031215610de5578081fd5b610dee85610d32565b93506020610dfd818701610d32565b935060408601359250606086013567ffffffffffffffff80821115610e20578384fd5b818801915088601f830112610e33578384fd5b813581811115610e4557610e45611378565b604051601f8201601f1916810185018381118282101715610e6857610e68611378565b60405281815283820185018b1015610e7e578586fd5b81858501868301379081019093019390935250939692955090935050565b60008060408385031215610eae578182fd5b610eb783610d32565b915060208301358015158114610ecb578182fd5b809150509250929050565b60008060408385031215610ee8578182fd5b610ef183610d32565b946020939093013593505050565b600060208284031215610f10578081fd5b8135610c328161138e565b600060208284031215610f2c578081fd5b8151610c328161138e565b600060208284031215610f48578081fd5b5035919050565b60008151808452610f67816020860160208601611262565b601f01601f19169290920160200192915050565b60008251610f8d818460208701611262565b9190910192915050565b600066697066733a2f2f60c81b82528351610fb9816007850160208801611262565b602f60f81b6007918401918201528351610fda816008840160208801611262565b01600801949350505050565b6001600160a01b0391909116815260200190565b6001600160a01b038581168252841660208201526040810183905260806060820181905260009061102d90830184610f4f565b9695505050505050565b901515815260200190565b600060208252610c326020830184610f4f565b60208082526003908201526265313160e81b604082015260600190565b60208082526003908201526265313360e81b604082015260600190565b60208082526003908201526232991960e91b604082015260600190565b60208082526003908201526232991b60e91b604082015260600190565b60208082526003908201526265313960e81b604082015260600190565b6020808252600390820152620ca62760eb1b604082015260600190565b60208082526003908201526206531360ec1b604082015260600190565b602080825260039082015262194c4d60ea1b604082015260600190565b60208082526003908201526265313560e81b604082015260600190565b60208082526003908201526232989b60e91b604082015260600190565b60208082526003908201526265323160e81b604082015260600190565b60208082526003908201526206532360ec1b604082015260600190565b60208082526003908201526232989960e91b604082015260600190565b60208082526003908201526265323760e81b604082015260600190565b60208082526003908201526265313760e81b604082015260600190565b90815260200190565b60ff91909116815260200190565b600082198211156112325761123261134c565b500190565b60008261124657611246611362565b500490565b60008282101561125d5761125d61134c565b500390565b60005b8381101561127d578181015183820152602001611265565b8381111561066e5750506000910152565b60008161129d5761129d61134c565b506000190190565b600060ff8216806112b8576112b861134c565b6000190192915050565b6002810460018216806112d657607f821691505b602082108114156112f757634e487b7160e01b600052602260045260246000fd5b50919050565b60006000198214156113115761131161134c565b5060010190565b600060ff821660ff81141561132f5761132f61134c565b60010192915050565b60008261134757611347611362565b500690565b634e487b7160e01b600052601160045260246000fd5b634e487b7160e01b600052601260045260246000fd5b634e487b7160e01b600052604160045260246000fd5b6001600160e01b0319811681146113a457600080fd5b5056fea2646970667358221220ec3f195d813f462afac9c248ead50b6ddf3c8fbdb04584ced269850b4866df5364736f6c63430008000033516d65627a546d316e6369674c395733457565766e38677167374e5346513173366851784d356d5244776a664c50","opcodes":"PUSH1 0x9 DUP1 SLOAD PUSH1 0xFF NOT AND SWAP1 SSTORE PUSH1 0x0 PUSH1 0xA SSTORE PUSH1 0xE0 PUSH1 0x40 MSTORE PUSH1 0x2E PUSH1 0x80 DUP2 DUP2 MSTORE SWAP1 PUSH3 0x1754 PUSH1 0xA0 CODECOPY DUP1 MLOAD PUSH3 0x38 SWAP2 PUSH1 0xE SWAP2 PUSH1 0x20 SWAP1 SWAP2 ADD SWAP1 PUSH3 0x140 JUMP JUMPDEST POP CALLVALUE DUP1 ISZERO PUSH3 0x46 JUMPI PUSH1 0x0 DUP1 REVERT JUMPDEST POP PUSH1 0x40 MLOAD PUSH3 0x1782 CODESIZE SUB DUP1 PUSH3 0x1782 DUP4 CODECOPY DUP2 ADD PUSH1 0x40 DUP2 SWAP1 MSTORE PUSH3 0x69 SWAP2 PUSH3 0x291 JUMP JUMPDEST PUSH3 0x7B PUSH4 0x1FFC9A7 PUSH1 0xE0 SHL PUSH3 0xE5 JUMP JUMPDEST DUP2 MLOAD PUSH3 0x90 SWAP1 PUSH1 0xB SWAP1 PUSH1 0x20 DUP6 ADD SWAP1 PUSH3 0x140 JUMP JUMPDEST POP DUP1 MLOAD PUSH3 0xA6 SWAP1 PUSH1 0xC SWAP1 PUSH1 0x20 DUP5 ADD SWAP1 PUSH3 0x140 JUMP JUMPDEST POP PUSH3 0xB9 PUSH4 0x80AC58CD PUSH1 0xE0 SHL PUSH3 0xE5 JUMP JUMPDEST PUSH3 0xCB PUSH4 0x5B5E139F PUSH1 0xE0 SHL PUSH3 0xE5 JUMP JUMPDEST PUSH3 0xDD PUSH4 0x780E9D63 PUSH1 0xE0 SHL PUSH3 0xE5 JUMP JUMPDEST POP POP PUSH3 0x367 JUMP JUMPDEST PUSH1 0x1 PUSH1 0x1 PUSH1 0xE0 SHL SUB NOT DUP1 DUP3 AND EQ ISZERO PUSH3 0x11B JUMPI PUSH1 0x40 MLOAD PUSH3 0x461BCD PUSH1 0xE5 SHL DUP2 MSTORE PUSH1 0x4 ADD PUSH3 0x112 SWAP1 PUSH3 0x2F8 JUMP JUMPDEST PUSH1 0x40 MLOAD DUP1 SWAP2 SUB SWAP1 REVERT JUMPDEST PUSH1 0x1 PUSH1 0x1 PUSH1 0xE0 SHL SUB NOT AND PUSH1 0x0 SWAP1 DUP2 MSTORE PUSH1 0x20 DUP2 SWAP1 MSTORE PUSH1 0x40 SWAP1 KECCAK256 DUP1 SLOAD PUSH1 0xFF NOT AND PUSH1 0x1 OR SWAP1 SSTORE JUMP JUMPDEST DUP3 DUP1 SLOAD PUSH3 0x14E SWAP1 PUSH3 0x314 JUMP JUMPDEST SWAP1 PUSH1 0x0 MSTORE PUSH1 0x20 PUSH1 0x0 KECCAK256 SWAP1 PUSH1 0x1F ADD PUSH1 0x20 SWAP1 DIV DUP2 ADD SWAP3 DUP3 PUSH3 0x172 JUMPI PUSH1 0x0 DUP6 SSTORE PUSH3 0x1BD JUMP JUMPDEST DUP3 PUSH1 0x1F LT PUSH3 0x18D JUMPI DUP1 MLOAD PUSH1 0xFF NOT AND DUP4 DUP1 ADD OR DUP6 SSTORE PUSH3 0x1BD JUMP JUMPDEST DUP3 DUP1 ADD PUSH1 0x1 ADD DUP6 SSTORE DUP3 ISZERO PUSH3 0x1BD JUMPI SWAP2 DUP3 ADD JUMPDEST DUP3 DUP2 GT ISZERO PUSH3 0x1BD JUMPI DUP3 MLOAD DUP3 SSTORE SWAP2 PUSH1 0x20 ADD SWAP2 SWAP1 PUSH1 0x1 ADD SWAP1 PUSH3 0x1A0 JUMP JUMPDEST POP PUSH3 0x1CB SWAP3 SWAP2 POP PUSH3 0x1CF JUMP JUMPDEST POP SWAP1 JUMP JUMPDEST JUMPDEST DUP1 DUP3 GT ISZERO PUSH3 0x1CB JUMPI PUSH1 0x0 DUP2 SSTORE PUSH1 0x1 ADD PUSH3 0x1D0 JUMP JUMPDEST PUSH1 0x0 DUP3 PUSH1 0x1F DUP4 ADD SLT PUSH3 0x1F7 JUMPI DUP1 DUP2 REVERT JUMPDEST DUP2 MLOAD PUSH1 0x1 PUSH1 0x1 PUSH1 0x40 SHL SUB DUP1 DUP3 GT ISZERO PUSH3 0x214 JUMPI PUSH3 0x214 PUSH3 0x351 JUMP JUMPDEST PUSH1 0x40 MLOAD PUSH1 0x20 PUSH1 0x1F DUP5 ADD PUSH1 0x1F NOT AND DUP3 ADD DUP2 ADD DUP4 DUP2 GT DUP4 DUP3 LT OR ISZERO PUSH3 0x23C JUMPI PUSH3 0x23C PUSH3 0x351 JUMP JUMPDEST PUSH1 0x40 MSTORE DUP4 DUP3 MSTORE DUP6 DUP5 ADD DUP2 ADD DUP8 LT ISZERO PUSH3 0x253 JUMPI DUP5 DUP6 REVERT JUMPDEST DUP5 SWAP3 POP JUMPDEST DUP4 DUP4 LT ISZERO PUSH3 0x276 JUMPI DUP6 DUP4 ADD DUP2 ADD MLOAD DUP3 DUP5 ADD DUP3 ADD MSTORE SWAP2 DUP3 ADD SWAP2 PUSH3 0x257 JUMP JUMPDEST DUP4 DUP4 GT ISZERO PUSH3 0x287 JUMPI DUP5 DUP2 DUP6 DUP5 ADD ADD MSTORE JUMPDEST POP SWAP6 SWAP5 POP POP POP POP POP JUMP JUMPDEST PUSH1 0x0 DUP1 PUSH1 0x40 DUP4 DUP6 SUB SLT ISZERO PUSH3 0x2A4 JUMPI DUP2 DUP3 REVERT JUMPDEST DUP3 MLOAD PUSH1 0x1 PUSH1 0x1 PUSH1 0x40 SHL SUB DUP1 DUP3 GT ISZERO PUSH3 0x2BB JUMPI DUP4 DUP5 REVERT JUMPDEST PUSH3 0x2C9 DUP7 DUP4 DUP8 ADD PUSH3 0x1E6 JUMP JUMPDEST SWAP4 POP PUSH1 0x20 DUP6 ADD MLOAD SWAP2 POP DUP1 DUP3 GT ISZERO PUSH3 0x2DF JUMPI DUP3 DUP4 REVERT JUMPDEST POP PUSH3 0x2EE DUP6 DUP3 DUP7 ADD PUSH3 0x1E6 JUMP JUMPDEST SWAP2 POP POP SWAP3 POP SWAP3 SWAP1 POP JUMP JUMPDEST PUSH1 0x20 DUP1 DUP3 MSTORE PUSH1 0x2 SWAP1 DUP3 ADD MSTORE PUSH2 0x329B PUSH1 0xF1 SHL PUSH1 0x40 DUP3 ADD MSTORE PUSH1 0x60 ADD SWAP1 JUMP JUMPDEST PUSH1 0x2 DUP2 DIV PUSH1 0x1 DUP3 AND DUP1 PUSH3 0x329 JUMPI PUSH1 0x7F DUP3 AND SWAP2 POP JUMPDEST PUSH1 0x20 DUP3 LT DUP2 EQ ISZERO PUSH3 0x34B JUMPI PUSH4 0x4E487B71 PUSH1 0xE0 SHL PUSH1 0x0 MSTORE PUSH1 0x22 PUSH1 0x4 MSTORE PUSH1 0x24 PUSH1 0x0 REVERT JUMPDEST POP SWAP2 SWAP1 POP JUMP JUMPDEST PUSH4 0x4E487B71 PUSH1 0xE0 SHL PUSH1 0x0 MSTORE PUSH1 0x41 PUSH1 0x4 MSTORE PUSH1 0x24 PUSH1 0x0 REVERT JUMPDEST PUSH2 0x13DD DUP1 PUSH3 0x377 PUSH1 0x0 CODECOPY PUSH1 0x0 RETURN INVALID PUSH1 0x80 PUSH1 0x40 MSTORE CALLVALUE DUP1 ISZERO PUSH2 0x10 JUMPI PUSH1 0x0 DUP1 REVERT JUMPDEST POP PUSH1 0x4 CALLDATASIZE LT PUSH2 0x12C JUMPI PUSH1 0x0 CALLDATALOAD PUSH1 0xE0 SHR DUP1 PUSH4 0x686E1079 GT PUSH2 0xAD JUMPI DUP1 PUSH4 0xA22CB465 GT PUSH2 0x71 JUMPI DUP1 PUSH4 0xA22CB465 EQ PUSH2 0x24D JUMPI DUP1 PUSH4 0xB88D4FDE EQ PUSH2 0x260 JUMPI DUP1 PUSH4 0xC87B56DD EQ PUSH2 0x273 JUMPI DUP1 PUSH4 0xCFB15EF0 EQ PUSH2 0x286 JUMPI DUP1 PUSH4 0xE985E9C5 EQ PUSH2 0x299 JUMPI PUSH2 0x12C JUMP JUMPDEST DUP1 PUSH4 0x686E1079 EQ PUSH2 0x21A JUMPI DUP1 PUSH4 0x6C0360EB EQ PUSH2 0x222 JUMPI DUP1 PUSH4 0x6DE9F32B EQ PUSH2 0x22A JUMPI DUP1 PUSH4 0x70A08231 EQ PUSH2 0x232 JUMPI DUP1 PUSH4 0x95D89B41 EQ PUSH2 0x245 JUMPI PUSH2 0x12C JUMP JUMPDEST DUP1 PUSH4 0x23B872DD GT PUSH2 0xF4 JUMPI DUP1 PUSH4 0x23B872DD EQ PUSH2 0x1B9 JUMPI DUP1 PUSH4 0x2AD95786 EQ PUSH2 0x1CC JUMPI DUP1 PUSH4 0x42842E0E EQ PUSH2 0x1EC JUMPI DUP1 PUSH4 0x49713811 EQ PUSH2 0x1FF JUMPI DUP1 PUSH4 0x6352211E EQ PUSH2 0x207 JUMPI PUSH2 0x12C JUMP JUMPDEST DUP1 PUSH4 0x1FFC9A7 EQ PUSH2 0x131 JUMPI DUP1 PUSH4 0x6FDDE03 EQ PUSH2 0x15A JUMPI DUP1 PUSH4 0x81812FC EQ PUSH2 0x16F JUMPI DUP1 PUSH4 0x95EA7B3 EQ PUSH2 0x18F JUMPI DUP1 PUSH4 0x18160DDD EQ PUSH2 0x1A4 JUMPI JUMPDEST PUSH1 0x0 DUP1 REVERT JUMPDEST PUSH2 0x144 PUSH2 0x13F CALLDATASIZE PUSH1 0x4 PUSH2 0xEFF JUMP JUMPDEST PUSH2 0x2AC JUMP JUMPDEST PUSH1 0x40 MLOAD PUSH2 0x151 SWAP2 SWAP1 PUSH2 0x1037 JUMP JUMPDEST PUSH1 0x40 MLOAD DUP1 SWAP2 SUB SWAP1 RETURN JUMPDEST PUSH2 0x162 PUSH2 0x2CF JUMP JUMPDEST PUSH1 0x40 MLOAD PUSH2 0x151 SWAP2 SWAP1 PUSH2 0x1042 JUMP JUMPDEST PUSH2 0x182 PUSH2 0x17D CALLDATASIZE PUSH1 0x4 PUSH2 0xF37 JUMP JUMPDEST PUSH2 0x361 JUMP JUMPDEST PUSH1 0x40 MLOAD PUSH2 0x151 SWAP2 SWAP1 PUSH2 0xFE6 JUMP JUMPDEST PUSH2 0x1A2 PUSH2 0x19D CALLDATASIZE PUSH1 0x4 PUSH2 0xED6 JUMP JUMPDEST PUSH2 0x3AD JUMP JUMPDEST STOP JUMPDEST PUSH2 0x1AC PUSH2 0x445 JUMP JUMPDEST PUSH1 0x40 MLOAD PUSH2 0x151 SWAP2 SWAP1 PUSH2 0x1208 JUMP JUMPDEST PUSH2 0x1A2 PUSH2 0x1C7 CALLDATASIZE PUSH1 0x4 PUSH2 0xD95 JUMP JUMPDEST PUSH2 0x44B JUMP JUMPDEST PUSH2 0x1DF PUSH2 0x1DA CALLDATASIZE PUSH1 0x4 PUSH2 0xD49 JUMP JUMPDEST PUSH2 0x483 JUMP JUMPDEST PUSH1 0x40 MLOAD PUSH2 0x151 SWAP2 SWAP1 PUSH2 0x1211 JUMP JUMPDEST PUSH2 0x1A2 PUSH2 0x1FA CALLDATASIZE PUSH1 0x4 PUSH2 0xD95 JUMP JUMPDEST PUSH2 0x498 JUMP JUMPDEST PUSH2 0x1DF PUSH2 0x4B3 JUMP JUMPDEST PUSH2 0x182 PUSH2 0x215 CALLDATASIZE PUSH1 0x4 PUSH2 0xF37 JUMP JUMPDEST PUSH2 0x4BC JUMP JUMPDEST PUSH2 0x1AC PUSH2 0x4F9 JUMP JUMPDEST PUSH2 0x162 PUSH2 0x4FF JUMP JUMPDEST PUSH2 0x1AC PUSH2 0x50E JUMP JUMPDEST PUSH2 0x1AC PUSH2 0x240 CALLDATASIZE PUSH1 0x4 PUSH2 0xD49 JUMP JUMPDEST PUSH2 0x514 JUMP JUMPDEST PUSH2 0x162 PUSH2 0x558 JUMP JUMPDEST PUSH2 0x1A2 PUSH2 0x25B CALLDATASIZE PUSH1 0x4 PUSH2 0xE9C JUMP JUMPDEST PUSH2 0x567 JUMP JUMPDEST PUSH2 0x1A2 PUSH2 0x26E CALLDATASIZE PUSH1 0x4 PUSH2 0xDD0 JUMP JUMPDEST PUSH2 0x635 JUMP JUMPDEST PUSH2 0x162 PUSH2 0x281 CALLDATASIZE PUSH1 0x4 PUSH2 0xF37 JUMP JUMPDEST PUSH2 0x674 JUMP JUMPDEST PUSH2 0x1DF PUSH2 0x294 CALLDATASIZE PUSH1 0x4 PUSH2 0xD49 JUMP JUMPDEST PUSH2 0x6D9 JUMP JUMPDEST PUSH2 0x144 PUSH2 0x2A7 CALLDATASIZE PUSH1 0x4 PUSH2 0xD63 JUMP JUMPDEST PUSH2 0x6EE JUMP JUMPDEST PUSH1 0x1 PUSH1 0x1 PUSH1 0xE0 SHL SUB NOT DUP2 AND PUSH1 0x0 SWAP1 DUP2 MSTORE PUSH1 0x20 DUP2 SWAP1 MSTORE PUSH1 0x40 SWAP1 KECCAK256 SLOAD PUSH1 0xFF AND JUMPDEST SWAP2 SWAP1 POP JUMP JUMPDEST PUSH1 0x60 PUSH1 0xB DUP1 SLOAD PUSH2 0x2DE SWAP1 PUSH2 0x12C2 JUMP JUMPDEST DUP1 PUSH1 0x1F ADD PUSH1 0x20 DUP1 SWAP2 DIV MUL PUSH1 0x20 ADD PUSH1 0x40 MLOAD SWAP1 DUP2 ADD PUSH1 0x40 MSTORE DUP1 SWAP3 SWAP2 SWAP1 DUP2 DUP2 MSTORE PUSH1 0x20 ADD DUP3 DUP1 SLOAD PUSH2 0x30A SWAP1 PUSH2 0x12C2 JUMP JUMPDEST DUP1 ISZERO PUSH2 0x357 JUMPI DUP1 PUSH1 0x1F LT PUSH2 0x32C JUMPI PUSH2 0x100 DUP1 DUP4 SLOAD DIV MUL DUP4 MSTORE SWAP2 PUSH1 0x20 ADD SWAP2 PUSH2 0x357 JUMP JUMPDEST DUP3 ADD SWAP2 SWAP1 PUSH1 0x0 MSTORE PUSH1 0x20 PUSH1 0x0 KECCAK256 SWAP1 JUMPDEST DUP2 SLOAD DUP2 MSTORE SWAP1 PUSH1 0x1 ADD SWAP1 PUSH1 0x20 ADD DUP1 DUP4 GT PUSH2 0x33A JUMPI DUP3 SWAP1 SUB PUSH1 0x1F AND DUP3 ADD SWAP2 JUMPDEST POP POP POP POP POP SWAP1 POP SWAP1 JUMP JUMPDEST PUSH1 0x0 PUSH2 0x36C DUP3 PUSH2 0x71C JUMP JUMPDEST PUSH2 0x391 JUMPI PUSH1 0x40 MLOAD PUSH3 0x461BCD PUSH1 0xE5 SHL DUP2 MSTORE PUSH1 0x4 ADD PUSH2 0x388 SWAP1 PUSH2 0x11EB JUMP JUMPDEST PUSH1 0x40 MLOAD DUP1 SWAP2 SUB SWAP1 REVERT JUMPDEST POP PUSH1 0x0 SWAP1 DUP2 MSTORE PUSH1 0x1 PUSH1 0x20 MSTORE PUSH1 0x40 SWAP1 KECCAK256 SLOAD PUSH1 0x1 PUSH1 0x1 PUSH1 0xA0 SHL SUB AND SWAP1 JUMP JUMPDEST PUSH1 0x0 PUSH2 0x3B8 DUP3 PUSH2 0x4BC JUMP JUMPDEST SWAP1 POP DUP1 PUSH1 0x1 PUSH1 0x1 PUSH1 0xA0 SHL SUB AND DUP4 PUSH1 0x1 PUSH1 0x1 PUSH1 0xA0 SHL SUB AND EQ ISZERO PUSH2 0x3EC JUMPI PUSH1 0x40 MLOAD PUSH3 0x461BCD PUSH1 0xE5 SHL DUP2 MSTORE PUSH1 0x4 ADD PUSH2 0x388 SWAP1 PUSH2 0x113D JUMP JUMPDEST DUP1 PUSH1 0x1 PUSH1 0x1 PUSH1 0xA0 SHL SUB AND PUSH2 0x3FE PUSH2 0x731 JUMP JUMPDEST PUSH1 0x1 PUSH1 0x1 PUSH1 0xA0 SHL SUB AND EQ DUP1 PUSH2 0x41A JUMPI POP PUSH2 0x41A DUP2 PUSH2 0x2A7 PUSH2 0x731 JUMP JUMPDEST PUSH2 0x436 JUMPI PUSH1 0x40 MLOAD PUSH3 0x461BCD PUSH1 0xE5 SHL DUP2 MSTORE PUSH1 0x4 ADD PUSH2 0x388 SWAP1 PUSH2 0x115A JUMP JUMPDEST PUSH2 0x440 DUP4 DUP4 PUSH2 0x735 JUMP JUMPDEST POP POP POP JUMP JUMPDEST PUSH1 0xA SLOAD SWAP1 JUMP JUMPDEST PUSH2 0x45C PUSH2 0x456 PUSH2 0x731 JUMP JUMPDEST DUP3 PUSH2 0x7A3 JUMP JUMPDEST PUSH2 0x478 JUMPI PUSH1 0x40 MLOAD PUSH3 0x461BCD PUSH1 0xE5 SHL DUP2 MSTORE PUSH1 0x4 ADD PUSH2 0x388 SWAP1 PUSH2 0x10C9 JUMP JUMPDEST PUSH2 0x440 DUP4 DUP4 DUP4 PUSH2 0x828 JUMP JUMPDEST PUSH1 0x7 PUSH1 0x20 MSTORE PUSH1 0x0 SWAP1 DUP2 MSTORE PUSH1 0x40 SWAP1 KECCAK256 SLOAD PUSH1 0xFF AND DUP2 JUMP JUMPDEST PUSH2 0x440 DUP4 DUP4 DUP4 PUSH1 0x40 MLOAD DUP1 PUSH1 0x20 ADD PUSH1 0x40 MSTORE DUP1 PUSH1 0x0 DUP2 MSTORE POP PUSH2 0x635 JUMP JUMPDEST PUSH1 0x9 SLOAD PUSH1 0xFF AND DUP2 JUMP JUMPDEST PUSH1 0x0 DUP1 DUP3 GT PUSH2 0x4DD JUMPI PUSH1 0x40 MLOAD PUSH3 0x461BCD PUSH1 0xE5 SHL DUP2 MSTORE PUSH1 0x4 ADD PUSH2 0x388 SWAP1 PUSH2 0x1072 JUMP JUMPDEST POP PUSH1 0x0 SWAP1 DUP2 MSTORE PUSH1 0x4 PUSH1 0x20 MSTORE PUSH1 0x40 SWAP1 KECCAK256 SLOAD PUSH1 0x1 PUSH1 0x1 PUSH1 0xA0 SHL SUB AND SWAP1 JUMP JUMPDEST PUSH1 0xD SLOAD DUP2 JUMP JUMPDEST PUSH1 0x60 PUSH1 0xE DUP1 SLOAD PUSH2 0x2DE SWAP1 PUSH2 0x12C2 JUMP JUMPDEST PUSH1 0xA SLOAD DUP2 JUMP JUMPDEST PUSH1 0x0 PUSH1 0x1 PUSH1 0x1 PUSH1 0xA0 SHL SUB DUP3 AND PUSH2 0x53C JUMPI PUSH1 0x40 MLOAD PUSH3 0x461BCD PUSH1 0xE5 SHL DUP2 MSTORE PUSH1 0x4 ADD PUSH2 0x388 SWAP1 PUSH2 0x11B1 JUMP JUMPDEST POP PUSH1 0x1 PUSH1 0x1 PUSH1 0xA0 SHL SUB AND PUSH1 0x0 SWAP1 DUP2 MSTORE PUSH1 0x3 PUSH1 0x20 MSTORE PUSH1 0x40 SWAP1 KECCAK256 SLOAD SWAP1 JUMP JUMPDEST PUSH1 0x60 PUSH1 0xC DUP1 SLOAD PUSH2 0x2DE SWAP1 PUSH2 0x12C2 JUMP JUMPDEST PUSH2 0x56F PUSH2 0x731 JUMP JUMPDEST PUSH1 0x1 PUSH1 0x1 PUSH1 0xA0 SHL SUB AND DUP3 PUSH1 0x1 PUSH1 0x1 PUSH1 0xA0 SHL SUB AND EQ ISZERO PUSH2 0x5A0 JUMPI PUSH1 0x40 MLOAD PUSH3 0x461BCD PUSH1 0xE5 SHL DUP2 MSTORE PUSH1 0x4 ADD PUSH2 0x388 SWAP1 PUSH2 0x10E6 JUMP JUMPDEST DUP1 PUSH1 0x2 PUSH1 0x0 PUSH2 0x5AD PUSH2 0x731 JUMP JUMPDEST PUSH1 0x1 PUSH1 0x1 PUSH1 0xA0 SHL SUB SWAP1 DUP2 AND DUP3 MSTORE PUSH1 0x20 DUP1 DUP4 ADD SWAP4 SWAP1 SWAP4 MSTORE PUSH1 0x40 SWAP2 DUP3 ADD PUSH1 0x0 SWAP1 DUP2 KECCAK256 SWAP2 DUP8 AND DUP1 DUP3 MSTORE SWAP2 SWAP1 SWAP4 MSTORE SWAP2 KECCAK256 DUP1 SLOAD PUSH1 0xFF NOT AND SWAP3 ISZERO ISZERO SWAP3 SWAP1 SWAP3 OR SWAP1 SWAP2 SSTORE PUSH2 0x5F1 PUSH2 0x731 JUMP JUMPDEST PUSH1 0x1 PUSH1 0x1 PUSH1 0xA0 SHL SUB AND PUSH32 0x17307EAB39AB6107E8899845AD3D59BD9653F200F220920489CA2B5937696C31 DUP4 PUSH1 0x40 MLOAD PUSH2 0x629 SWAP2 SWAP1 PUSH2 0x1037 JUMP JUMPDEST PUSH1 0x40 MLOAD DUP1 SWAP2 SUB SWAP1 LOG3 POP POP JUMP JUMPDEST PUSH2 0x646 PUSH2 0x640 PUSH2 0x731 JUMP JUMPDEST DUP4 PUSH2 0x7A3 JUMP JUMPDEST PUSH2 0x662 JUMPI PUSH1 0x40 MLOAD PUSH3 0x461BCD PUSH1 0xE5 SHL DUP2 MSTORE PUSH1 0x4 ADD PUSH2 0x388 SWAP1 PUSH2 0x1194 JUMP JUMPDEST PUSH2 0x66E DUP5 DUP5 DUP5 DUP5 PUSH2 0x9ED JUMP JUMPDEST POP POP POP POP JUMP JUMPDEST PUSH1 0x60 PUSH2 0x67F DUP3 PUSH2 0x71C JUMP JUMPDEST PUSH2 0x69B JUMPI PUSH1 0x40 MLOAD PUSH3 0x461BCD PUSH1 0xE5 SHL DUP2 MSTORE PUSH1 0x4 ADD PUSH2 0x388 SWAP1 PUSH2 0x1120 JUMP JUMPDEST PUSH1 0x0 PUSH2 0x6A5 PUSH2 0x4FF JUMP JUMPDEST SWAP1 POP DUP1 PUSH2 0x6B1 DUP5 PUSH2 0xA20 JUMP JUMPDEST PUSH1 0x40 MLOAD PUSH1 0x20 ADD PUSH2 0x6C2 SWAP3 SWAP2 SWAP1 PUSH2 0xF97 JUMP JUMPDEST PUSH1 0x40 MLOAD PUSH1 0x20 DUP2 DUP4 SUB SUB DUP2 MSTORE SWAP1 PUSH1 0x40 MSTORE SWAP2 POP POP SWAP2 SWAP1 POP JUMP JUMPDEST PUSH1 0x8 PUSH1 0x20 MSTORE PUSH1 0x0 SWAP1 DUP2 MSTORE PUSH1 0x40 SWAP1 KECCAK256 SLOAD PUSH1 0xFF AND DUP2 JUMP JUMPDEST PUSH1 0x1 PUSH1 0x1 PUSH1 0xA0 SHL SUB SWAP2 DUP3 AND PUSH1 0x0 SWAP1 DUP2 MSTORE PUSH1 0x2 PUSH1 0x20 SWAP1 DUP2 MSTORE PUSH1 0x40 DUP1 DUP4 KECCAK256 SWAP4 SWAP1 SWAP5 AND DUP3 MSTORE SWAP2 SWAP1 SWAP2 MSTORE KECCAK256 SLOAD PUSH1 0xFF AND SWAP1 JUMP JUMPDEST PUSH1 0x0 SWAP1 DUP2 MSTORE PUSH1 0x5 PUSH1 0x20 MSTORE PUSH1 0x40 SWAP1 KECCAK256 SLOAD PUSH1 0xFF AND SWAP1 JUMP JUMPDEST CALLER SWAP1 JUMP JUMPDEST PUSH1 0x0 DUP2 DUP2 MSTORE PUSH1 0x1 PUSH1 0x20 MSTORE PUSH1 0x40 SWAP1 KECCAK256 DUP1 SLOAD PUSH1 0x1 PUSH1 0x1 PUSH1 0xA0 SHL SUB NOT AND PUSH1 0x1 PUSH1 0x1 PUSH1 0xA0 SHL SUB DUP5 AND SWAP1 DUP2 OR SWAP1 SWAP2 SSTORE DUP2 SWAP1 PUSH2 0x76A DUP3 PUSH2 0x4BC JUMP JUMPDEST PUSH1 0x1 PUSH1 0x1 PUSH1 0xA0 SHL SUB AND PUSH32 0x8C5BE1E5EBEC7D5BD14F71427D1E84F3DD0314C0F7B2291E5B200AC8C7C3B925 PUSH1 0x40 MLOAD PUSH1 0x40 MLOAD DUP1 SWAP2 SUB SWAP1 LOG4 POP POP JUMP JUMPDEST PUSH1 0x0 PUSH2 0x7AE DUP3 PUSH2 0x71C JUMP JUMPDEST PUSH2 0x7CA JUMPI PUSH1 0x40 MLOAD PUSH3 0x461BCD PUSH1 0xE5 SHL DUP2 MSTORE PUSH1 0x4 ADD PUSH2 0x388 SWAP1 PUSH2 0x108F JUMP JUMPDEST PUSH1 0x0 PUSH2 0x7D5 DUP4 PUSH2 0x4BC JUMP JUMPDEST SWAP1 POP DUP1 PUSH1 0x1 PUSH1 0x1 PUSH1 0xA0 SHL SUB AND DUP5 PUSH1 0x1 PUSH1 0x1 PUSH1 0xA0 SHL SUB AND EQ DUP1 PUSH2 0x810 JUMPI POP DUP4 PUSH1 0x1 PUSH1 0x1 PUSH1 0xA0 SHL SUB AND PUSH2 0x805 DUP5 PUSH2 0x361 JUMP JUMPDEST PUSH1 0x1 PUSH1 0x1 PUSH1 0xA0 SHL SUB AND EQ JUMPDEST DUP1 PUSH2 0x820 JUMPI POP PUSH2 0x820 DUP2 DUP6 PUSH2 0x6EE JUMP JUMPDEST SWAP5 SWAP4 POP POP POP POP JUMP JUMPDEST DUP3 PUSH1 0x1 PUSH1 0x1 PUSH1 0xA0 SHL SUB AND PUSH2 0x83B DUP3 PUSH2 0x4BC JUMP JUMPDEST PUSH1 0x1 PUSH1 0x1 PUSH1 0xA0 SHL SUB AND EQ PUSH2 0x861 JUMPI PUSH1 0x40 MLOAD PUSH3 0x461BCD PUSH1 0xE5 SHL DUP2 MSTORE PUSH1 0x4 ADD PUSH2 0x388 SWAP1 PUSH2 0x10AC JUMP JUMPDEST PUSH1 0x1 PUSH1 0x1 PUSH1 0xA0 SHL SUB DUP3 AND PUSH2 0x887 JUMPI PUSH1 0x40 MLOAD PUSH3 0x461BCD PUSH1 0xE5 SHL DUP2 MSTORE PUSH1 0x4 ADD PUSH2 0x388 SWAP1 PUSH2 0x11CE JUMP JUMPDEST PUSH2 0x892 DUP4 DUP4 DUP4 PUSH2 0x440 JUMP JUMPDEST PUSH2 0x89D PUSH1 0x0 DUP3 PUSH2 0x735 JUMP JUMPDEST PUSH1 0x1 PUSH1 0x1 PUSH1 0xA0 SHL SUB DUP4 AND PUSH1 0x0 SWAP1 DUP2 MSTORE PUSH1 0x3 PUSH1 0x20 MSTORE PUSH1 0x40 DUP2 KECCAK256 DUP1 SLOAD SWAP2 PUSH2 0x8C1 DUP4 PUSH2 0x128E JUMP JUMPDEST SWAP1 SWAP2 SSTORE POP POP PUSH1 0x0 DUP2 DUP2 MSTORE PUSH1 0x4 PUSH1 0x20 SWAP1 DUP2 MSTORE PUSH1 0x40 DUP1 DUP4 KECCAK256 DUP1 SLOAD PUSH1 0x1 PUSH1 0x1 PUSH1 0xA0 SHL SUB NOT AND PUSH1 0x1 PUSH1 0x1 PUSH1 0xA0 SHL SUB DUP8 AND SWAP1 DUP2 OR SWAP1 SWAP2 SSTORE DUP4 MSTORE PUSH1 0x3 SWAP1 SWAP2 MSTORE DUP2 KECCAK256 DUP1 SLOAD SWAP2 PUSH2 0x908 DUP4 PUSH2 0x12FD JUMP JUMPDEST SWAP1 SWAP2 SSTORE POP POP PUSH1 0x0 DUP2 DUP2 MSTORE PUSH1 0x6 PUSH1 0x20 MSTORE PUSH1 0x40 SWAP1 KECCAK256 SLOAD PUSH1 0xFF AND ISZERO PUSH2 0x9A7 JUMPI PUSH1 0x1 PUSH1 0x1 PUSH1 0xA0 SHL SUB DUP4 AND PUSH1 0x0 SWAP1 DUP2 MSTORE PUSH1 0x7 PUSH1 0x20 MSTORE PUSH1 0x40 DUP2 KECCAK256 DUP1 SLOAD PUSH1 0xFF AND SWAP2 PUSH2 0x94B DUP4 PUSH2 0x12A5 JUMP JUMPDEST DUP3 SLOAD PUSH2 0x100 SWAP3 SWAP1 SWAP3 EXP PUSH1 0xFF DUP2 DUP2 MUL NOT SWAP1 SWAP4 AND SWAP2 DUP4 AND MUL OR SWAP1 SWAP2 SSTORE PUSH1 0x1 PUSH1 0x1 PUSH1 0xA0 SHL SUB DUP5 AND PUSH1 0x0 SWAP1 DUP2 MSTORE PUSH1 0x7 PUSH1 0x20 MSTORE PUSH1 0x40 DUP2 KECCAK256 DUP1 SLOAD SWAP1 SWAP3 AND SWAP3 POP PUSH2 0x98D DUP4 PUSH2 0x1318 JUMP JUMPDEST SWAP2 SWAP1 PUSH2 0x100 EXP DUP2 SLOAD DUP2 PUSH1 0xFF MUL NOT AND SWAP1 DUP4 PUSH1 0xFF AND MUL OR SWAP1 SSTORE POP POP JUMPDEST DUP1 DUP3 PUSH1 0x1 PUSH1 0x1 PUSH1 0xA0 SHL SUB AND DUP5 PUSH1 0x1 PUSH1 0x1 PUSH1 0xA0 SHL SUB AND PUSH32 0xDDF252AD1BE2C89B69C2B068FC378DAA952BA7F163C4A11628F55A4DF523B3EF PUSH1 0x40 MLOAD PUSH1 0x40 MLOAD DUP1 SWAP2 SUB SWAP1 LOG4 POP POP POP JUMP JUMPDEST PUSH2 0x9F8 DUP5 DUP5 DUP5 PUSH2 0x828 JUMP JUMPDEST PUSH2 0xA04 DUP5 DUP5 DUP5 DUP5 PUSH2 0xB3B JUMP JUMPDEST PUSH2 0x66E JUMPI PUSH1 0x40 MLOAD PUSH3 0x461BCD PUSH1 0xE5 SHL DUP2 MSTORE PUSH1 0x4 ADD PUSH2 0x388 SWAP1 PUSH2 0x1177 JUMP JUMPDEST PUSH1 0x60 DUP2 PUSH2 0xA45 JUMPI POP PUSH1 0x40 DUP1 MLOAD DUP1 DUP3 ADD SWAP1 SWAP2 MSTORE PUSH1 0x1 DUP2 MSTORE PUSH1 0x3 PUSH1 0xFC SHL PUSH1 0x20 DUP3 ADD MSTORE PUSH2 0x2CA JUMP JUMPDEST DUP2 PUSH1 0x0 JUMPDEST DUP2 ISZERO PUSH2 0xA6F JUMPI DUP1 PUSH2 0xA59 DUP2 PUSH2 0x12FD JUMP JUMPDEST SWAP2 POP PUSH2 0xA68 SWAP1 POP PUSH1 0xA DUP4 PUSH2 0x1237 JUMP JUMPDEST SWAP2 POP PUSH2 0xA49 JUMP JUMPDEST PUSH1 0x0 DUP2 PUSH8 0xFFFFFFFFFFFFFFFF DUP2 GT ISZERO PUSH2 0xA98 JUMPI PUSH4 0x4E487B71 PUSH1 0xE0 SHL PUSH1 0x0 MSTORE PUSH1 0x41 PUSH1 0x4 MSTORE PUSH1 0x24 PUSH1 0x0 REVERT JUMPDEST PUSH1 0x40 MLOAD SWAP1 DUP1 DUP3 MSTORE DUP1 PUSH1 0x1F ADD PUSH1 0x1F NOT AND PUSH1 0x20 ADD DUP3 ADD PUSH1 0x40 MSTORE DUP1 ISZERO PUSH2 0xAC2 JUMPI PUSH1 0x20 DUP3 ADD DUP2 DUP1 CALLDATASIZE DUP4 CALLDATACOPY ADD SWAP1 POP JUMPDEST POP SWAP1 POP JUMPDEST DUP5 ISZERO PUSH2 0x820 JUMPI PUSH2 0xAD7 PUSH1 0x1 DUP4 PUSH2 0x124B JUMP JUMPDEST SWAP2 POP PUSH2 0xAE4 PUSH1 0xA DUP7 PUSH2 0x1338 JUMP JUMPDEST PUSH2 0xAEF SWAP1 PUSH1 0x30 PUSH2 0x121F JUMP JUMPDEST PUSH1 0xF8 SHL DUP2 DUP4 DUP2 MLOAD DUP2 LT PUSH2 0xB12 JUMPI PUSH4 0x4E487B71 PUSH1 0xE0 SHL PUSH1 0x0 MSTORE PUSH1 0x32 PUSH1 0x4 MSTORE PUSH1 0x24 PUSH1 0x0 REVERT JUMPDEST PUSH1 0x20 ADD ADD SWAP1 PUSH1 0x1 PUSH1 0x1 PUSH1 0xF8 SHL SUB NOT AND SWAP1 DUP2 PUSH1 0x0 BYTE SWAP1 MSTORE8 POP PUSH2 0xB34 PUSH1 0xA DUP7 PUSH2 0x1237 JUMP JUMPDEST SWAP5 POP PUSH2 0xAC6 JUMP JUMPDEST PUSH1 0x0 PUSH2 0xB4F DUP5 PUSH1 0x1 PUSH1 0x1 PUSH1 0xA0 SHL SUB AND PUSH2 0xC1A JUMP JUMPDEST PUSH2 0xB5B JUMPI POP PUSH1 0x1 PUSH2 0x820 JUMP JUMPDEST PUSH1 0x0 PUSH2 0xBE3 PUSH4 0xA85BD01 PUSH1 0xE1 SHL PUSH2 0xB70 PUSH2 0x731 JUMP JUMPDEST DUP9 DUP8 DUP8 PUSH1 0x40 MLOAD PUSH1 0x24 ADD PUSH2 0xB86 SWAP5 SWAP4 SWAP3 SWAP2 SWAP1 PUSH2 0xFFA JUMP JUMPDEST PUSH1 0x40 DUP1 MLOAD PUSH1 0x1F NOT DUP2 DUP5 SUB ADD DUP2 MSTORE SWAP2 DUP2 MSTORE PUSH1 0x20 DUP1 DUP4 ADD DUP1 MLOAD PUSH1 0x1 PUSH1 0x1 PUSH1 0xE0 SHL SUB AND PUSH1 0x1 PUSH1 0x1 PUSH1 0xE0 SHL SUB NOT SWAP1 SWAP6 AND SWAP5 SWAP1 SWAP5 OR SWAP1 SWAP4 MSTORE DUP1 MLOAD DUP1 DUP3 ADD SWAP1 SWAP2 MSTORE PUSH1 0x3 DUP2 MSTORE PUSH3 0xCA647 PUSH1 0xEB SHL SWAP3 DUP2 ADD SWAP3 SWAP1 SWAP3 MSTORE PUSH1 0x1 PUSH1 0x1 PUSH1 0xA0 SHL SUB DUP9 AND SWAP2 PUSH2 0xC20 JUMP JUMPDEST SWAP1 POP PUSH1 0x0 DUP2 DUP1 PUSH1 0x20 ADD SWAP1 MLOAD DUP2 ADD SWAP1 PUSH2 0xBFB SWAP2 SWAP1 PUSH2 0xF1B JUMP JUMPDEST PUSH1 0x1 PUSH1 0x1 PUSH1 0xE0 SHL SUB NOT AND PUSH4 0xA85BD01 PUSH1 0xE1 SHL EQ SWAP3 POP POP POP SWAP5 SWAP4 POP POP POP POP JUMP JUMPDEST EXTCODESIZE ISZERO ISZERO SWAP1 JUMP JUMPDEST PUSH1 0x60 PUSH2 0xC2F DUP5 DUP5 PUSH1 0x0 DUP6 PUSH2 0xC39 JUMP JUMPDEST SWAP1 POP JUMPDEST SWAP4 SWAP3 POP POP POP JUMP JUMPDEST PUSH1 0x60 DUP3 SELFBALANCE LT ISZERO PUSH2 0xC5B JUMPI PUSH1 0x40 MLOAD PUSH3 0x461BCD PUSH1 0xE5 SHL DUP2 MSTORE PUSH1 0x4 ADD PUSH2 0x388 SWAP1 PUSH2 0x1103 JUMP JUMPDEST PUSH2 0xC64 DUP6 PUSH2 0xC1A JUMP JUMPDEST PUSH2 0xC80 JUMPI PUSH1 0x40 MLOAD PUSH3 0x461BCD PUSH1 0xE5 SHL DUP2 MSTORE PUSH1 0x4 ADD PUSH2 0x388 SWAP1 PUSH2 0x1055 JUMP JUMPDEST PUSH1 0x0 DUP1 DUP7 PUSH1 0x1 PUSH1 0x1 PUSH1 0xA0 SHL SUB AND DUP6 DUP8 PUSH1 0x40 MLOAD PUSH2 0xC9C SWAP2 SWAP1 PUSH2 0xF7B JUMP JUMPDEST PUSH1 0x0 PUSH1 0x40 MLOAD DUP1 DUP4 SUB DUP2 DUP6 DUP8 GAS CALL SWAP3 POP POP POP RETURNDATASIZE DUP1 PUSH1 0x0 DUP2 EQ PUSH2 0xCD9 JUMPI PUSH1 0x40 MLOAD SWAP2 POP PUSH1 0x1F NOT PUSH1 0x3F RETURNDATASIZE ADD AND DUP3 ADD PUSH1 0x40 MSTORE RETURNDATASIZE DUP3 MSTORE RETURNDATASIZE PUSH1 0x0 PUSH1 0x20 DUP5 ADD RETURNDATACOPY PUSH2 0xCDE JUMP JUMPDEST PUSH1 0x60 SWAP2 POP JUMPDEST POP SWAP2 POP SWAP2 POP PUSH2 0xCEE DUP3 DUP3 DUP7 PUSH2 0xCF9 JUMP JUMPDEST SWAP8 SWAP7 POP POP POP POP POP POP POP JUMP JUMPDEST PUSH1 0x60 DUP4 ISZERO PUSH2 0xD08 JUMPI POP DUP2 PUSH2 0xC32 JUMP JUMPDEST DUP3 MLOAD ISZERO PUSH2 0xD18 JUMPI DUP3 MLOAD DUP1 DUP5 PUSH1 0x20 ADD REVERT JUMPDEST DUP2 PUSH1 0x40 MLOAD PUSH3 0x461BCD PUSH1 0xE5 SHL DUP2 MSTORE PUSH1 0x4 ADD PUSH2 0x388 SWAP2 SWAP1 PUSH2 0x1042 JUMP JUMPDEST DUP1 CALLDATALOAD PUSH1 0x1 PUSH1 0x1 PUSH1 0xA0 SHL SUB DUP2 AND DUP2 EQ PUSH2 0x2CA JUMPI PUSH1 0x0 DUP1 REVERT JUMPDEST PUSH1 0x0 PUSH1 0x20 DUP3 DUP5 SUB SLT ISZERO PUSH2 0xD5A JUMPI DUP1 DUP2 REVERT JUMPDEST PUSH2 0xC32 DUP3 PUSH2 0xD32 JUMP JUMPDEST PUSH1 0x0 DUP1 PUSH1 0x40 DUP4 DUP6 SUB SLT ISZERO PUSH2 0xD75 JUMPI DUP1 DUP2 REVERT JUMPDEST PUSH2 0xD7E DUP4 PUSH2 0xD32 JUMP JUMPDEST SWAP2 POP PUSH2 0xD8C PUSH1 0x20 DUP5 ADD PUSH2 0xD32 JUMP JUMPDEST SWAP1 POP SWAP3 POP SWAP3 SWAP1 POP JUMP JUMPDEST PUSH1 0x0 DUP1 PUSH1 0x0 PUSH1 0x60 DUP5 DUP7 SUB SLT ISZERO PUSH2 0xDA9 JUMPI DUP1 DUP2 REVERT JUMPDEST PUSH2 0xDB2 DUP5 PUSH2 0xD32 JUMP JUMPDEST SWAP3 POP PUSH2 0xDC0 PUSH1 0x20 DUP6 ADD PUSH2 0xD32 JUMP JUMPDEST SWAP2 POP PUSH1 0x40 DUP5 ADD CALLDATALOAD SWAP1 POP SWAP3 POP SWAP3 POP SWAP3 JUMP JUMPDEST PUSH1 0x0 DUP1 PUSH1 0x0 DUP1 PUSH1 0x80 DUP6 DUP8 SUB SLT ISZERO PUSH2 0xDE5 JUMPI DUP1 DUP2 REVERT JUMPDEST PUSH2 0xDEE DUP6 PUSH2 0xD32 JUMP JUMPDEST SWAP4 POP PUSH1 0x20 PUSH2 0xDFD DUP2 DUP8 ADD PUSH2 0xD32 JUMP JUMPDEST SWAP4 POP PUSH1 0x40 DUP7 ADD CALLDATALOAD SWAP3 POP PUSH1 0x60 DUP7 ADD CALLDATALOAD PUSH8 0xFFFFFFFFFFFFFFFF DUP1 DUP3 GT ISZERO PUSH2 0xE20 JUMPI DUP4 DUP5 REVERT JUMPDEST DUP2 DUP9 ADD SWAP2 POP DUP9 PUSH1 0x1F DUP4 ADD SLT PUSH2 0xE33 JUMPI DUP4 DUP5 REVERT JUMPDEST DUP2 CALLDATALOAD DUP2 DUP2 GT ISZERO PUSH2 0xE45 JUMPI PUSH2 0xE45 PUSH2 0x1378 JUMP JUMPDEST PUSH1 0x40 MLOAD PUSH1 0x1F DUP3 ADD PUSH1 0x1F NOT AND DUP2 ADD DUP6 ADD DUP4 DUP2 GT DUP3 DUP3 LT OR ISZERO PUSH2 0xE68 JUMPI PUSH2 0xE68 PUSH2 0x1378 JUMP JUMPDEST PUSH1 0x40 MSTORE DUP2 DUP2 MSTORE DUP4 DUP3 ADD DUP6 ADD DUP12 LT ISZERO PUSH2 0xE7E JUMPI DUP6 DUP7 REVERT JUMPDEST DUP2 DUP6 DUP6 ADD DUP7 DUP4 ADD CALLDATACOPY SWAP1 DUP2 ADD SWAP1 SWAP4 ADD SWAP4 SWAP1 SWAP4 MSTORE POP SWAP4 SWAP7 SWAP3 SWAP6 POP SWAP1 SWAP4 POP POP JUMP JUMPDEST PUSH1 0x0 DUP1 PUSH1 0x40 DUP4 DUP6 SUB SLT ISZERO PUSH2 0xEAE JUMPI DUP2 DUP3 REVERT JUMPDEST PUSH2 0xEB7 DUP4 PUSH2 0xD32 JUMP JUMPDEST SWAP2 POP PUSH1 0x20 DUP4 ADD CALLDATALOAD DUP1 ISZERO ISZERO DUP2 EQ PUSH2 0xECB JUMPI DUP2 DUP3 REVERT JUMPDEST DUP1 SWAP2 POP POP SWAP3 POP SWAP3 SWAP1 POP JUMP JUMPDEST PUSH1 0x0 DUP1 PUSH1 0x40 DUP4 DUP6 SUB SLT ISZERO PUSH2 0xEE8 JUMPI DUP2 DUP3 REVERT JUMPDEST PUSH2 0xEF1 DUP4 PUSH2 0xD32 JUMP JUMPDEST SWAP5 PUSH1 0x20 SWAP4 SWAP1 SWAP4 ADD CALLDATALOAD SWAP4 POP POP POP JUMP JUMPDEST PUSH1 0x0 PUSH1 0x20 DUP3 DUP5 SUB SLT ISZERO PUSH2 0xF10 JUMPI DUP1 DUP2 REVERT JUMPDEST DUP2 CALLDATALOAD PUSH2 0xC32 DUP2 PUSH2 0x138E JUMP JUMPDEST PUSH1 0x0 PUSH1 0x20 DUP3 DUP5 SUB SLT ISZERO PUSH2 0xF2C JUMPI DUP1 DUP2 REVERT JUMPDEST DUP2 MLOAD PUSH2 0xC32 DUP2 PUSH2 0x138E JUMP JUMPDEST PUSH1 0x0 PUSH1 0x20 DUP3 DUP5 SUB SLT ISZERO PUSH2 0xF48 JUMPI DUP1 DUP2 REVERT JUMPDEST POP CALLDATALOAD SWAP2 SWAP1 POP JUMP JUMPDEST PUSH1 0x0 DUP2 MLOAD DUP1 DUP5 MSTORE PUSH2 0xF67 DUP2 PUSH1 0x20 DUP7 ADD PUSH1 0x20 DUP7 ADD PUSH2 0x1262 JUMP JUMPDEST PUSH1 0x1F ADD PUSH1 0x1F NOT AND SWAP3 SWAP1 SWAP3 ADD PUSH1 0x20 ADD SWAP3 SWAP2 POP POP JUMP JUMPDEST PUSH1 0x0 DUP3 MLOAD PUSH2 0xF8D DUP2 DUP5 PUSH1 0x20 DUP8 ADD PUSH2 0x1262 JUMP JUMPDEST SWAP2 SWAP1 SWAP2 ADD SWAP3 SWAP2 POP POP JUMP JUMPDEST PUSH1 0x0 PUSH7 0x697066733A2F2F PUSH1 0xC8 SHL DUP3 MSTORE DUP4 MLOAD PUSH2 0xFB9 DUP2 PUSH1 0x7 DUP6 ADD PUSH1 0x20 DUP9 ADD PUSH2 0x1262 JUMP JUMPDEST PUSH1 0x2F PUSH1 0xF8 SHL PUSH1 0x7 SWAP2 DUP5 ADD SWAP2 DUP3 ADD MSTORE DUP4 MLOAD PUSH2 0xFDA DUP2 PUSH1 0x8 DUP5 ADD PUSH1 0x20 DUP9 ADD PUSH2 0x1262 JUMP JUMPDEST ADD PUSH1 0x8 ADD SWAP5 SWAP4 POP POP POP POP JUMP JUMPDEST PUSH1 0x1 PUSH1 0x1 PUSH1 0xA0 SHL SUB SWAP2 SWAP1 SWAP2 AND DUP2 MSTORE PUSH1 0x20 ADD SWAP1 JUMP JUMPDEST PUSH1 0x1 PUSH1 0x1 PUSH1 0xA0 SHL SUB DUP6 DUP2 AND DUP3 MSTORE DUP5 AND PUSH1 0x20 DUP3 ADD MSTORE PUSH1 0x40 DUP2 ADD DUP4 SWAP1 MSTORE PUSH1 0x80 PUSH1 0x60 DUP3 ADD DUP2 SWAP1 MSTORE PUSH1 0x0 SWAP1 PUSH2 0x102D SWAP1 DUP4 ADD DUP5 PUSH2 0xF4F JUMP JUMPDEST SWAP7 SWAP6 POP POP POP POP POP POP JUMP JUMPDEST SWAP1 ISZERO ISZERO DUP2 MSTORE PUSH1 0x20 ADD SWAP1 JUMP JUMPDEST PUSH1 0x0 PUSH1 0x20 DUP3 MSTORE PUSH2 0xC32 PUSH1 0x20 DUP4 ADD DUP5 PUSH2 0xF4F JUMP JUMPDEST PUSH1 0x20 DUP1 DUP3 MSTORE PUSH1 0x3 SWAP1 DUP3 ADD MSTORE PUSH3 0x653131 PUSH1 0xE8 SHL PUSH1 0x40 DUP3 ADD MSTORE PUSH1 0x60 ADD SWAP1 JUMP JUMPDEST PUSH1 0x20 DUP1 DUP3 MSTORE PUSH1 0x3 SWAP1 DUP3 ADD MSTORE PUSH3 0x653133 PUSH1 0xE8 SHL PUSH1 0x40 DUP3 ADD MSTORE PUSH1 0x60 ADD SWAP1 JUMP JUMPDEST PUSH1 0x20 DUP1 DUP3 MSTORE PUSH1 0x3 SWAP1 DUP3 ADD MSTORE PUSH3 0x329919 PUSH1 0xE9 SHL PUSH1 0x40 DUP3 ADD MSTORE PUSH1 0x60 ADD SWAP1 JUMP JUMPDEST PUSH1 0x20 DUP1 DUP3 MSTORE PUSH1 0x3 SWAP1 DUP3 ADD MSTORE PUSH3 0x32991B PUSH1 0xE9 SHL PUSH1 0x40 DUP3 ADD MSTORE PUSH1 0x60 ADD SWAP1 JUMP JUMPDEST PUSH1 0x20 DUP1 DUP3 MSTORE PUSH1 0x3 SWAP1 DUP3 ADD MSTORE PUSH3 0x653139 PUSH1 0xE8 SHL PUSH1 0x40 DUP3 ADD MSTORE PUSH1 0x60 ADD SWAP1 JUMP JUMPDEST PUSH1 0x20 DUP1 DUP3 MSTORE PUSH1 0x3 SWAP1 DUP3 ADD MSTORE PUSH3 0xCA627 PUSH1 0xEB SHL PUSH1 0x40 DUP3 ADD MSTORE PUSH1 0x60 ADD SWAP1 JUMP JUMPDEST PUSH1 0x20 DUP1 DUP3 MSTORE PUSH1 0x3 SWAP1 DUP3 ADD MSTORE PUSH3 0x65313 PUSH1 0xEC SHL PUSH1 0x40 DUP3 ADD MSTORE PUSH1 0x60 ADD SWAP1 JUMP JUMPDEST PUSH1 0x20 DUP1 DUP3 MSTORE PUSH1 0x3 SWAP1 DUP3 ADD MSTORE PUSH3 0x194C4D PUSH1 0xEA SHL PUSH1 0x40 DUP3 ADD MSTORE PUSH1 0x60 ADD SWAP1 JUMP JUMPDEST PUSH1 0x20 DUP1 DUP3 MSTORE PUSH1 0x3 SWAP1 DUP3 ADD MSTORE PUSH3 0x653135 PUSH1 0xE8 SHL PUSH1 0x40 DUP3 ADD MSTORE PUSH1 0x60 ADD SWAP1 JUMP JUMPDEST PUSH1 0x20 DUP1 DUP3 MSTORE PUSH1 0x3 SWAP1 DUP3 ADD MSTORE PUSH3 0x32989B PUSH1 0xE9 SHL PUSH1 0x40 DUP3 ADD MSTORE PUSH1 0x60 ADD SWAP1 JUMP JUMPDEST PUSH1 0x20 DUP1 DUP3 MSTORE PUSH1 0x3 SWAP1 DUP3 ADD MSTORE PUSH3 0x653231 PUSH1 0xE8 SHL PUSH1 0x40 DUP3 ADD MSTORE PUSH1 0x60 ADD SWAP1 JUMP JUMPDEST PUSH1 0x20 DUP1 DUP3 MSTORE PUSH1 0x3 SWAP1 DUP3 ADD MSTORE PUSH3 0x65323 PUSH1 0xEC SHL PUSH1 0x40 DUP3 ADD MSTORE PUSH1 0x60 ADD SWAP1 JUMP JUMPDEST PUSH1 0x20 DUP1 DUP3 MSTORE PUSH1 0x3 SWAP1 DUP3 ADD MSTORE PUSH3 0x329899 PUSH1 0xE9 SHL PUSH1 0x40 DUP3 ADD MSTORE PUSH1 0x60 ADD SWAP1 JUMP JUMPDEST PUSH1 0x20 DUP1 DUP3 MSTORE PUSH1 0x3 SWAP1 DUP3 ADD MSTORE PUSH3 0x653237 PUSH1 0xE8 SHL PUSH1 0x40 DUP3 ADD MSTORE PUSH1 0x60 ADD SWAP1 JUMP JUMPDEST PUSH1 0x20 DUP1 DUP3 MSTORE PUSH1 0x3 SWAP1 DUP3 ADD MSTORE PUSH3 0x653137 PUSH1 0xE8 SHL PUSH1 0x40 DUP3 ADD MSTORE PUSH1 0x60 ADD SWAP1 JUMP JUMPDEST SWAP1 DUP2 MSTORE PUSH1 0x20 ADD SWAP1 JUMP JUMPDEST PUSH1 0xFF SWAP2 SWAP1 SWAP2 AND DUP2 MSTORE PUSH1 0x20 ADD SWAP1 JUMP JUMPDEST PUSH1 0x0 DUP3 NOT DUP3 GT ISZERO PUSH2 0x1232 JUMPI PUSH2 0x1232 PUSH2 0x134C JUMP JUMPDEST POP ADD SWAP1 JUMP JUMPDEST PUSH1 0x0 DUP3 PUSH2 0x1246 JUMPI PUSH2 0x1246 PUSH2 0x1362 JUMP JUMPDEST POP DIV SWAP1 JUMP JUMPDEST PUSH1 0x0 DUP3 DUP3 LT ISZERO PUSH2 0x125D JUMPI PUSH2 0x125D PUSH2 0x134C JUMP JUMPDEST POP SUB SWAP1 JUMP JUMPDEST PUSH1 0x0 JUMPDEST DUP4 DUP2 LT ISZERO PUSH2 0x127D JUMPI DUP2 DUP2 ADD MLOAD DUP4 DUP3 ADD MSTORE PUSH1 0x20 ADD PUSH2 0x1265 JUMP JUMPDEST DUP4 DUP2 GT ISZERO PUSH2 0x66E JUMPI POP POP PUSH1 0x0 SWAP2 ADD MSTORE JUMP JUMPDEST PUSH1 0x0 DUP2 PUSH2 0x129D JUMPI PUSH2 0x129D PUSH2 0x134C JUMP JUMPDEST POP PUSH1 0x0 NOT ADD SWAP1 JUMP JUMPDEST PUSH1 0x0 PUSH1 0xFF DUP3 AND DUP1 PUSH2 0x12B8 JUMPI PUSH2 0x12B8 PUSH2 0x134C JUMP JUMPDEST PUSH1 0x0 NOT ADD SWAP3 SWAP2 POP POP JUMP JUMPDEST PUSH1 0x2 DUP2 DIV PUSH1 0x1 DUP3 AND DUP1 PUSH2 0x12D6 JUMPI PUSH1 0x7F DUP3 AND SWAP2 POP JUMPDEST PUSH1 0x20 DUP3 LT DUP2 EQ ISZERO PUSH2 0x12F7 JUMPI PUSH4 0x4E487B71 PUSH1 0xE0 SHL PUSH1 0x0 MSTORE PUSH1 0x22 PUSH1 0x4 MSTORE PUSH1 0x24 PUSH1 0x0 REVERT JUMPDEST POP SWAP2 SWAP1 POP JUMP JUMPDEST PUSH1 0x0 PUSH1 0x0 NOT DUP3 EQ ISZERO PUSH2 0x1311 JUMPI PUSH2 0x1311 PUSH2 0x134C JUMP JUMPDEST POP PUSH1 0x1 ADD SWAP1 JUMP JUMPDEST PUSH1 0x0 PUSH1 0xFF DUP3 AND PUSH1 0xFF DUP2 EQ ISZERO PUSH2 0x132F JUMPI PUSH2 0x132F PUSH2 0x134C JUMP JUMPDEST PUSH1 0x1 ADD SWAP3 SWAP2 POP POP JUMP JUMPDEST PUSH1 0x0 DUP3 PUSH2 0x1347 JUMPI PUSH2 0x1347 PUSH2 0x1362 JUMP JUMPDEST POP MOD SWAP1 JUMP JUMPDEST PUSH4 0x4E487B71 PUSH1 0xE0 SHL PUSH1 0x0 MSTORE PUSH1 0x11 PUSH1 0x4 MSTORE PUSH1 0x24 PUSH1 0x0 REVERT JUMPDEST PUSH4 0x4E487B71 PUSH1 0xE0 SHL PUSH1 0x0 MSTORE PUSH1 0x12 PUSH1 0x4 MSTORE PUSH1 0x24 PUSH1 0x0 REVERT JUMPDEST PUSH4 0x4E487B71 PUSH1 0xE0 SHL PUSH1 0x0 MSTORE PUSH1 0x41 PUSH1 0x4 MSTORE PUSH1 0x24 PUSH1 0x0 REVERT JUMPDEST PUSH1 0x1 PUSH1 0x1 PUSH1 0xE0 SHL SUB NOT DUP2 AND DUP2 EQ PUSH2 0x13A4 JUMPI PUSH1 0x0 DUP1 REVERT JUMPDEST POP JUMP INVALID LOG2 PUSH5 0x6970667358 0x22 SLT KECCAK256 0xEC EXTCODEHASH NOT 0x5D DUP2 EXTCODEHASH CHAINID 0x2A STATICCALL 0xC9 0xC2 0x48 0xEA 0xD5 SIGNEXTEND PUSH14 0xDF3C8FBDB04584CED269850B4866 0xDF MSTORE8 PUSH5 0x736F6C6343 STOP ADDMOD STOP STOP CALLER MLOAD PUSH14 0x65627A546D316E6369674C395733 GASLIMIT PUSH22 0x65766E38677167374E5346513173366851784D356D52 DIFFICULTY PUSH24 0x6A664C500000000000000000000000000000000000000000 "},"methodIdentifiers":{"MAX_SSK()":"686e1079","approve(address,uint256)":"095ea7b3","balanceOf(address)":"70a08231","baseURI()":"6c0360eb","getApproved(uint256)":"081812fc","isApprovedForAll(address,address)":"e985e9c5","mintedQty(address)":"cfb15ef0","name()":"06fdde03","ownerOf(uint256)":"6352211e","safeTransferFrom(address,address,uint256)":"42842e0e","safeTransferFrom(address,address,uint256,bytes)":"b88d4fde","setApprovalForAll(address,bool)":"a22cb465","supportsInterface(bytes4)":"01ffc9a7","symbol()":"95d89b41","tokenURI(uint256)":"c87b56dd","tokensMinted()":"6de9f32b","totalSupply()":"18160ddd","transferFrom(address,address,uint256)":"23b872dd","winner(address)":"2ad95786","winnersCount()":"49713811"}}}}}