{
  "_format": "hh-sol-artifact-1",
  "contractName": "ERC721",
  "sourceName": "contracts/swimskin.sol",
  "abi": [
    {
      "inputs": [
        {
          "internalType": "string",
          "name": "name_",
          "type": "string"
        },
        {
          "internalType": "string",
          "name": "symbol_",
          "type": "string"
        }
      ],
      "stateMutability": "nonpayable",
      "type": "constructor"
    },
    {
      "anonymous": false,
      "inputs": [
        {
          "indexed": true,
          "internalType": "address",
          "name": "owner",
          "type": "address"
        },
        {
          "indexed": true,
          "internalType": "address",
          "name": "approved",
          "type": "address"
        },
        {
          "indexed": true,
          "internalType": "uint256",
          "name": "tokenId",
          "type": "uint256"
        }
      ],
      "name": "Approval",
      "type": "event"
    },
    {
      "anonymous": false,
      "inputs": [
        {
          "indexed": true,
          "internalType": "address",
          "name": "owner",
          "type": "address"
        },
        {
          "indexed": true,
          "internalType": "address",
          "name": "operator",
          "type": "address"
        },
        {
          "indexed": false,
          "internalType": "bool",
          "name": "approved",
          "type": "bool"
        }
      ],
      "name": "ApprovalForAll",
      "type": "event"
    },
    {
      "anonymous": false,
      "inputs": [
        {
          "indexed": true,
          "internalType": "address",
          "name": "from",
          "type": "address"
        },
        {
          "indexed": true,
          "internalType": "address",
          "name": "to",
          "type": "address"
        },
        {
          "indexed": true,
          "internalType": "uint256",
          "name": "tokenId",
          "type": "uint256"
        }
      ],
      "name": "Transfer",
      "type": "event"
    },
    {
      "inputs": [],
      "name": "MAX_SSK",
      "outputs": [
        {
          "internalType": "uint256",
          "name": "",
          "type": "uint256"
        }
      ],
      "stateMutability": "view",
      "type": "function"
    },
    {
      "inputs": [
        {
          "internalType": "address",
          "name": "to",
          "type": "address"
        },
        {
          "internalType": "uint256",
          "name": "tokenId",
          "type": "uint256"
        }
      ],
      "name": "approve",
      "outputs": [],
      "stateMutability": "nonpayable",
      "type": "function"
    },
    {
      "inputs": [
        {
          "internalType": "address",
          "name": "owner",
          "type": "address"
        }
      ],
      "name": "balanceOf",
      "outputs": [
        {
          "internalType": "uint256",
          "name": "",
          "type": "uint256"
        }
      ],
      "stateMutability": "view",
      "type": "function"
    },
    {
      "inputs": [],
      "name": "baseURI",
      "outputs": [
        {
          "internalType": "string",
          "name": "",
          "type": "string"
        }
      ],
      "stateMutability": "view",
      "type": "function"
    },
    {
      "inputs": [
        {
          "internalType": "uint256",
          "name": "tokenId",
          "type": "uint256"
        }
      ],
      "name": "getApproved",
      "outputs": [
        {
          "internalType": "address",
          "name": "",
          "type": "address"
        }
      ],
      "stateMutability": "view",
      "type": "function"
    },
    {
      "inputs": [
        {
          "internalType": "address",
          "name": "owner",
          "type": "address"
        },
        {
          "internalType": "address",
          "name": "operator",
          "type": "address"
        }
      ],
      "name": "isApprovedForAll",
      "outputs": [
        {
          "internalType": "bool",
          "name": "",
          "type": "bool"
        }
      ],
      "stateMutability": "view",
      "type": "function"
    },
    {
      "inputs": [
        {
          "internalType": "address",
          "name": "",
          "type": "address"
        }
      ],
      "name": "mintedQty",
      "outputs": [
        {
          "internalType": "uint8",
          "name": "",
          "type": "uint8"
        }
      ],
      "stateMutability": "view",
      "type": "function"
    },
    {
      "inputs": [],
      "name": "name",
      "outputs": [
        {
          "internalType": "string",
          "name": "",
          "type": "string"
        }
      ],
      "stateMutability": "view",
      "type": "function"
    },
    {
      "inputs": [
        {
          "internalType": "uint256",
          "name": "tokenId",
          "type": "uint256"
        }
      ],
      "name": "ownerOf",
      "outputs": [
        {
          "internalType": "address",
          "name": "",
          "type": "address"
        }
      ],
      "stateMutability": "view",
      "type": "function"
    },
    {
      "inputs": [
        {
          "internalType": "address",
          "name": "from",
          "type": "address"
        },
        {
          "internalType": "address",
          "name": "to",
          "type": "address"
        },
        {
          "internalType": "uint256",
          "name": "tokenId",
          "type": "uint256"
        }
      ],
      "name": "safeTransferFrom",
      "outputs": [],
      "stateMutability": "nonpayable",
      "type": "function"
    },
    {
      "inputs": [
        {
          "internalType": "address",
          "name": "from",
          "type": "address"
        },
        {
          "internalType": "address",
          "name": "to",
          "type": "address"
        },
        {
          "internalType": "uint256",
          "name": "tokenId",
          "type": "uint256"
        },
        {
          "internalType": "bytes",
          "name": "_data",
          "type": "bytes"
        }
      ],
      "name": "safeTransferFrom",
      "outputs": [],
      "stateMutability": "nonpayable",
      "type": "function"
    },
    {
      "inputs": [
        {
          "internalType": "address",
          "name": "operator",
          "type": "address"
        },
        {
          "internalType": "bool",
          "name": "approved",
          "type": "bool"
        }
      ],
      "name": "setApprovalForAll",
      "outputs": [],
      "stateMutability": "nonpayable",
      "type": "function"
    },
    {
      "inputs": [
        {
          "internalType": "bytes4",
          "name": "interfaceId",
          "type": "bytes4"
        }
      ],
      "name": "supportsInterface",
      "outputs": [
        {
          "internalType": "bool",
          "name": "",
          "type": "bool"
        }
      ],
      "stateMutability": "view",
      "type": "function"
    },
    {
      "inputs": [],
      "name": "symbol",
      "outputs": [
        {
          "internalType": "string",
          "name": "",
          "type": "string"
        }
      ],
      "stateMutability": "view",
      "type": "function"
    },
    {
      "inputs": [
        {
          "internalType": "uint256",
          "name": "tokenId",
          "type": "uint256"
        }
      ],
      "name": "tokenURI",
      "outputs": [
        {
          "internalType": "string",
          "name": "",
          "type": "string"
        }
      ],
      "stateMutability": "view",
      "type": "function"
    },
    {
      "inputs": [],
      "name": "tokensMinted",
      "outputs": [
        {
          "internalType": "uint256",
          "name": "",
          "type": "uint256"
        }
      ],
      "stateMutability": "view",
      "type": "function"
    },
    {
      "inputs": [],
      "name": "totalSupply",
      "outputs": [
        {
          "internalType": "uint256",
          "name": "",
          "type": "uint256"
        }
      ],
      "stateMutability": "view",
      "type": "function"
    },
    {
      "inputs": [
        {
          "internalType": "address",
          "name": "from",
          "type": "address"
        },
        {
          "internalType": "address",
          "name": "to",
          "type": "address"
        },
        {
          "internalType": "uint256",
          "name": "tokenId",
          "type": "uint256"
        }
      ],
      "name": "transferFrom",
      "outputs": [],
      "stateMutability": "nonpayable",
      "type": "function"
    },
    {
      "inputs": [
        {
          "internalType": "address",
          "name": "",
          "type": "address"
        }
      ],
      "name": "winner",
      "outputs": [
        {
          "internalType": "uint8",
          "name": "",
          "type": "uint8"
        }
      ],
      "stateMutability": "view",
      "type": "function"
    },
    {
      "inputs": [],
      "name": "winnersCount",
      "outputs": [
        {
          "internalType": "uint8",
          "name": "",
          "type": "uint8"
        }
      ],
      "stateMutability": "view",
      "type": "function"
    }
  ],
  "bytecode": "0x6009805460ff191690556000600a5560e0604052602e6080818152906200175460a03980516200003891600e9160209091019062000140565b503480156200004657600080fd5b506040516200178238038062001782833981016040819052620000699162000291565b6200007b6301ffc9a760e01b620000e5565b81516200009090600b90602085019062000140565b508051620000a690600c90602084019062000140565b50620000b96380ac58cd60e01b620000e5565b620000cb635b5e139f60e01b620000e5565b620000dd63780e9d6360e01b620000e5565b505062000367565b6001600160e01b031980821614156200011b5760405162461bcd60e51b81526004016200011290620002f8565b60405180910390fd5b6001600160e01b0319166000908152602081905260409020805460ff19166001179055565b8280546200014e9062000314565b90600052602060002090601f016020900481019282620001725760008555620001bd565b82601f106200018d57805160ff1916838001178555620001bd565b82800160010185558215620001bd579182015b82811115620001bd578251825591602001919060010190620001a0565b50620001cb929150620001cf565b5090565b5b80821115620001cb5760008155600101620001d0565b600082601f830112620001f7578081fd5b81516001600160401b038082111562000214576200021462000351565b6040516020601f8401601f19168201810183811183821017156200023c576200023c62000351565b604052838252858401810187101562000253578485fd5b8492505b8383101562000276578583018101518284018201529182019162000257565b838311156200028757848185840101525b5095945050505050565b60008060408385031215620002a4578182fd5b82516001600160401b0380821115620002bb578384fd5b620002c986838701620001e6565b93506020850151915080821115620002df578283fd5b50620002ee85828601620001e6565b9150509250929050565b602080825260029082015261329b60f11b604082015260600190565b6002810460018216806200032957607f821691505b602082108114156200034b57634e487b7160e01b600052602260045260246000fd5b50919050565b634e487b7160e01b600052604160045260246000fd5b6113dd80620003776000396000f3fe608060405234801561001057600080fd5b506004361061012c5760003560e01c8063686e1079116100ad578063a22cb46511610071578063a22cb4651461024d578063b88d4fde14610260578063c87b56dd14610273578063cfb15ef014610286578063e985e9c5146102995761012c565b8063686e10791461021a5780636c0360eb146102225780636de9f32b1461022a57806370a082311461023257806395d89b41146102455761012c565b806323b872dd116100f457806323b872dd146101b95780632ad95786146101cc57806342842e0e146101ec57806349713811146101ff5780636352211e146102075761012c565b806301ffc9a71461013157806306fdde031461015a578063081812fc1461016f578063095ea7b31461018f57806318160ddd146101a4575b600080fd5b61014461013f366004610eff565b6102ac565b6040516101519190611037565b60405180910390f35b6101626102cf565b6040516101519190611042565b61018261017d366004610f37565b610361565b6040516101519190610fe6565b6101a261019d366004610ed6565b6103ad565b005b6101ac610445565b6040516101519190611208565b6101a26101c7366004610d95565b61044b565b6101df6101da366004610d49565b610483565b6040516101519190611211565b6101a26101fa366004610d95565b610498565b6101df6104b3565b610182610215366004610f37565b6104bc565b6101ac6104f9565b6101626104ff565b6101ac61050e565b6101ac610240366004610d49565b610514565b610162610558565b6101a261025b366004610e9c565b610567565b6101a261026e366004610dd0565b610635565b610162610281366004610f37565b610674565b6101df610294366004610d49565b6106d9565b6101446102a7366004610d63565b6106ee565b6001600160e01b0319811660009081526020819052604090205460ff165b919050565b6060600b80546102de906112c2565b80601f016020809104026020016040519081016040528092919081815260200182805461030a906112c2565b80156103575780601f1061032c57610100808354040283529160200191610357565b820191906000526020600020905b81548152906001019060200180831161033a57829003601f168201915b5050505050905090565b600061036c8261071c565b6103915760405162461bcd60e51b8152600401610388906111eb565b60405180910390fd5b506000908152600160205260409020546001600160a01b031690565b60006103b8826104bc565b9050806001600160a01b0316836001600160a01b031614156103ec5760405162461bcd60e51b81526004016103889061113d565b806001600160a01b03166103fe610731565b6001600160a01b0316148061041a575061041a816102a7610731565b6104365760405162461bcd60e51b81526004016103889061115a565b6104408383610735565b505050565b600a5490565b61045c610456610731565b826107a3565b6104785760405162461bcd60e51b8152600401610388906110c9565b610440838383610828565b60076020526000908152604090205460ff1681565b61044083838360405180602001604052806000815250610635565b60095460ff1681565b60008082116104dd5760405162461bcd60e51b815260040161038890611072565b506000908152600460205260409020546001600160a01b031690565b600d5481565b6060600e80546102de906112c2565b600a5481565b60006001600160a01b03821661053c5760405162461bcd60e51b8152600401610388906111b1565b506001600160a01b031660009081526003602052604090205490565b6060600c80546102de906112c2565b61056f610731565b6001600160a01b0316826001600160a01b031614156105a05760405162461bcd60e51b8152600401610388906110e6565b80600260006105ad610731565b6001600160a01b03908116825260208083019390935260409182016000908120918716808252919093529120805460ff1916921515929092179091556105f1610731565b6001600160a01b03167f17307eab39ab6107e8899845ad3d59bd9653f200f220920489ca2b5937696c31836040516106299190611037565b60405180910390a35050565b610646610640610731565b836107a3565b6106625760405162461bcd60e51b815260040161038890611194565b61066e848484846109ed565b50505050565b606061067f8261071c565b61069b5760405162461bcd60e51b815260040161038890611120565b60006106a56104ff565b9050806106b184610a20565b6040516020016106c2929190610f97565b604051602081830303815290604052915050919050565b60086020526000908152604090205460ff1681565b6001600160a01b03918216600090815260026020908152604080832093909416825291909152205460ff1690565b60009081526005602052604090205460ff1690565b3390565b600081815260016020526040902080546001600160a01b0319166001600160a01b038416908117909155819061076a826104bc565b6001600160a01b03167f8c5be1e5ebec7d5bd14f71427d1e84f3dd0314c0f7b2291e5b200ac8c7c3b92560405160405180910390a45050565b60006107ae8261071c565b6107ca5760405162461bcd60e51b81526004016103889061108f565b60006107d5836104bc565b9050806001600160a01b0316846001600160a01b031614806108105750836001600160a01b031661080584610361565b6001600160a01b0316145b80610820575061082081856106ee565b949350505050565b826001600160a01b031661083b826104bc565b6001600160a01b0316146108615760405162461bcd60e51b8152600401610388906110ac565b6001600160a01b0382166108875760405162461bcd60e51b8152600401610388906111ce565b610892838383610440565b61089d600082610735565b6001600160a01b03831660009081526003602052604081208054916108c18361128e565b9091555050600081815260046020908152604080832080546001600160a01b0319166001600160a01b038716908117909155835260039091528120805491610908836112fd565b909155505060008181526006602052604090205460ff16156109a7576001600160a01b0383166000908152600760205260408120805460ff169161094b836112a5565b82546101009290920a60ff8181021990931691831602179091556001600160a01b03841660009081526007602052604081208054909216925061098d83611318565b91906101000a81548160ff021916908360ff160217905550505b80826001600160a01b0316846001600160a01b03167fddf252ad1be2c89b69c2b068fc378daa952ba7f163c4a11628f55a4df523b3ef60405160405180910390a4505050565b6109f8848484610828565b610a0484848484610b3b565b61066e5760405162461bcd60e51b815260040161038890611177565b606081610a4557506040805180820190915260018152600360fc1b60208201526102ca565b8160005b8115610a6f5780610a59816112fd565b9150610a689050600a83611237565b9150610a49565b60008167ffffffffffffffff811115610a9857634e487b7160e01b600052604160045260246000fd5b6040519080825280601f01601f191660200182016040528015610ac2576020820181803683370190505b5090505b841561082057610ad760018361124b565b9150610ae4600a86611338565b610aef90603061121f565b60f81b818381518110610b1257634e487b7160e01b600052603260045260246000fd5b60200101906001600160f81b031916908160001a905350610b34600a86611237565b9450610ac6565b6000610b4f846001600160a01b0316610c1a565b610b5b57506001610820565b6000610be3630a85bd0160e11b610b70610731565b888787604051602401610b869493929190610ffa565b60408051601f19818403018152918152602080830180516001600160e01b03166001600160e01b031990951694909417909352805180820190915260038152620ca64760eb1b928101929092526001600160a01b03881691610c20565b9050600081806020019051810190610bfb9190610f1b565b6001600160e01b031916630a85bd0160e11b1492505050949350505050565b3b151590565b6060610c2f8484600085610c39565b90505b9392505050565b606082471015610c5b5760405162461bcd60e51b815260040161038890611103565b610c6485610c1a565b610c805760405162461bcd60e51b815260040161038890611055565b600080866001600160a01b03168587604051610c9c9190610f7b565b60006040518083038185875af1925050503d8060008114610cd9576040519150601f19603f3d011682016040523d82523d6000602084013e610cde565b606091505b5091509150610cee828286610cf9565b979650505050505050565b60608315610d08575081610c32565b825115610d185782518084602001fd5b8160405162461bcd60e51b81526004016103889190611042565b80356001600160a01b03811681146102ca57600080fd5b600060208284031215610d5a578081fd5b610c3282610d32565b60008060408385031215610d75578081fd5b610d7e83610d32565b9150610d8c60208401610d32565b90509250929050565b600080600060608486031215610da9578081fd5b610db284610d32565b9250610dc060208501610d32565b9150604084013590509250925092565b60008060008060808587031215610de5578081fd5b610dee85610d32565b93506020610dfd818701610d32565b935060408601359250606086013567ffffffffffffffff80821115610e20578384fd5b818801915088601f830112610e33578384fd5b813581811115610e4557610e45611378565b604051601f8201601f1916810185018381118282101715610e6857610e68611378565b60405281815283820185018b1015610e7e578586fd5b81858501868301379081019093019390935250939692955090935050565b60008060408385031215610eae578182fd5b610eb783610d32565b915060208301358015158114610ecb578182fd5b809150509250929050565b60008060408385031215610ee8578182fd5b610ef183610d32565b946020939093013593505050565b600060208284031215610f10578081fd5b8135610c328161138e565b600060208284031215610f2c578081fd5b8151610c328161138e565b600060208284031215610f48578081fd5b5035919050565b60008151808452610f67816020860160208601611262565b601f01601f19169290920160200192915050565b60008251610f8d818460208701611262565b9190910192915050565b600066697066733a2f2f60c81b82528351610fb9816007850160208801611262565b602f60f81b6007918401918201528351610fda816008840160208801611262565b01600801949350505050565b6001600160a01b0391909116815260200190565b6001600160a01b038581168252841660208201526040810183905260806060820181905260009061102d90830184610f4f565b9695505050505050565b901515815260200190565b600060208252610c326020830184610f4f565b60208082526003908201526265313160e81b604082015260600190565b60208082526003908201526265313360e81b604082015260600190565b60208082526003908201526232991960e91b604082015260600190565b60208082526003908201526232991b60e91b604082015260600190565b60208082526003908201526265313960e81b604082015260600190565b6020808252600390820152620ca62760eb1b604082015260600190565b60208082526003908201526206531360ec1b604082015260600190565b602080825260039082015262194c4d60ea1b604082015260600190565b60208082526003908201526265313560e81b604082015260600190565b60208082526003908201526232989b60e91b604082015260600190565b60208082526003908201526265323160e81b604082015260600190565b60208082526003908201526206532360ec1b604082015260600190565b60208082526003908201526232989960e91b604082015260600190565b60208082526003908201526265323760e81b604082015260600190565b60208082526003908201526265313760e81b604082015260600190565b90815260200190565b60ff91909116815260200190565b600082198211156112325761123261134c565b500190565b60008261124657611246611362565b500490565b60008282101561125d5761125d61134c565b500390565b60005b8381101561127d578181015183820152602001611265565b8381111561066e5750506000910152565b60008161129d5761129d61134c565b506000190190565b600060ff8216806112b8576112b861134c565b6000190192915050565b6002810460018216806112d657607f821691505b602082108114156112f757634e487b7160e01b600052602260045260246000fd5b50919050565b60006000198214156113115761131161134c565b5060010190565b600060ff821660ff81141561132f5761132f61134c565b60010192915050565b60008261134757611347611362565b500690565b634e487b7160e01b600052601160045260246000fd5b634e487b7160e01b600052601260045260246000fd5b634e487b7160e01b600052604160045260246000fd5b6001600160e01b0319811681146113a457600080fd5b5056fea2646970667358221220ec3f195d813f462afac9c248ead50b6ddf3c8fbdb04584ced269850b4866df5364736f6c63430008000033516d65627a546d316e6369674c395733457565766e38677167374e5346513173366851784d356d5244776a664c50",
  "linkReferences": {},
  "deployedLinkReferences": {}
}