{
  "_format": "hh-sol-artifact-1",
  "contractName": "ERC721",
  "sourceName": "contracts/swimskin.sol",
  "abi": [
    {
      "inputs": [
        {
          "internalType": "string",
          "name": "name_",
          "type": "string"
        },
        {
          "internalType": "string",
          "name": "symbol_",
          "type": "string"
        }
      ],
      "stateMutability": "nonpayable",
      "type": "constructor"
    },
    {
      "anonymous": false,
      "inputs": [
        {
          "indexed": true,
          "internalType": "address",
          "name": "owner",
          "type": "address"
        },
        {
          "indexed": true,
          "internalType": "address",
          "name": "approved",
          "type": "address"
        },
        {
          "indexed": true,
          "internalType": "uint256",
          "name": "tokenId",
          "type": "uint256"
        }
      ],
      "name": "Approval",
      "type": "event"
    },
    {
      "anonymous": false,
      "inputs": [
        {
          "indexed": true,
          "internalType": "address",
          "name": "owner",
          "type": "address"
        },
        {
          "indexed": true,
          "internalType": "address",
          "name": "operator",
          "type": "address"
        },
        {
          "indexed": false,
          "internalType": "bool",
          "name": "approved",
          "type": "bool"
        }
      ],
      "name": "ApprovalForAll",
      "type": "event"
    },
    {
      "anonymous": false,
      "inputs": [
        {
          "indexed": true,
          "internalType": "address",
          "name": "from",
          "type": "address"
        },
        {
          "indexed": true,
          "internalType": "address",
          "name": "to",
          "type": "address"
        },
        {
          "indexed": true,
          "internalType": "uint256",
          "name": "tokenId",
          "type": "uint256"
        }
      ],
      "name": "Transfer",
      "type": "event"
    },
    {
      "inputs": [],
      "name": "MAX_SSK",
      "outputs": [
        {
          "internalType": "uint256",
          "name": "",
          "type": "uint256"
        }
      ],
      "stateMutability": "view",
      "type": "function"
    },
    {
      "inputs": [
        {
          "internalType": "address",
          "name": "to",
          "type": "address"
        },
        {
          "internalType": "uint256",
          "name": "tokenId",
          "type": "uint256"
        }
      ],
      "name": "approve",
      "outputs": [],
      "stateMutability": "nonpayable",
      "type": "function"
    },
    {
      "inputs": [
        {
          "internalType": "address",
          "name": "owner",
          "type": "address"
        }
      ],
      "name": "balanceOf",
      "outputs": [
        {
          "internalType": "uint256",
          "name": "",
          "type": "uint256"
        }
      ],
      "stateMutability": "view",
      "type": "function"
    },
    {
      "inputs": [],
      "name": "baseURI",
      "outputs": [
        {
          "internalType": "string",
          "name": "",
          "type": "string"
        }
      ],
      "stateMutability": "view",
      "type": "function"
    },
    {
      "inputs": [
        {
          "internalType": "uint256",
          "name": "tokenId",
          "type": "uint256"
        }
      ],
      "name": "getApproved",
      "outputs": [
        {
          "internalType": "address",
          "name": "",
          "type": "address"
        }
      ],
      "stateMutability": "view",
      "type": "function"
    },
    {
      "inputs": [
        {
          "internalType": "address",
          "name": "owner",
          "type": "address"
        },
        {
          "internalType": "address",
          "name": "operator",
          "type": "address"
        }
      ],
      "name": "isApprovedForAll",
      "outputs": [
        {
          "internalType": "bool",
          "name": "",
          "type": "bool"
        }
      ],
      "stateMutability": "view",
      "type": "function"
    },
    {
      "inputs": [
        {
          "internalType": "address",
          "name": "",
          "type": "address"
        }
      ],
      "name": "mintedQty",
      "outputs": [
        {
          "internalType": "uint8",
          "name": "",
          "type": "uint8"
        }
      ],
      "stateMutability": "view",
      "type": "function"
    },
    {
      "inputs": [],
      "name": "name",
      "outputs": [
        {
          "internalType": "string",
          "name": "",
          "type": "string"
        }
      ],
      "stateMutability": "view",
      "type": "function"
    },
    {
      "inputs": [
        {
          "internalType": "uint256",
          "name": "tokenId",
          "type": "uint256"
        }
      ],
      "name": "ownerOf",
      "outputs": [
        {
          "internalType": "address",
          "name": "",
          "type": "address"
        }
      ],
      "stateMutability": "view",
      "type": "function"
    },
    {
      "inputs": [
        {
          "internalType": "address",
          "name": "from",
          "type": "address"
        },
        {
          "internalType": "address",
          "name": "to",
          "type": "address"
        },
        {
          "internalType": "uint256",
          "name": "tokenId",
          "type": "uint256"
        }
      ],
      "name": "safeTransferFrom",
      "outputs": [],
      "stateMutability": "nonpayable",
      "type": "function"
    },
    {
      "inputs": [
        {
          "internalType": "address",
          "name": "from",
          "type": "address"
        },
        {
          "internalType": "address",
          "name": "to",
          "type": "address"
        },
        {
          "internalType": "uint256",
          "name": "tokenId",
          "type": "uint256"
        },
        {
          "internalType": "bytes",
          "name": "_data",
          "type": "bytes"
        }
      ],
      "name": "safeTransferFrom",
      "outputs": [],
      "stateMutability": "nonpayable",
      "type": "function"
    },
    {
      "inputs": [
        {
          "internalType": "address",
          "name": "operator",
          "type": "address"
        },
        {
          "internalType": "bool",
          "name": "approved",
          "type": "bool"
        }
      ],
      "name": "setApprovalForAll",
      "outputs": [],
      "stateMutability": "nonpayable",
      "type": "function"
    },
    {
      "inputs": [
        {
          "internalType": "bytes4",
          "name": "interfaceId",
          "type": "bytes4"
        }
      ],
      "name": "supportsInterface",
      "outputs": [
        {
          "internalType": "bool",
          "name": "",
          "type": "bool"
        }
      ],
      "stateMutability": "view",
      "type": "function"
    },
    {
      "inputs": [],
      "name": "symbol",
      "outputs": [
        {
          "internalType": "string",
          "name": "",
          "type": "string"
        }
      ],
      "stateMutability": "view",
      "type": "function"
    },
    {
      "inputs": [
        {
          "internalType": "uint256",
          "name": "tokenId",
          "type": "uint256"
        }
      ],
      "name": "tokenURI",
      "outputs": [
        {
          "internalType": "string",
          "name": "",
          "type": "string"
        }
      ],
      "stateMutability": "view",
      "type": "function"
    },
    {
      "inputs": [],
      "name": "tokensMinted",
      "outputs": [
        {
          "internalType": "uint256",
          "name": "",
          "type": "uint256"
        }
      ],
      "stateMutability": "view",
      "type": "function"
    },
    {
      "inputs": [],
      "name": "totalSupply",
      "outputs": [
        {
          "internalType": "uint256",
          "name": "",
          "type": "uint256"
        }
      ],
      "stateMutability": "view",
      "type": "function"
    },
    {
      "inputs": [
        {
          "internalType": "address",
          "name": "from",
          "type": "address"
        },
        {
          "internalType": "address",
          "name": "to",
          "type": "address"
        },
        {
          "internalType": "uint256",
          "name": "tokenId",
          "type": "uint256"
        }
      ],
      "name": "transferFrom",
      "outputs": [],
      "stateMutability": "nonpayable",
      "type": "function"
    }
  ],
  "bytecode": "0x600060075560e0604052602e6080818152906200162460a03980516200002e91600b9160209091019062000136565b503480156200003c57600080fd5b5060405162001652380380620016528339810160408190526200005f9162000287565b620000716301ffc9a760e01b620000db565b81516200008690600890602085019062000136565b5080516200009c90600990602084019062000136565b50620000af6380ac58cd60e01b620000db565b620000c1635b5e139f60e01b620000db565b620000d363780e9d6360e01b620000db565b50506200035d565b6001600160e01b03198082161415620001115760405162461bcd60e51b81526004016200010890620002ee565b60405180910390fd5b6001600160e01b0319166000908152602081905260409020805460ff19166001179055565b82805462000144906200030a565b90600052602060002090601f016020900481019282620001685760008555620001b3565b82601f106200018357805160ff1916838001178555620001b3565b82800160010185558215620001b3579182015b82811115620001b357825182559160200191906001019062000196565b50620001c1929150620001c5565b5090565b5b80821115620001c15760008155600101620001c6565b600082601f830112620001ed578081fd5b81516001600160401b03808211156200020a576200020a62000347565b6040516020601f8401601f191682018101838111838210171562000232576200023262000347565b604052838252858401810187101562000249578485fd5b8492505b838310156200026c57858301810151828401820152918201916200024d565b838311156200027d57848185840101525b5095945050505050565b600080604083850312156200029a578182fd5b82516001600160401b0380821115620002b1578384fd5b620002bf86838701620001dc565b93506020850151915080821115620002d5578283fd5b50620002e485828601620001dc565b9150509250929050565b602080825260029082015261329b60f11b604082015260600190565b6002810460018216806200031f57607f821691505b602082108114156200034157634e487b7160e01b600052602260045260246000fd5b50919050565b634e487b7160e01b600052604160045260246000fd5b6112b7806200036d6000396000f3fe608060405234801561001057600080fd5b50600436106101165760003560e01c80636c0360eb116100a2578063a22cb46511610071578063a22cb4651461020f578063b88d4fde14610222578063c87b56dd14610235578063cfb15ef014610248578063e985e9c51461026857610116565b80636c0360eb146101e45780636de9f32b146101ec57806370a08231146101f457806395d89b411461020757610116565b806318160ddd116100e957806318160ddd1461018e57806323b872dd146101a357806342842e0e146101b65780636352211e146101c9578063686e1079146101dc57610116565b806301ffc9a71461011b57806306fdde0314610144578063081812fc14610159578063095ea7b314610179575b600080fd5b61012e610129366004610e16565b61027b565b60405161013b9190610f4e565b60405180910390f35b61014c61029e565b60405161013b9190610f59565b61016c610167366004610e4e565b610330565b60405161013b9190610efd565b61018c610187366004610ded565b61037c565b005b610196610414565b60405161013b919061111f565b61018c6101b1366004610cac565b61041a565b61018c6101c4366004610cac565b610452565b61016c6101d7366004610e4e565b61046d565b6101966104aa565b61014c6104b0565b6101966104bf565b610196610202366004610c60565b6104c5565b61014c610509565b61018c61021d366004610db3565b610518565b61018c610230366004610ce7565b6105e6565b61014c610243366004610e4e565b610625565b61025b610256366004610c60565b61068a565b60405161013b9190611128565b61012e610276366004610c7a565b61069f565b6001600160e01b0319811660009081526020819052604090205460ff165b919050565b6060600880546102ad906111bc565b80601f01602080910402602001604051908101604052809291908181526020018280546102d9906111bc565b80156103265780601f106102fb57610100808354040283529160200191610326565b820191906000526020600020905b81548152906001019060200180831161030957829003601f168201915b5050505050905090565b600061033b826106cd565b6103605760405162461bcd60e51b815260040161035790611102565b60405180910390fd5b506000908152600160205260409020546001600160a01b031690565b60006103878261046d565b9050806001600160a01b0316836001600160a01b031614156103bb5760405162461bcd60e51b815260040161035790611054565b806001600160a01b03166103cd6106e2565b6001600160a01b031614806103e957506103e9816102766106e2565b6104055760405162461bcd60e51b815260040161035790611071565b61040f83836106e6565b505050565b60075490565b61042b6104256106e2565b82610754565b6104475760405162461bcd60e51b815260040161035790610fe0565b61040f8383836107d9565b61040f838383604051806020016040528060008152506105e6565b600080821161048e5760405162461bcd60e51b815260040161035790610f89565b506000908152600460205260409020546001600160a01b031690565b600a5481565b6060600b80546102ad906111bc565b60075481565b60006001600160a01b0382166104ed5760405162461bcd60e51b8152600401610357906110c8565b506001600160a01b031660009081526003602052604090205490565b6060600980546102ad906111bc565b6105206106e2565b6001600160a01b0316826001600160a01b031614156105515760405162461bcd60e51b815260040161035790610ffd565b806002600061055e6106e2565b6001600160a01b03908116825260208083019390935260409182016000908120918716808252919093529120805460ff1916921515929092179091556105a26106e2565b6001600160a01b03167f17307eab39ab6107e8899845ad3d59bd9653f200f220920489ca2b5937696c31836040516105da9190610f4e565b60405180910390a35050565b6105f76105f16106e2565b83610754565b6106135760405162461bcd60e51b8152600401610357906110ab565b61061f84848484610904565b50505050565b6060610630826106cd565b61064c5760405162461bcd60e51b815260040161035790611037565b60006106566104b0565b90508061066284610937565b604051602001610673929190610eae565b604051602081830303815290604052915050919050565b60066020526000908152604090205460ff1681565b6001600160a01b03918216600090815260026020908152604080832093909416825291909152205460ff1690565b60009081526005602052604090205460ff1690565b3390565b600081815260016020526040902080546001600160a01b0319166001600160a01b038416908117909155819061071b8261046d565b6001600160a01b03167f8c5be1e5ebec7d5bd14f71427d1e84f3dd0314c0f7b2291e5b200ac8c7c3b92560405160405180910390a45050565b600061075f826106cd565b61077b5760405162461bcd60e51b815260040161035790610fa6565b60006107868361046d565b9050806001600160a01b0316846001600160a01b031614806107c15750836001600160a01b03166107b684610330565b6001600160a01b0316145b806107d157506107d1818561069f565b949350505050565b826001600160a01b03166107ec8261046d565b6001600160a01b0316146108125760405162461bcd60e51b815260040161035790610fc3565b6001600160a01b0382166108385760405162461bcd60e51b8152600401610357906110e5565b61084383838361040f565b61084e6000826106e6565b6001600160a01b0383166000908152600360205260408120805491610872836111a5565b9091555050600081815260046020908152604080832080546001600160a01b0319166001600160a01b0387169081179091558352600390915281208054916108b9836111f7565b919050555080826001600160a01b0316846001600160a01b03167fddf252ad1be2c89b69c2b068fc378daa952ba7f163c4a11628f55a4df523b3ef60405160405180910390a4505050565b61090f8484846107d9565b61091b84848484610a52565b61061f5760405162461bcd60e51b81526004016103579061108e565b60608161095c57506040805180820190915260018152600360fc1b6020820152610299565b8160005b81156109865780610970816111f7565b915061097f9050600a8361114e565b9150610960565b60008167ffffffffffffffff8111156109af57634e487b7160e01b600052604160045260246000fd5b6040519080825280601f01601f1916602001820160405280156109d9576020820181803683370190505b5090505b84156107d1576109ee600183611162565b91506109fb600a86611212565b610a06906030611136565b60f81b818381518110610a2957634e487b7160e01b600052603260045260246000fd5b60200101906001600160f81b031916908160001a905350610a4b600a8661114e565b94506109dd565b6000610a66846001600160a01b0316610b31565b610a72575060016107d1565b6000610afa630a85bd0160e11b610a876106e2565b888787604051602401610a9d9493929190610f11565b60408051601f19818403018152918152602080830180516001600160e01b03166001600160e01b031990951694909417909352805180820190915260038152620ca64760eb1b928101929092526001600160a01b03881691610b37565b9050600081806020019051810190610b129190610e32565b6001600160e01b031916630a85bd0160e11b1492505050949350505050565b3b151590565b6060610b468484600085610b50565b90505b9392505050565b606082471015610b725760405162461bcd60e51b81526004016103579061101a565b610b7b85610b31565b610b975760405162461bcd60e51b815260040161035790610f6c565b600080866001600160a01b03168587604051610bb39190610e92565b60006040518083038185875af1925050503d8060008114610bf0576040519150601f19603f3d011682016040523d82523d6000602084013e610bf5565b606091505b5091509150610c05828286610c10565b979650505050505050565b60608315610c1f575081610b49565b825115610c2f5782518084602001fd5b8160405162461bcd60e51b81526004016103579190610f59565b80356001600160a01b038116811461029957600080fd5b600060208284031215610c71578081fd5b610b4982610c49565b60008060408385031215610c8c578081fd5b610c9583610c49565b9150610ca360208401610c49565b90509250929050565b600080600060608486031215610cc0578081fd5b610cc984610c49565b9250610cd760208501610c49565b9150604084013590509250925092565b60008060008060808587031215610cfc578081fd5b610d0585610c49565b93506020610d14818701610c49565b935060408601359250606086013567ffffffffffffffff80821115610d37578384fd5b818801915088601f830112610d4a578384fd5b813581811115610d5c57610d5c611252565b604051601f8201601f1916810185018381118282101715610d7f57610d7f611252565b60405281815283820185018b1015610d95578586fd5b81858501868301379081019093019390935250939692955090935050565b60008060408385031215610dc5578182fd5b610dce83610c49565b915060208301358015158114610de2578182fd5b809150509250929050565b60008060408385031215610dff578182fd5b610e0883610c49565b946020939093013593505050565b600060208284031215610e27578081fd5b8135610b4981611268565b600060208284031215610e43578081fd5b8151610b4981611268565b600060208284031215610e5f578081fd5b5035919050565b60008151808452610e7e816020860160208601611179565b601f01601f19169290920160200192915050565b60008251610ea4818460208701611179565b9190910192915050565b600066697066733a2f2f60c81b82528351610ed0816007850160208801611179565b602f60f81b6007918401918201528351610ef1816008840160208801611179565b01600801949350505050565b6001600160a01b0391909116815260200190565b6001600160a01b0385811682528416602082015260408101839052608060608201819052600090610f4490830184610e66565b9695505050505050565b901515815260200190565b600060208252610b496020830184610e66565b60208082526003908201526265313160e81b604082015260600190565b60208082526003908201526265313360e81b604082015260600190565b60208082526003908201526232991960e91b604082015260600190565b60208082526003908201526232991b60e91b604082015260600190565b60208082526003908201526265313960e81b604082015260600190565b6020808252600390820152620ca62760eb1b604082015260600190565b60208082526003908201526206531360ec1b604082015260600190565b602080825260039082015262194c4d60ea1b604082015260600190565b60208082526003908201526265313560e81b604082015260600190565b60208082526003908201526232989b60e91b604082015260600190565b60208082526003908201526265323160e81b604082015260600190565b60208082526003908201526206532360ec1b604082015260600190565b60208082526003908201526232989960e91b604082015260600190565b60208082526003908201526265323760e81b604082015260600190565b60208082526003908201526265313760e81b604082015260600190565b90815260200190565b60ff91909116815260200190565b6000821982111561114957611149611226565b500190565b60008261115d5761115d61123c565b500490565b60008282101561117457611174611226565b500390565b60005b8381101561119457818101518382015260200161117c565b8381111561061f5750506000910152565b6000816111b4576111b4611226565b506000190190565b6002810460018216806111d057607f821691505b602082108114156111f157634e487b7160e01b600052602260045260246000fd5b50919050565b600060001982141561120b5761120b611226565b5060010190565b6000826112215761122161123c565b500690565b634e487b7160e01b600052601160045260246000fd5b634e487b7160e01b600052601260045260246000fd5b634e487b7160e01b600052604160045260246000fd5b6001600160e01b03198116811461127e57600080fd5b5056fea26469706673582212203ccd9bf7628053dbb7fbe7d74321f6ac91b5ee3b57ab24adca96c2c7ef32024764736f6c63430008000033516d58586255514c734c3769446a54646d714b5657414d7a78364339536473346e61326b76723842464a43794c72",
  "linkReferences": {},
  "deployedLinkReferences": {}
}