{
  "_format": "hh-sol-artifact-1",
  "contractName": "swimskin",
  "sourceName": "contracts/swimskin.sol",
  "abi": [
    {
      "inputs": [
        {
          "internalType": "string",
          "name": "name",
          "type": "string"
        },
        {
          "internalType": "string",
          "name": "symbol",
          "type": "string"
        },
        {
          "internalType": "uint256",
          "name": "maxNftSupply",
          "type": "uint256"
        }
      ],
      "stateMutability": "nonpayable",
      "type": "constructor"
    },
    {
      "anonymous": false,
      "inputs": [
        {
          "indexed": true,
          "internalType": "address",
          "name": "owner",
          "type": "address"
        },
        {
          "indexed": true,
          "internalType": "address",
          "name": "approved",
          "type": "address"
        },
        {
          "indexed": true,
          "internalType": "uint256",
          "name": "tokenId",
          "type": "uint256"
        }
      ],
      "name": "Approval",
      "type": "event"
    },
    {
      "anonymous": false,
      "inputs": [
        {
          "indexed": true,
          "internalType": "address",
          "name": "owner",
          "type": "address"
        },
        {
          "indexed": true,
          "internalType": "address",
          "name": "operator",
          "type": "address"
        },
        {
          "indexed": false,
          "internalType": "bool",
          "name": "approved",
          "type": "bool"
        }
      ],
      "name": "ApprovalForAll",
      "type": "event"
    },
    {
      "anonymous": false,
      "inputs": [
        {
          "indexed": true,
          "internalType": "address",
          "name": "previousOwner",
          "type": "address"
        },
        {
          "indexed": true,
          "internalType": "address",
          "name": "newOwner",
          "type": "address"
        }
      ],
      "name": "OwnershipTransferred",
      "type": "event"
    },
    {
      "anonymous": false,
      "inputs": [
        {
          "indexed": true,
          "internalType": "address",
          "name": "from",
          "type": "address"
        },
        {
          "indexed": true,
          "internalType": "address",
          "name": "to",
          "type": "address"
        },
        {
          "indexed": true,
          "internalType": "uint256",
          "name": "tokenId",
          "type": "uint256"
        }
      ],
      "name": "Transfer",
      "type": "event"
    },
    {
      "inputs": [],
      "name": "MAX_SSK",
      "outputs": [
        {
          "internalType": "uint256",
          "name": "",
          "type": "uint256"
        }
      ],
      "stateMutability": "view",
      "type": "function"
    },
    {
      "inputs": [
        {
          "internalType": "address",
          "name": "to",
          "type": "address"
        },
        {
          "internalType": "uint256",
          "name": "tokenId",
          "type": "uint256"
        }
      ],
      "name": "approve",
      "outputs": [],
      "stateMutability": "nonpayable",
      "type": "function"
    },
    {
      "inputs": [
        {
          "internalType": "address",
          "name": "owner",
          "type": "address"
        }
      ],
      "name": "balanceOf",
      "outputs": [
        {
          "internalType": "uint256",
          "name": "",
          "type": "uint256"
        }
      ],
      "stateMutability": "view",
      "type": "function"
    },
    {
      "inputs": [],
      "name": "baseURI",
      "outputs": [
        {
          "internalType": "string",
          "name": "",
          "type": "string"
        }
      ],
      "stateMutability": "view",
      "type": "function"
    },
    {
      "inputs": [
        {
          "internalType": "uint256",
          "name": "amount",
          "type": "uint256"
        }
      ],
      "name": "changeWalletLimit",
      "outputs": [],
      "stateMutability": "nonpayable",
      "type": "function"
    },
    {
      "inputs": [],
      "name": "deposited",
      "outputs": [
        {
          "internalType": "uint256",
          "name": "",
          "type": "uint256"
        }
      ],
      "stateMutability": "view",
      "type": "function"
    },
    {
      "inputs": [],
      "name": "emergencyDeposit",
      "outputs": [],
      "stateMutability": "payable",
      "type": "function"
    },
    {
      "inputs": [],
      "name": "flipState",
      "outputs": [],
      "stateMutability": "nonpayable",
      "type": "function"
    },
    {
      "inputs": [
        {
          "internalType": "uint256",
          "name": "tokenId",
          "type": "uint256"
        }
      ],
      "name": "getApproved",
      "outputs": [
        {
          "internalType": "address",
          "name": "",
          "type": "address"
        }
      ],
      "stateMutability": "view",
      "type": "function"
    },
    {
      "inputs": [
        {
          "internalType": "address",
          "name": "owner",
          "type": "address"
        },
        {
          "internalType": "address",
          "name": "operator",
          "type": "address"
        }
      ],
      "name": "isApprovedForAll",
      "outputs": [
        {
          "internalType": "bool",
          "name": "",
          "type": "bool"
        }
      ],
      "stateMutability": "view",
      "type": "function"
    },
    {
      "inputs": [],
      "name": "maxSSKPurchase",
      "outputs": [
        {
          "internalType": "uint256",
          "name": "",
          "type": "uint256"
        }
      ],
      "stateMutability": "view",
      "type": "function"
    },
    {
      "inputs": [],
      "name": "mintContrib",
      "outputs": [
        {
          "internalType": "uint256",
          "name": "",
          "type": "uint256"
        }
      ],
      "stateMutability": "view",
      "type": "function"
    },
    {
      "inputs": [
        {
          "internalType": "uint8",
          "name": "numberOfTokens",
          "type": "uint8"
        }
      ],
      "name": "mintSSK",
      "outputs": [],
      "stateMutability": "payable",
      "type": "function"
    },
    {
      "inputs": [
        {
          "internalType": "address",
          "name": "",
          "type": "address"
        }
      ],
      "name": "mintedQty",
      "outputs": [
        {
          "internalType": "uint8",
          "name": "",
          "type": "uint8"
        }
      ],
      "stateMutability": "view",
      "type": "function"
    },
    {
      "inputs": [],
      "name": "name",
      "outputs": [
        {
          "internalType": "string",
          "name": "",
          "type": "string"
        }
      ],
      "stateMutability": "view",
      "type": "function"
    },
    {
      "inputs": [],
      "name": "owner",
      "outputs": [
        {
          "internalType": "address",
          "name": "",
          "type": "address"
        }
      ],
      "stateMutability": "view",
      "type": "function"
    },
    {
      "inputs": [
        {
          "internalType": "uint256",
          "name": "tokenId",
          "type": "uint256"
        }
      ],
      "name": "ownerOf",
      "outputs": [
        {
          "internalType": "address",
          "name": "",
          "type": "address"
        }
      ],
      "stateMutability": "view",
      "type": "function"
    },
    {
      "inputs": [],
      "name": "ownerWithdrawals",
      "outputs": [
        {
          "internalType": "uint256",
          "name": "",
          "type": "uint256"
        }
      ],
      "stateMutability": "view",
      "type": "function"
    },
    {
      "inputs": [],
      "name": "preMaxPerWallet",
      "outputs": [
        {
          "internalType": "uint256",
          "name": "",
          "type": "uint256"
        }
      ],
      "stateMutability": "view",
      "type": "function"
    },
    {
      "inputs": [
        {
          "internalType": "address",
          "name": "from",
          "type": "address"
        },
        {
          "internalType": "address",
          "name": "to",
          "type": "address"
        },
        {
          "internalType": "uint256",
          "name": "tokenId",
          "type": "uint256"
        }
      ],
      "name": "safeTransferFrom",
      "outputs": [],
      "stateMutability": "nonpayable",
      "type": "function"
    },
    {
      "inputs": [
        {
          "internalType": "address",
          "name": "from",
          "type": "address"
        },
        {
          "internalType": "address",
          "name": "to",
          "type": "address"
        },
        {
          "internalType": "uint256",
          "name": "tokenId",
          "type": "uint256"
        },
        {
          "internalType": "bytes",
          "name": "_data",
          "type": "bytes"
        }
      ],
      "name": "safeTransferFrom",
      "outputs": [],
      "stateMutability": "nonpayable",
      "type": "function"
    },
    {
      "inputs": [],
      "name": "saleIsActive",
      "outputs": [
        {
          "internalType": "bool",
          "name": "",
          "type": "bool"
        }
      ],
      "stateMutability": "view",
      "type": "function"
    },
    {
      "inputs": [
        {
          "internalType": "address",
          "name": "operator",
          "type": "address"
        },
        {
          "internalType": "bool",
          "name": "approved",
          "type": "bool"
        }
      ],
      "name": "setApprovalForAll",
      "outputs": [],
      "stateMutability": "nonpayable",
      "type": "function"
    },
    {
      "inputs": [
        {
          "internalType": "string",
          "name": "baseURI",
          "type": "string"
        }
      ],
      "name": "setBaseURI",
      "outputs": [],
      "stateMutability": "nonpayable",
      "type": "function"
    },
    {
      "inputs": [
        {
          "internalType": "bytes4",
          "name": "interfaceId",
          "type": "bytes4"
        }
      ],
      "name": "supportsInterface",
      "outputs": [
        {
          "internalType": "bool",
          "name": "",
          "type": "bool"
        }
      ],
      "stateMutability": "view",
      "type": "function"
    },
    {
      "inputs": [],
      "name": "symbol",
      "outputs": [
        {
          "internalType": "string",
          "name": "",
          "type": "string"
        }
      ],
      "stateMutability": "view",
      "type": "function"
    },
    {
      "inputs": [],
      "name": "tokenPrice",
      "outputs": [
        {
          "internalType": "uint256",
          "name": "",
          "type": "uint256"
        }
      ],
      "stateMutability": "view",
      "type": "function"
    },
    {
      "inputs": [
        {
          "internalType": "uint256",
          "name": "tokenId",
          "type": "uint256"
        }
      ],
      "name": "tokenURI",
      "outputs": [
        {
          "internalType": "string",
          "name": "",
          "type": "string"
        }
      ],
      "stateMutability": "view",
      "type": "function"
    },
    {
      "inputs": [],
      "name": "tokensMinted",
      "outputs": [
        {
          "internalType": "uint256",
          "name": "",
          "type": "uint256"
        }
      ],
      "stateMutability": "view",
      "type": "function"
    },
    {
      "inputs": [],
      "name": "totalSupply",
      "outputs": [
        {
          "internalType": "uint256",
          "name": "",
          "type": "uint256"
        }
      ],
      "stateMutability": "view",
      "type": "function"
    },
    {
      "inputs": [
        {
          "internalType": "address",
          "name": "from",
          "type": "address"
        },
        {
          "internalType": "address",
          "name": "to",
          "type": "address"
        },
        {
          "internalType": "uint256",
          "name": "tokenId",
          "type": "uint256"
        }
      ],
      "name": "transferFrom",
      "outputs": [],
      "stateMutability": "nonpayable",
      "type": "function"
    },
    {
      "inputs": [
        {
          "internalType": "address",
          "name": "",
          "type": "address"
        }
      ],
      "name": "winner",
      "outputs": [
        {
          "internalType": "uint8",
          "name": "",
          "type": "uint8"
        }
      ],
      "stateMutability": "view",
      "type": "function"
    },
    {
      "inputs": [],
      "name": "winnersCount",
      "outputs": [
        {
          "internalType": "uint8",
          "name": "",
          "type": "uint8"
        }
      ],
      "stateMutability": "view",
      "type": "function"
    },
    {
      "inputs": [
        {
          "internalType": "uint256",
          "name": "amount",
          "type": "uint256"
        }
      ],
      "name": "withdraw",
      "outputs": [],
      "stateMutability": "nonpayable",
      "type": "function"
    },
    {
      "inputs": [
        {
          "internalType": "address",
          "name": "",
          "type": "address"
        }
      ],
      "name": "withdrawn",
      "outputs": [
        {
          "internalType": "bool",
          "name": "",
          "type": "bool"
        }
      ],
      "stateMutability": "view",
      "type": "function"
    }
  ],
  "bytecode": "0x600a805460ff191690556000600b5560e0604052602e608081815290620021e360a03980516200003891600f91602090910190620001ce565b5066470de4df8200006010556005601155600060128190556014805460ff1916905560158190556016553480156200006f57600080fd5b50604051620022113803806200221183398101604081905262000092916200031f565b82826000620000a06200016c565b600080546001600160a01b0319166001600160a01b0383169081178255604051929350917f8be0079c531659141344cd1fd0a4f28419497f9722a3daafe3b4186f6b6457e0908290a350620000fc6301ffc9a760e01b62000170565b81516200011190600c906020850190620001ce565b5080516200012790600d906020840190620001ce565b506200013a6380ac58cd60e01b62000170565b6200014c635b5e139f60e01b62000170565b6200015e63780e9d6360e01b62000170565b5050600e5550620003fe9050565b3390565b6001600160e01b03198082161415620001a65760405162461bcd60e51b81526004016200019d906200038f565b60405180910390fd5b6001600160e01b0319166000908152600160208190526040909120805460ff19169091179055565b828054620001dc90620003ab565b90600052602060002090601f0160209004810192826200020057600085556200024b565b82601f106200021b57805160ff19168380011785556200024b565b828001600101855582156200024b579182015b828111156200024b5782518255916020019190600101906200022e565b50620002599291506200025d565b5090565b5b808211156200025957600081556001016200025e565b600082601f83011262000285578081fd5b81516001600160401b0380821115620002a257620002a2620003e8565b6040516020601f8401601f1916820181018381118382101715620002ca57620002ca620003e8565b6040528382528584018101871015620002e1578485fd5b8492505b83831015620003045785830181015182840182015291820191620002e5565b838311156200031557848185840101525b5095945050505050565b60008060006060848603121562000334578283fd5b83516001600160401b03808211156200034b578485fd5b620003598783880162000274565b945060208601519150808211156200036f578384fd5b506200037e8682870162000274565b925050604084015190509250925092565b602080825260029082015261329b60f11b604082015260600190565b600281046001821680620003c057607f821691505b60208210811415620003e257634e487b7160e01b600052602260045260246000fd5b50919050565b634e487b7160e01b600052604160045260246000fd5b611dd5806200040e6000396000f3fe6080604052600436106102045760003560e01c806370a0823111610118578063a22cb465116100a0578063cfb15ef01161006f578063cfb15ef01461056e578063d885a21e1461058e578063e985e9c514610596578063eb8d2444146105b6578063eef49ee3146105cb57610204565b8063a22cb465146104f9578063b88d4fde14610519578063c2e1debf14610539578063c87b56dd1461054e57610204565b8063861d47b4116100e7578063861d47b41461049257806388dba7fd146104a75780638da5cb5b146104ba5780638e920351146104cf57806395d89b41146104e457610204565b806370a08231146104285780637db1342c146104485780637ff9b59614610468578063807f54f61461047d57610204565b806342842e0e1161019b5780636352211e1161016a5780636352211e146103a9578063686e1079146103c95780636c0360eb146103de5780636de9f32b146103f35780636ef610921461040857610204565b806342842e0e1461033f578063497138111461035f5780634a2eeebb1461037457806355f804b31461038957610204565b806318160ddd116101d757806318160ddd146102b057806323b872dd146102d25780632ad95786146102f25780632e1a7d4d1461031f57610204565b806301ffc9a71461020957806306fdde031461023f578063081812fc14610261578063095ea7b31461028e575b600080fd5b34801561021557600080fd5b50610229610224366004611757565b6105e0565b60405161023691906118f6565b60405180910390f35b34801561024b57600080fd5b50610254610603565b6040516102369190611901565b34801561026d57600080fd5b5061028161027c3660046117d5565b610695565b60405161023691906118a5565b34801561029a57600080fd5b506102ae6102a936600461172e565b6106e1565b005b3480156102bc57600080fd5b506102c5610779565b6040516102369190611be4565b3480156102de57600080fd5b506102ae6102ed366004611640565b61077f565b3480156102fe57600080fd5b5061031261030d3660046115f4565b6107b7565b6040516102369190611bed565b34801561032b57600080fd5b506102ae61033a3660046117d5565b6107cc565b34801561034b57600080fd5b506102ae61035a366004611640565b61083c565b34801561036b57600080fd5b50610312610857565b34801561038057600080fd5b506102c5610860565b34801561039557600080fd5b506102ae6103a436600461178f565b610866565b3480156103b557600080fd5b506102816103c43660046117d5565b6108b1565b3480156103d557600080fd5b506102c56108ee565b3480156103ea57600080fd5b506102546108f4565b3480156103ff57600080fd5b506102c5610903565b34801561041457600080fd5b506102296104233660046115f4565b610909565b34801561043457600080fd5b506102c56104433660046115f4565b61091e565b34801561045457600080fd5b506102ae6104633660046117d5565b610962565b34801561047457600080fd5b506102c56109a6565b34801561048957600080fd5b506102c56109ac565b34801561049e57600080fd5b506102c56109b2565b6102ae6104b53660046117ed565b6109b8565b3480156104c657600080fd5b50610281610adc565b3480156104db57600080fd5b506102ae610aeb565b3480156104f057600080fd5b50610254610b3e565b34801561050557600080fd5b506102ae6105143660046116f4565b610b4d565b34801561052557600080fd5b506102ae61053436600461167b565b610c1b565b34801561054557600080fd5b506102c5610c5a565b34801561055a57600080fd5b506102546105693660046117d5565b610c5f565b34801561057a57600080fd5b506103126105893660046115f4565b610cc4565b6102ae610cd9565b3480156105a257600080fd5b506102296105b136600461160e565b610d0c565b3480156105c257600080fd5b50610229610d3a565b3480156105d757600080fd5b506102c5610d43565b6001600160e01b0319811660009081526001602052604090205460ff165b919050565b6060600c805461061290611cbd565b80601f016020809104026020016040519081016040528092919081815260200182805461063e90611cbd565b801561068b5780601f106106605761010080835404028352916020019161068b565b820191906000526020600020905b81548152906001019060200180831161066e57829003601f168201915b5050505050905090565b60006106a082610d49565b6106c55760405162461bcd60e51b81526004016106bc90611b8e565b60405180910390fd5b506000908152600260205260409020546001600160a01b031690565b60006106ec826108b1565b9050806001600160a01b0316836001600160a01b031614156107205760405162461bcd60e51b81526004016106bc90611a8a565b806001600160a01b0316610732610d5e565b6001600160a01b0316148061074e575061074e816105b1610d5e565b61076a5760405162461bcd60e51b81526004016106bc90611ac4565b6107748383610d62565b505050565b600b5490565b61079061078a610d5e565b82610dd0565b6107ac5760405162461bcd60e51b81526004016106bc906119fa565b610774838383610e55565b60086020526000908152604090205460ff1681565b6107d4610d5e565b6001600160a01b03166107e5610adc565b6001600160a01b03161461080b5760405162461bcd60e51b81526004016106bc906119c0565b604051339082156108fc029083906000818181858888f19350505050158015610838573d6000803e3d6000fd5b5050565b61077483838360405180602001604052806000815250610c1b565b600a5460ff1681565b60155481565b61086e610d5e565b6001600160a01b031661087f610adc565b6001600160a01b0316146108a55760405162461bcd60e51b81526004016106bc906119c0565b6108ae8161101a565b50565b60008082116108d25760405162461bcd60e51b81526004016106bc90611986565b506000908152600560205260409020546001600160a01b031690565b600e5481565b6060600f805461061290611cbd565b600b5481565b60136020526000908152604090205460ff1681565b60006001600160a01b0382166109465760405162461bcd60e51b81526004016106bc90611b54565b506001600160a01b031660009081526004602052604090205490565b61096a610d5e565b6001600160a01b031661097b610adc565b6001600160a01b0316146109a15760405162461bcd60e51b81526004016106bc906119c0565b601155565b60105481565b60125481565b60115481565b60006109c2610779565b905060058260ff1611156109e85760405162461bcd60e51b81526004016106bc90611bab565b600e546109f860ff841683611bfb565b1115610a165760405162461bcd60e51b81526004016106bc9061194d565b60145460ff16610a385760405162461bcd60e51b81526004016106bc90611afe565b6011548260ff16610a483361091e565b610a529190611bfb565b1115610a705760405162461bcd60e51b81526004016106bc90611a34565b348260ff16601054610a829190611c27565b1115610aa05760405162461bcd60e51b81526004016106bc90611b1a565b60015b8260ff16811161077457600e54821015610aca57610aca33610ac58385611bfb565b61102d565b80610ad481611cf8565b915050610aa3565b6000546001600160a01b031690565b610af3610d5e565b6001600160a01b0316610b04610adc565b6001600160a01b031614610b2a5760405162461bcd60e51b81526004016106bc906119c0565b6014805460ff19811660ff90911615179055565b6060600d805461061290611cbd565b610b55610d5e565b6001600160a01b0316826001600160a01b03161415610b865760405162461bcd60e51b81526004016106bc90611a17565b8060036000610b93610d5e565b6001600160a01b03908116825260208083019390935260409182016000908120918716808252919093529120805460ff191692151592909217909155610bd7610d5e565b6001600160a01b03167f17307eab39ab6107e8899845ad3d59bd9653f200f220920489ca2b5937696c3183604051610c0f91906118f6565b60405180910390a35050565b610c2c610c26610d5e565b83610dd0565b610c485760405162461bcd60e51b81526004016106bc90611b37565b610c5484848484611047565b50505050565b600581565b6060610c6a82610d49565b610c865760405162461bcd60e51b81526004016106bc90611a6d565b6000610c906108f4565b905080610c9c8461107a565b604051602001610cad929190611856565b604051602081830303815290604052915050919050565b60096020526000908152604090205460ff1681565b60003411610cf95760405162461bcd60e51b81526004016106bc90611931565b34601654610d079190611bfb565b601655565b6001600160a01b03918216600090815260036020908152604080832093909416825291909152205460ff1690565b60145460ff1681565b60165481565b60009081526006602052604090205460ff1690565b3390565b600081815260026020526040902080546001600160a01b0319166001600160a01b0384169081179091558190610d97826108b1565b6001600160a01b03167f8c5be1e5ebec7d5bd14f71427d1e84f3dd0314c0f7b2291e5b200ac8c7c3b92560405160405180910390a45050565b6000610ddb82610d49565b610df75760405162461bcd60e51b81526004016106bc906119a3565b6000610e02836108b1565b9050806001600160a01b0316846001600160a01b03161480610e3d5750836001600160a01b0316610e3284610695565b6001600160a01b0316145b80610e4d5750610e4d8185610d0c565b949350505050565b826001600160a01b0316610e68826108b1565b6001600160a01b031614610e8e5760405162461bcd60e51b81526004016106bc906119dd565b6001600160a01b038216610eb45760405162461bcd60e51b81526004016106bc90611b71565b610ebf838383610774565b610eca600082610d62565b6001600160a01b0383166000908152600460205260408120805491610eee83611c89565b9091555050600081815260056020908152604080832080546001600160a01b0319166001600160a01b038716908117909155835260049091528120805491610f3583611cf8565b909155505060008181526007602052604090205460ff1615610fd4576001600160a01b0383166000908152600860205260408120805460ff1691610f7883611ca0565b82546101009290920a60ff8181021990931691831602179091556001600160a01b038416600090815260086020526040812080549092169250610fba83611d13565b91906101000a81548160ff021916908360ff160217905550505b80826001600160a01b0316846001600160a01b03167fddf252ad1be2c89b69c2b068fc378daa952ba7f163c4a11628f55a4df523b3ef60405160405180910390a4505050565b805161083890600f9060208401906114d4565b610838828260405180602001604052806000815250611195565b611052848484610e55565b61105e848484846111c8565b610c545760405162461bcd60e51b81526004016106bc90611ae1565b60608161109f57506040805180820190915260018152600360fc1b60208201526105fe565b8160005b81156110c957806110b381611cf8565b91506110c29050600a83611c13565b91506110a3565b60008167ffffffffffffffff8111156110f257634e487b7160e01b600052604160045260246000fd5b6040519080825280601f01601f19166020018201604052801561111c576020820181803683370190505b5090505b8415610e4d57611131600183611c46565b915061113e600a86611d33565b611149906030611bfb565b60f81b81838151811061116c57634e487b7160e01b600052603260045260246000fd5b60200101906001600160f81b031916908160001a90535061118e600a86611c13565b9450611120565b61119f83836112a7565b6111ac60008484846111c8565b6107745760405162461bcd60e51b81526004016106bc90611969565b60006111dc846001600160a01b03166113bc565b6111e857506001610e4d565b6000611270630a85bd0160e11b6111fd610d5e565b88878760405160240161121394939291906118b9565b60408051601f19818403018152918152602080830180516001600160e01b03166001600160e01b031990951694909417909352805180820190915260038152620ca64760eb1b928101929092526001600160a01b038816916113c2565b90506000818060200190518101906112889190611773565b6001600160e01b031916630a85bd0160e11b1492505050949350505050565b6001600160a01b0382166112cd5760405162461bcd60e51b81526004016106bc90611aa7565b6112d681610d49565b156112f35760405162461bcd60e51b81526004016106bc90611bc7565b6112ff60008383610774565b600081815260056020908152604080832080546001600160a01b0319166001600160a01b03871690811790915560068352818420805460ff1916600190811790915590845260049092529091205461135691611bfb565b6001600160a01b038316600090815260046020526040902055600b5461137d906001611bfb565b600b5560405181906001600160a01b038416906000907fddf252ad1be2c89b69c2b068fc378daa952ba7f163c4a11628f55a4df523b3ef908290a45050565b3b151590565b60606113d184846000856113db565b90505b9392505050565b6060824710156113fd5760405162461bcd60e51b81526004016106bc90611a50565b611406856113bc565b6114225760405162461bcd60e51b81526004016106bc90611914565b600080866001600160a01b0316858760405161143e919061183a565b60006040518083038185875af1925050503d806000811461147b576040519150601f19603f3d011682016040523d82523d6000602084013e611480565b606091505b509150915061149082828661149b565b979650505050505050565b606083156114aa5750816113d4565b8251156114ba5782518084602001fd5b8160405162461bcd60e51b81526004016106bc9190611901565b8280546114e090611cbd565b90600052602060002090601f0160209004810192826115025760008555611548565b82601f1061151b57805160ff1916838001178555611548565b82800160010185558215611548579182015b8281111561154857825182559160200191906001019061152d565b50611554929150611558565b5090565b5b808211156115545760008155600101611559565b600067ffffffffffffffff8084111561158857611588611d73565b604051601f8501601f1916810160200182811182821017156115ac576115ac611d73565b6040528481529150818385018610156115c457600080fd5b8484602083013760006020868301015250509392505050565b80356001600160a01b03811681146105fe57600080fd5b600060208284031215611605578081fd5b6113d4826115dd565b60008060408385031215611620578081fd5b611629836115dd565b9150611637602084016115dd565b90509250929050565b600080600060608486031215611654578081fd5b61165d846115dd565b925061166b602085016115dd565b9150604084013590509250925092565b60008060008060808587031215611690578081fd5b611699856115dd565b93506116a7602086016115dd565b925060408501359150606085013567ffffffffffffffff8111156116c9578182fd5b8501601f810187136116d9578182fd5b6116e88782356020840161156d565b91505092959194509250565b60008060408385031215611706578182fd5b61170f836115dd565b915060208301358015158114611723578182fd5b809150509250929050565b60008060408385031215611740578182fd5b611749836115dd565b946020939093013593505050565b600060208284031215611768578081fd5b81356113d481611d89565b600060208284031215611784578081fd5b81516113d481611d89565b6000602082840312156117a0578081fd5b813567ffffffffffffffff8111156117b6578182fd5b8201601f810184136117c6578182fd5b610e4d8482356020840161156d565b6000602082840312156117e6578081fd5b5035919050565b6000602082840312156117fe578081fd5b813560ff811681146113d4578182fd5b60008151808452611826816020860160208601611c5d565b601f01601f19169290920160200192915050565b6000825161184c818460208701611c5d565b9190910192915050565b600066697066733a2f2f60c81b82528351611878816007850160208801611c5d565b602f60f81b6007918401918201528351611899816008840160208801611c5d565b01600801949350505050565b6001600160a01b0391909116815260200190565b6001600160a01b03858116825284166020820152604081018390526080606082018190526000906118ec9083018461180e565b9695505050505050565b901515815260200190565b6000602082526113d4602083018461180e565b60208082526003908201526265313160e81b604082015260600190565b602080825260029082015261653160f01b604082015260600190565b602080825260029082015261653360f01b604082015260600190565b60208082526003908201526265323360e81b604082015260600190565b60208082526003908201526265313360e81b604082015260600190565b60208082526003908201526232991960e91b604082015260600190565b60208082526003908201526265323960e81b604082015260600190565b60208082526003908201526232991b60e91b604082015260600190565b60208082526003908201526265313960e81b604082015260600190565b6020808252600390820152620ca62760eb1b604082015260600190565b602080825260029082015261653560f01b604082015260600190565b60208082526003908201526206531360ec1b604082015260600190565b602080825260039082015262194c4d60ea1b604082015260600190565b60208082526003908201526265313560e81b604082015260600190565b602080825260039082015262194c8d60ea1b604082015260600190565b60208082526003908201526232989b60e91b604082015260600190565b60208082526003908201526265323160e81b604082015260600190565b602080825260029082015261194d60f21b604082015260600190565b60208082526003908201526245313560e81b604082015260600190565b60208082526003908201526206532360ec1b604082015260600190565b60208082526003908201526232989960e91b604082015260600190565b60208082526003908201526265323760e81b604082015260600190565b60208082526003908201526265313760e81b604082015260600190565b602080825260029082015261329960f11b604082015260600190565b60208082526003908201526265323560e81b604082015260600190565b90815260200190565b60ff91909116815260200190565b60008219821115611c0e57611c0e611d47565b500190565b600082611c2257611c22611d5d565b500490565b6000816000190483118215151615611c4157611c41611d47565b500290565b600082821015611c5857611c58611d47565b500390565b60005b83811015611c78578181015183820152602001611c60565b83811115610c545750506000910152565b600081611c9857611c98611d47565b506000190190565b600060ff821680611cb357611cb3611d47565b6000190192915050565b600281046001821680611cd157607f821691505b60208210811415611cf257634e487b7160e01b600052602260045260246000fd5b50919050565b6000600019821415611d0c57611d0c611d47565b5060010190565b600060ff821660ff811415611d2a57611d2a611d47565b60010192915050565b600082611d4257611d42611d5d565b500690565b634e487b7160e01b600052601160045260246000fd5b634e487b7160e01b600052601260045260246000fd5b634e487b7160e01b600052604160045260246000fd5b6001600160e01b0319811681146108ae57600080fdfea264697066735822122070230f8fb39cbb543fec3a0d433730f380cc5a4f4a5b75045f21e5b8611a667664736f6c63430008000033516d65627a546d316e6369674c395733457565766e38677167374e5346513173366851784d356d5244776a664c50",
  "linkReferences": {},
  "deployedLinkReferences": {}
}