{
  "_format": "hh-sol-artifact-1",
  "contractName": "swimskin",
  "sourceName": "contracts/swimskin.sol",
  "abi": [
    {
      "inputs": [
        {
          "internalType": "string",
          "name": "name",
          "type": "string"
        },
        {
          "internalType": "string",
          "name": "symbol",
          "type": "string"
        },
        {
          "internalType": "uint256",
          "name": "maxNftSupply",
          "type": "uint256"
        }
      ],
      "stateMutability": "nonpayable",
      "type": "constructor"
    },
    {
      "anonymous": false,
      "inputs": [
        {
          "indexed": true,
          "internalType": "address",
          "name": "owner",
          "type": "address"
        },
        {
          "indexed": true,
          "internalType": "address",
          "name": "approved",
          "type": "address"
        },
        {
          "indexed": true,
          "internalType": "uint256",
          "name": "tokenId",
          "type": "uint256"
        }
      ],
      "name": "Approval",
      "type": "event"
    },
    {
      "anonymous": false,
      "inputs": [
        {
          "indexed": true,
          "internalType": "address",
          "name": "owner",
          "type": "address"
        },
        {
          "indexed": true,
          "internalType": "address",
          "name": "operator",
          "type": "address"
        },
        {
          "indexed": false,
          "internalType": "bool",
          "name": "approved",
          "type": "bool"
        }
      ],
      "name": "ApprovalForAll",
      "type": "event"
    },
    {
      "anonymous": false,
      "inputs": [
        {
          "indexed": true,
          "internalType": "address",
          "name": "previousOwner",
          "type": "address"
        },
        {
          "indexed": true,
          "internalType": "address",
          "name": "newOwner",
          "type": "address"
        }
      ],
      "name": "OwnershipTransferred",
      "type": "event"
    },
    {
      "anonymous": false,
      "inputs": [
        {
          "indexed": true,
          "internalType": "address",
          "name": "from",
          "type": "address"
        },
        {
          "indexed": true,
          "internalType": "address",
          "name": "to",
          "type": "address"
        },
        {
          "indexed": true,
          "internalType": "uint256",
          "name": "tokenId",
          "type": "uint256"
        }
      ],
      "name": "Transfer",
      "type": "event"
    },
    {
      "inputs": [],
      "name": "MAX_SSK",
      "outputs": [
        {
          "internalType": "uint256",
          "name": "",
          "type": "uint256"
        }
      ],
      "stateMutability": "view",
      "type": "function"
    },
    {
      "inputs": [
        {
          "internalType": "address",
          "name": "userAddy",
          "type": "address"
        }
      ],
      "name": "addFree",
      "outputs": [],
      "stateMutability": "nonpayable",
      "type": "function"
    },
    {
      "inputs": [
        {
          "internalType": "address",
          "name": "to",
          "type": "address"
        },
        {
          "internalType": "uint256",
          "name": "tokenId",
          "type": "uint256"
        }
      ],
      "name": "approve",
      "outputs": [],
      "stateMutability": "nonpayable",
      "type": "function"
    },
    {
      "inputs": [
        {
          "internalType": "address",
          "name": "owner",
          "type": "address"
        }
      ],
      "name": "balanceOf",
      "outputs": [
        {
          "internalType": "uint256",
          "name": "",
          "type": "uint256"
        }
      ],
      "stateMutability": "view",
      "type": "function"
    },
    {
      "inputs": [],
      "name": "baseURI",
      "outputs": [
        {
          "internalType": "string",
          "name": "",
          "type": "string"
        }
      ],
      "stateMutability": "view",
      "type": "function"
    },
    {
      "inputs": [
        {
          "internalType": "uint256",
          "name": "amount",
          "type": "uint256"
        }
      ],
      "name": "changeWalletLimit",
      "outputs": [],
      "stateMutability": "nonpayable",
      "type": "function"
    },
    {
      "inputs": [],
      "name": "deposited",
      "outputs": [
        {
          "internalType": "uint256",
          "name": "",
          "type": "uint256"
        }
      ],
      "stateMutability": "view",
      "type": "function"
    },
    {
      "inputs": [],
      "name": "emergencyDeposit",
      "outputs": [],
      "stateMutability": "payable",
      "type": "function"
    },
    {
      "inputs": [
        {
          "internalType": "uint256",
          "name": "",
          "type": "uint256"
        }
      ],
      "name": "firstWinners",
      "outputs": [
        {
          "internalType": "uint256",
          "name": "",
          "type": "uint256"
        }
      ],
      "stateMutability": "view",
      "type": "function"
    },
    {
      "inputs": [
        {
          "internalType": "address",
          "name": "",
          "type": "address"
        }
      ],
      "name": "firstWinningsWithdrawn",
      "outputs": [
        {
          "internalType": "bool",
          "name": "",
          "type": "bool"
        }
      ],
      "stateMutability": "view",
      "type": "function"
    },
    {
      "inputs": [],
      "name": "firstWithdraw",
      "outputs": [],
      "stateMutability": "nonpayable",
      "type": "function"
    },
    {
      "inputs": [],
      "name": "flipState",
      "outputs": [],
      "stateMutability": "nonpayable",
      "type": "function"
    },
    {
      "inputs": [
        {
          "internalType": "address",
          "name": "",
          "type": "address"
        }
      ],
      "name": "freeMint",
      "outputs": [
        {
          "internalType": "bool",
          "name": "",
          "type": "bool"
        }
      ],
      "stateMutability": "view",
      "type": "function"
    },
    {
      "inputs": [
        {
          "internalType": "uint256",
          "name": "tokenId",
          "type": "uint256"
        }
      ],
      "name": "getApproved",
      "outputs": [
        {
          "internalType": "address",
          "name": "",
          "type": "address"
        }
      ],
      "stateMutability": "view",
      "type": "function"
    },
    {
      "inputs": [
        {
          "internalType": "address",
          "name": "owner",
          "type": "address"
        },
        {
          "internalType": "address",
          "name": "operator",
          "type": "address"
        }
      ],
      "name": "isApprovedForAll",
      "outputs": [
        {
          "internalType": "bool",
          "name": "",
          "type": "bool"
        }
      ],
      "stateMutability": "view",
      "type": "function"
    },
    {
      "inputs": [],
      "name": "maxSSKPurchase",
      "outputs": [
        {
          "internalType": "uint256",
          "name": "",
          "type": "uint256"
        }
      ],
      "stateMutability": "view",
      "type": "function"
    },
    {
      "inputs": [],
      "name": "mintContrib",
      "outputs": [
        {
          "internalType": "uint256",
          "name": "",
          "type": "uint256"
        }
      ],
      "stateMutability": "view",
      "type": "function"
    },
    {
      "inputs": [
        {
          "internalType": "uint8",
          "name": "numberOfTokens",
          "type": "uint8"
        }
      ],
      "name": "mintSSK",
      "outputs": [],
      "stateMutability": "payable",
      "type": "function"
    },
    {
      "inputs": [
        {
          "internalType": "address",
          "name": "",
          "type": "address"
        }
      ],
      "name": "mintedQty",
      "outputs": [
        {
          "internalType": "uint8",
          "name": "",
          "type": "uint8"
        }
      ],
      "stateMutability": "view",
      "type": "function"
    },
    {
      "inputs": [],
      "name": "name",
      "outputs": [
        {
          "internalType": "string",
          "name": "",
          "type": "string"
        }
      ],
      "stateMutability": "view",
      "type": "function"
    },
    {
      "inputs": [],
      "name": "owner",
      "outputs": [
        {
          "internalType": "address",
          "name": "",
          "type": "address"
        }
      ],
      "stateMutability": "view",
      "type": "function"
    },
    {
      "inputs": [
        {
          "internalType": "uint256",
          "name": "tokenId",
          "type": "uint256"
        }
      ],
      "name": "ownerOf",
      "outputs": [
        {
          "internalType": "address",
          "name": "",
          "type": "address"
        }
      ],
      "stateMutability": "view",
      "type": "function"
    },
    {
      "inputs": [],
      "name": "ownerWithdrawals",
      "outputs": [
        {
          "internalType": "uint256",
          "name": "",
          "type": "uint256"
        }
      ],
      "stateMutability": "view",
      "type": "function"
    },
    {
      "inputs": [],
      "name": "preMaxPerWallet",
      "outputs": [
        {
          "internalType": "uint256",
          "name": "",
          "type": "uint256"
        }
      ],
      "stateMutability": "view",
      "type": "function"
    },
    {
      "inputs": [
        {
          "internalType": "uint256",
          "name": "amount",
          "type": "uint256"
        }
      ],
      "name": "priceUpdate",
      "outputs": [],
      "stateMutability": "nonpayable",
      "type": "function"
    },
    {
      "inputs": [
        {
          "internalType": "address",
          "name": "userAddy",
          "type": "address"
        }
      ],
      "name": "removeFree",
      "outputs": [],
      "stateMutability": "nonpayable",
      "type": "function"
    },
    {
      "inputs": [
        {
          "internalType": "uint8",
          "name": "numberOfTokens",
          "type": "uint8"
        }
      ],
      "name": "reserveSSK",
      "outputs": [],
      "stateMutability": "nonpayable",
      "type": "function"
    },
    {
      "inputs": [
        {
          "internalType": "address",
          "name": "from",
          "type": "address"
        },
        {
          "internalType": "address",
          "name": "to",
          "type": "address"
        },
        {
          "internalType": "uint256",
          "name": "tokenId",
          "type": "uint256"
        }
      ],
      "name": "safeTransferFrom",
      "outputs": [],
      "stateMutability": "nonpayable",
      "type": "function"
    },
    {
      "inputs": [
        {
          "internalType": "address",
          "name": "from",
          "type": "address"
        },
        {
          "internalType": "address",
          "name": "to",
          "type": "address"
        },
        {
          "internalType": "uint256",
          "name": "tokenId",
          "type": "uint256"
        },
        {
          "internalType": "bytes",
          "name": "_data",
          "type": "bytes"
        }
      ],
      "name": "safeTransferFrom",
      "outputs": [],
      "stateMutability": "nonpayable",
      "type": "function"
    },
    {
      "inputs": [],
      "name": "saleIsActive",
      "outputs": [
        {
          "internalType": "bool",
          "name": "",
          "type": "bool"
        }
      ],
      "stateMutability": "view",
      "type": "function"
    },
    {
      "inputs": [
        {
          "internalType": "uint256",
          "name": "",
          "type": "uint256"
        }
      ],
      "name": "secondWinners",
      "outputs": [
        {
          "internalType": "uint256",
          "name": "",
          "type": "uint256"
        }
      ],
      "stateMutability": "view",
      "type": "function"
    },
    {
      "inputs": [
        {
          "internalType": "address",
          "name": "",
          "type": "address"
        }
      ],
      "name": "secondWinningsWithdrawn",
      "outputs": [
        {
          "internalType": "bool",
          "name": "",
          "type": "bool"
        }
      ],
      "stateMutability": "view",
      "type": "function"
    },
    {
      "inputs": [],
      "name": "secondWithdraw",
      "outputs": [],
      "stateMutability": "nonpayable",
      "type": "function"
    },
    {
      "inputs": [
        {
          "internalType": "address",
          "name": "operator",
          "type": "address"
        },
        {
          "internalType": "bool",
          "name": "approved",
          "type": "bool"
        }
      ],
      "name": "setApprovalForAll",
      "outputs": [],
      "stateMutability": "nonpayable",
      "type": "function"
    },
    {
      "inputs": [
        {
          "internalType": "string",
          "name": "baseURI",
          "type": "string"
        }
      ],
      "name": "setBaseURI",
      "outputs": [],
      "stateMutability": "nonpayable",
      "type": "function"
    },
    {
      "inputs": [
        {
          "internalType": "uint256[]",
          "name": "winningTokens",
          "type": "uint256[]"
        }
      ],
      "name": "setFirstWinners",
      "outputs": [],
      "stateMutability": "nonpayable",
      "type": "function"
    },
    {
      "inputs": [
        {
          "internalType": "uint256[]",
          "name": "winningTokens",
          "type": "uint256[]"
        }
      ],
      "name": "setSecondWinners",
      "outputs": [],
      "stateMutability": "nonpayable",
      "type": "function"
    },
    {
      "inputs": [
        {
          "internalType": "bytes4",
          "name": "interfaceId",
          "type": "bytes4"
        }
      ],
      "name": "supportsInterface",
      "outputs": [
        {
          "internalType": "bool",
          "name": "",
          "type": "bool"
        }
      ],
      "stateMutability": "view",
      "type": "function"
    },
    {
      "inputs": [],
      "name": "symbol",
      "outputs": [
        {
          "internalType": "string",
          "name": "",
          "type": "string"
        }
      ],
      "stateMutability": "view",
      "type": "function"
    },
    {
      "inputs": [],
      "name": "tokenPrice",
      "outputs": [
        {
          "internalType": "uint256",
          "name": "",
          "type": "uint256"
        }
      ],
      "stateMutability": "view",
      "type": "function"
    },
    {
      "inputs": [
        {
          "internalType": "uint256",
          "name": "tokenId",
          "type": "uint256"
        }
      ],
      "name": "tokenURI",
      "outputs": [
        {
          "internalType": "string",
          "name": "",
          "type": "string"
        }
      ],
      "stateMutability": "view",
      "type": "function"
    },
    {
      "inputs": [],
      "name": "tokensMinted",
      "outputs": [
        {
          "internalType": "uint256",
          "name": "",
          "type": "uint256"
        }
      ],
      "stateMutability": "view",
      "type": "function"
    },
    {
      "inputs": [],
      "name": "totalSupply",
      "outputs": [
        {
          "internalType": "uint256",
          "name": "",
          "type": "uint256"
        }
      ],
      "stateMutability": "view",
      "type": "function"
    },
    {
      "inputs": [
        {
          "internalType": "address",
          "name": "from",
          "type": "address"
        },
        {
          "internalType": "address",
          "name": "to",
          "type": "address"
        },
        {
          "internalType": "uint256",
          "name": "tokenId",
          "type": "uint256"
        }
      ],
      "name": "transferFrom",
      "outputs": [],
      "stateMutability": "nonpayable",
      "type": "function"
    },
    {
      "inputs": [
        {
          "internalType": "uint256",
          "name": "amount",
          "type": "uint256"
        }
      ],
      "name": "withdraw",
      "outputs": [],
      "stateMutability": "nonpayable",
      "type": "function"
    },
    {
      "inputs": [
        {
          "internalType": "address",
          "name": "",
          "type": "address"
        }
      ],
      "name": "withdrawn",
      "outputs": [
        {
          "internalType": "bool",
          "name": "",
          "type": "bool"
        }
      ],
      "stateMutability": "view",
      "type": "function"
    }
  ],
  "bytecode": "0x600060085560e0604052602e608081815290620028e660a03980516200002e91600c91602090910190620001c4565b5066470de4df820000600d556005600e556000600f8190556012805460ff1916905560138190556014553480156200006557600080fd5b506040516200291438038062002914833981016040819052620000889162000315565b828260006200009662000162565b600080546001600160a01b0319166001600160a01b0383169081178255604051929350917f8be0079c531659141344cd1fd0a4f28419497f9722a3daafe3b4186f6b6457e0908290a350620000f26301ffc9a760e01b62000166565b815162000107906009906020850190620001c4565b5080516200011d90600a906020840190620001c4565b50620001306380ac58cd60e01b62000166565b62000142635b5e139f60e01b62000166565b6200015463780e9d6360e01b62000166565b5050600b5550620003f49050565b3390565b6001600160e01b031980821614156200019c5760405162461bcd60e51b8152600401620001939062000385565b60405180910390fd5b6001600160e01b0319166000908152600160208190526040909120805460ff19169091179055565b828054620001d290620003a1565b90600052602060002090601f016020900481019282620001f6576000855562000241565b82601f106200021157805160ff191683800117855562000241565b8280016001018555821562000241579182015b828111156200024157825182559160200191906001019062000224565b506200024f92915062000253565b5090565b5b808211156200024f576000815560010162000254565b600082601f8301126200027b578081fd5b81516001600160401b0380821115620002985762000298620003de565b6040516020601f8401601f1916820181018381118382101715620002c057620002c0620003de565b6040528382528584018101871015620002d7578485fd5b8492505b83831015620002fa5785830181015182840182015291820191620002db565b838311156200030b57848185840101525b5095945050505050565b6000806000606084860312156200032a578283fd5b83516001600160401b038082111562000341578485fd5b6200034f878388016200026a565b9450602086015191508082111562000365578384fd5b5062000374868287016200026a565b925050604084015190509250925092565b602080825260029082015261329b60f11b604082015260600190565b600281046001821680620003b657607f821691505b60208210811415620003d857634e487b7160e01b600052602260045260246000fd5b50919050565b634e487b7160e01b600052604160045260246000fd5b6124e280620004046000396000f3fe60806040526004361061027d5760003560e01c80637db1342c1161014f578063bb7471fe116100c1578063d885a21e1161007a578063d885a21e14610727578063e985e9c51461072f578063e9b5a2f71461074f578063eb8d244414610764578063eef49ee314610779578063fa07ce1d1461078e5761027d565b8063bb7471fe14610665578063c2e1debf14610685578063c44644d01461069a578063c87b56dd146106ba578063cfb15ef0146106da578063d8795f5c146107075761027d565b80638da5cb5b116101135780638da5cb5b146105c65780638e920351146105db57806395d89b41146105f0578063a22cb46514610605578063a930aa6814610625578063b88d4fde146106455761027d565b80637db1342c146105545780637ff9b59614610574578063807f54f614610589578063861d47b41461059e57806388dba7fd146105b35761027d565b80634a2eeebb116101f3578063686e1079116101ac578063686e1079146104b55780636c0360eb146104ca5780636de9f32b146104df5780636ef61092146104f457806370a082311461051457806373526356146105345761027d565b80634a2eeebb146104005780634a6b07af1461041557806354e05b871461043557806355f804b3146104555780636352211e1461047557806366ebc7d3146104955761027d565b80631c2f8211116102455780631c2f82111461034b57806323b872dd1461036b5780632e1a7d4d1461038b5780633d363f15146103ab57806342842e0e146103c057806345e13a0c146103e05761027d565b806301ffc9a71461028257806306fdde03146102b8578063081812fc146102da578063095ea7b31461030757806318160ddd14610329575b600080fd5b34801561028e57600080fd5b506102a261029d366004611e3d565b6107ae565b6040516102af9190611fdc565b60405180910390f35b3480156102c457600080fd5b506102cd6107d1565b6040516102af9190611fe7565b3480156102e657600080fd5b506102fa6102f5366004611ebb565b610863565b6040516102af9190611f8b565b34801561031357600080fd5b50610327610322366004611d6d565b6108af565b005b34801561033557600080fd5b5061033e610947565b6040516102af9190612304565b34801561035757600080fd5b5061033e610366366004611ebb565b61094d565b34801561037757600080fd5b50610327610386366004611c7f565b61096e565b34801561039757600080fd5b506103276103a6366004611ebb565b6109a6565b3480156103b757600080fd5b50610327610a16565b3480156103cc57600080fd5b506103276103db366004611c7f565b610af0565b3480156103ec57600080fd5b506103276103fb366004611ebb565b610b0b565b34801561040c57600080fd5b5061033e610b4f565b34801561042157600080fd5b506102a2610430366004611c33565b610b55565b34801561044157600080fd5b506102a2610450366004611c33565b610b6a565b34801561046157600080fd5b50610327610470366004611e75565b610b7f565b34801561048157600080fd5b506102fa610490366004611ebb565b610bc7565b3480156104a157600080fd5b5061033e6104b0366004611ebb565b610c04565b3480156104c157600080fd5b5061033e610c14565b3480156104d657600080fd5b506102cd610c1a565b3480156104eb57600080fd5b5061033e610c29565b34801561050057600080fd5b506102a261050f366004611c33565b610c2f565b34801561052057600080fd5b5061033e61052f366004611c33565b610c44565b34801561054057600080fd5b5061032761054f366004611ed3565b610c88565b34801561056057600080fd5b5061032761056f366004611ebb565b610d83565b34801561058057600080fd5b5061033e610dc7565b34801561059557600080fd5b5061033e610dcd565b3480156105aa57600080fd5b5061033e610dd3565b6103276105c1366004611ed3565b610dd9565b3480156105d257600080fd5b506102fa610f14565b3480156105e757600080fd5b50610327610f23565b3480156105fc57600080fd5b506102cd610f76565b34801561061157600080fd5b50610327610620366004611d33565b610f85565b34801561063157600080fd5b50610327610640366004611c33565b611053565b34801561065157600080fd5b50610327610660366004611cba565b6110b3565b34801561067157600080fd5b50610327610680366004611d96565b6110f2565b34801561069157600080fd5b5061033e611165565b3480156106a657600080fd5b506103276106b5366004611c33565b61116a565b3480156106c657600080fd5b506102cd6106d5366004611ebb565b6111cd565b3480156106e657600080fd5b506106fa6106f5366004611c33565b611232565b6040516102af919061230d565b34801561071357600080fd5b50610327610722366004611d96565b611247565b6103276112ba565b34801561073b57600080fd5b506102a261074a366004611c4d565b6112ed565b34801561075b57600080fd5b5061032761131b565b34801561077057600080fd5b506102a26113dc565b34801561078557600080fd5b5061033e6113e5565b34801561079a57600080fd5b506102a26107a9366004611c33565b6113eb565b6001600160e01b0319811660009081526001602052604090205460ff165b919050565b6060600980546107e0906123ea565b80601f016020809104026020016040519081016040528092919081815260200182805461080c906123ea565b80156108595780601f1061082e57610100808354040283529160200191610859565b820191906000526020600020905b81548152906001019060200180831161083c57829003601f168201915b5050505050905090565b600061086e82611400565b6108935760405162461bcd60e51b815260040161088a906122ae565b60405180910390fd5b506000908152600260205260409020546001600160a01b031690565b60006108ba82610bc7565b9050806001600160a01b0316836001600160a01b031614156108ee5760405162461bcd60e51b815260040161088a906121aa565b806001600160a01b0316610900611415565b6001600160a01b0316148061091c575061091c8161074a611415565b6109385760405162461bcd60e51b815260040161088a906121e4565b6109428383611419565b505050565b60085490565b6016818154811061095d57600080fd5b600091825260209091200154905081565b61097f610979611415565b82611487565b61099b5760405162461bcd60e51b815260040161088a906120fd565b61094283838361150c565b6109ae611415565b6001600160a01b03166109bf610f14565b6001600160a01b0316146109e55760405162461bcd60e51b815260040161088a906120c3565b604051339082156108fc029083906000818181858888f19350505050158015610a12573d6000803e3d6000fd5b5050565b60005b601654811015610aed57336001600160a01b0316610a6160168381548110610a5157634e487b7160e01b600052603260045260246000fd5b9060005260206000200154610bc7565b6001600160a01b0316148015610a8c57503360009081526018602052604090205460ff161515600114155b15610adb5733600081815260186020526040808220805460ff1916600117905551671bc16d674ec800009082818181858883f19350505050158015610ad5573d6000803e3d6000fd5b50610aed565b80610ae581612425565b915050610a19565b50565b610942838383604051806020016040528060008152506110b3565b610b13611415565b6001600160a01b0316610b24610f14565b6001600160a01b031614610b4a5760405162461bcd60e51b815260040161088a906120c3565b600d55565b60135481565b60186020526000908152604090205460ff1681565b60176020526000908152604090205460ff1681565b610b87611415565b6001600160a01b0316610b98610f14565b6001600160a01b031614610bbe5760405162461bcd60e51b815260040161088a906120c3565b610aed81611637565b6000808211610be85760405162461bcd60e51b815260040161088a90612089565b506000908152600560205260409020546001600160a01b031690565b6015818154811061095d57600080fd5b600b5481565b6060600c80546107e0906123ea565b60085481565b60106020526000908152604090205460ff1681565b60006001600160a01b038216610c6c5760405162461bcd60e51b815260040161088a90612274565b506001600160a01b031660009081526004602052604090205490565b610c90611415565b6001600160a01b0316610ca1610f14565b6001600160a01b031614610cc75760405162461bcd60e51b815260040161088a906120c3565b6000610cd1610947565b905060058260ff161115610cf75760405162461bcd60e51b815260040161088a906122cb565b600b54610d0760ff841683612345565b1115610d255760405162461bcd60e51b815260040161088a90612033565b60125460ff16610d475760405162461bcd60e51b815260040161088a9061221e565b60015b8260ff16811161094257600b54821015610d7157610d7133610d6c8385612345565b61164a565b80610d7b81612425565b915050610d4a565b610d8b611415565b6001600160a01b0316610d9c610f14565b6001600160a01b031614610dc25760405162461bcd60e51b815260040161088a906120c3565b600e55565b600d5481565b600f5481565b600e5481565b6000610de3610947565b905060058260ff161115610e095760405162461bcd60e51b815260040161088a906122cb565b600b54610e1960ff841683612345565b1115610e375760405162461bcd60e51b815260040161088a90612033565b60125460ff16610e595760405162461bcd60e51b815260040161088a9061221e565b600e548260ff16610e6933610c44565b610e739190612345565b1115610e915760405162461bcd60e51b815260040161088a90612154565b3360009081526011602052604090205460ff161515600114610edd57348260ff16600d54610ebf9190612371565b1115610edd5760405162461bcd60e51b815260040161088a9061223a565b60015b8260ff16811161094257600b54821015610f0257610f0233610d6c8385612345565b80610f0c81612425565b915050610ee0565b6000546001600160a01b031690565b610f2b611415565b6001600160a01b0316610f3c610f14565b6001600160a01b031614610f625760405162461bcd60e51b815260040161088a906120c3565b6012805460ff19811660ff90911615179055565b6060600a80546107e0906123ea565b610f8d611415565b6001600160a01b0316826001600160a01b03161415610fbe5760405162461bcd60e51b815260040161088a9061211a565b8060036000610fcb611415565b6001600160a01b03908116825260208083019390935260409182016000908120918716808252919093529120805460ff19169215159290921790915561100f611415565b6001600160a01b03167f17307eab39ab6107e8899845ad3d59bd9653f200f220920489ca2b5937696c31836040516110479190611fdc565b60405180910390a35050565b61105b611415565b6001600160a01b031661106c610f14565b6001600160a01b0316146110925760405162461bcd60e51b815260040161088a906120c3565b6001600160a01b03166000908152601160205260409020805460ff19169055565b6110c46110be611415565b83611487565b6110e05760405162461bcd60e51b815260040161088a90612257565b6110ec84848484611664565b50505050565b6110fa611415565b6001600160a01b031661110b610f14565b6001600160a01b0316146111315760405162461bcd60e51b815260040161088a906120c3565b8051600a146111525760405162461bcd60e51b815260040161088a90612137565b8051610a12906016906020840190611af1565b600581565b611172611415565b6001600160a01b0316611183610f14565b6001600160a01b0316146111a95760405162461bcd60e51b815260040161088a906120c3565b6001600160a01b03166000908152601160205260409020805460ff19166001179055565b60606111d882611400565b6111f45760405162461bcd60e51b815260040161088a9061218d565b60006111fe610c1a565b90508061120a84611697565b60405160200161121b929190611f3c565b604051602081830303815290604052915050919050565b60076020526000908152604090205460ff1681565b61124f611415565b6001600160a01b0316611260610f14565b6001600160a01b0316146112865760405162461bcd60e51b815260040161088a906120c3565b80516005146112a75760405162461bcd60e51b815260040161088a9061206c565b8051610a12906015906020840190611af1565b600034116112da5760405162461bcd60e51b815260040161088a90612017565b346014546112e89190612345565b601455565b6001600160a01b03918216600090815260036020908152604080832093909416825291909152205460ff1690565b60005b601554811015610aed57336001600160a01b031661135660158381548110610a5157634e487b7160e01b600052603260045260246000fd5b6001600160a01b031614801561138157503360009081526017602052604090205460ff161515600114155b156113ca5733600081815260176020526040808220805460ff1916600117905551671bc16d674ec800009082818181858883f19350505050158015610ad5573d6000803e3d6000fd5b806113d481612425565b91505061131e565b60125460ff1681565b60145481565b60116020526000908152604090205460ff1681565b60009081526006602052604090205460ff1690565b3390565b600081815260026020526040902080546001600160a01b0319166001600160a01b038416908117909155819061144e82610bc7565b6001600160a01b03167f8c5be1e5ebec7d5bd14f71427d1e84f3dd0314c0f7b2291e5b200ac8c7c3b92560405160405180910390a45050565b600061149282611400565b6114ae5760405162461bcd60e51b815260040161088a906120a6565b60006114b983610bc7565b9050806001600160a01b0316846001600160a01b031614806114f45750836001600160a01b03166114e984610863565b6001600160a01b0316145b80611504575061150481856112ed565b949350505050565b826001600160a01b031661151f82610bc7565b6001600160a01b0316146115455760405162461bcd60e51b815260040161088a906120e0565b6001600160a01b03821661156b5760405162461bcd60e51b815260040161088a90612291565b611576838383610942565b611581600082611419565b6001600160a01b03831660009081526004602052604081208054916115a5836123d3565b9091555050600081815260056020908152604080832080546001600160a01b0319166001600160a01b0387169081179091558352600490915281208054916115ec83612425565b919050555080826001600160a01b0316846001600160a01b03167fddf252ad1be2c89b69c2b068fc378daa952ba7f163c4a11628f55a4df523b3ef60405160405180910390a4505050565b8051610a1290600c906020840190611b3c565b610a128282604051806020016040528060008152506117b2565b61166f84848461150c565b61167b848484846117e5565b6110ec5760405162461bcd60e51b815260040161088a90612201565b6060816116bc57506040805180820190915260018152600360fc1b60208201526107cc565b8160005b81156116e657806116d081612425565b91506116df9050600a8361235d565b91506116c0565b60008167ffffffffffffffff81111561170f57634e487b7160e01b600052604160045260246000fd5b6040519080825280601f01601f191660200182016040528015611739576020820181803683370190505b5090505b84156115045761174e600183612390565b915061175b600a86612440565b611766906030612345565b60f81b81838151811061178957634e487b7160e01b600052603260045260246000fd5b60200101906001600160f81b031916908160001a9053506117ab600a8661235d565b945061173d565b6117bc83836118c4565b6117c960008484846117e5565b6109425760405162461bcd60e51b815260040161088a9061204f565b60006117f9846001600160a01b03166119d9565b61180557506001611504565b600061188d630a85bd0160e11b61181a611415565b8887876040516024016118309493929190611f9f565b60408051601f19818403018152918152602080830180516001600160e01b03166001600160e01b031990951694909417909352805180820190915260038152620ca64760eb1b928101929092526001600160a01b038816916119df565b90506000818060200190518101906118a59190611e59565b6001600160e01b031916630a85bd0160e11b1492505050949350505050565b6001600160a01b0382166118ea5760405162461bcd60e51b815260040161088a906121c7565b6118f381611400565b156119105760405162461bcd60e51b815260040161088a906122e7565b61191c60008383610942565b600081815260056020908152604080832080546001600160a01b0319166001600160a01b03871690811790915560068352818420805460ff1916600190811790915590845260049092529091205461197391612345565b6001600160a01b03831660009081526004602052604090205560085461199a906001612345565b60085560405181906001600160a01b038416906000907fddf252ad1be2c89b69c2b068fc378daa952ba7f163c4a11628f55a4df523b3ef908290a45050565b3b151590565b60606119ee84846000856119f8565b90505b9392505050565b606082471015611a1a5760405162461bcd60e51b815260040161088a90612170565b611a23856119d9565b611a3f5760405162461bcd60e51b815260040161088a90611ffa565b600080866001600160a01b03168587604051611a5b9190611f20565b60006040518083038185875af1925050503d8060008114611a98576040519150601f19603f3d011682016040523d82523d6000602084013e611a9d565b606091505b5091509150611aad828286611ab8565b979650505050505050565b60608315611ac75750816119f1565b825115611ad75782518084602001fd5b8160405162461bcd60e51b815260040161088a9190611fe7565b828054828255906000526020600020908101928215611b2c579160200282015b82811115611b2c578251825591602001919060010190611b11565b50611b38929150611baf565b5090565b828054611b48906123ea565b90600052602060002090601f016020900481019282611b6a5760008555611b2c565b82601f10611b8357805160ff1916838001178555611b2c565b82800160010185558215611b2c5791820182811115611b2c578251825591602001919060010190611b11565b5b80821115611b385760008155600101611bb0565b600067ffffffffffffffff831115611bde57611bde612480565b611bf1601f8401601f191660200161231b565b9050828152838383011115611c0557600080fd5b828260208301376000602084830101529392505050565b80356001600160a01b03811681146107cc57600080fd5b600060208284031215611c44578081fd5b6119f182611c1c565b60008060408385031215611c5f578081fd5b611c6883611c1c565b9150611c7660208401611c1c565b90509250929050565b600080600060608486031215611c93578081fd5b611c9c84611c1c565b9250611caa60208501611c1c565b9150604084013590509250925092565b60008060008060808587031215611ccf578081fd5b611cd885611c1c565b9350611ce660208601611c1c565b925060408501359150606085013567ffffffffffffffff811115611d08578182fd5b8501601f81018713611d18578182fd5b611d2787823560208401611bc4565b91505092959194509250565b60008060408385031215611d45578182fd5b611d4e83611c1c565b915060208301358015158114611d62578182fd5b809150509250929050565b60008060408385031215611d7f578182fd5b611d8883611c1c565b946020939093013593505050565b60006020808385031215611da8578182fd5b823567ffffffffffffffff80821115611dbf578384fd5b818501915085601f830112611dd2578384fd5b813581811115611de457611de4612480565b8381029150611df484830161231b565b8181528481019084860184860187018a1015611e0e578788fd5b8795505b83861015611e30578035835260019590950194918601918601611e12565b5098975050505050505050565b600060208284031215611e4e578081fd5b81356119f181612496565b600060208284031215611e6a578081fd5b81516119f181612496565b600060208284031215611e86578081fd5b813567ffffffffffffffff811115611e9c578182fd5b8201601f81018413611eac578182fd5b61150484823560208401611bc4565b600060208284031215611ecc578081fd5b5035919050565b600060208284031215611ee4578081fd5b813560ff811681146119f1578182fd5b60008151808452611f0c8160208601602086016123a7565b601f01601f19169290920160200192915050565b60008251611f328184602087016123a7565b9190910192915050565b600066697066733a2f2f60c81b82528351611f5e8160078501602088016123a7565b602f60f81b6007918401918201528351611f7f8160088401602088016123a7565b01600801949350505050565b6001600160a01b0391909116815260200190565b6001600160a01b0385811682528416602082015260408101839052608060608201819052600090611fd290830184611ef4565b9695505050505050565b901515815260200190565b6000602082526119f16020830184611ef4565b60208082526003908201526265313160e81b604082015260600190565b602080825260029082015261653160f01b604082015260600190565b602080825260029082015261653360f01b604082015260600190565b60208082526003908201526265323360e81b604082015260600190565b60208082526003908201526204533360ec1b604082015260600190565b60208082526003908201526265313360e81b604082015260600190565b60208082526003908201526232991960e91b604082015260600190565b60208082526003908201526265323960e81b604082015260600190565b60208082526003908201526232991b60e91b604082015260600190565b60208082526003908201526265313960e81b604082015260600190565b6020808252600390820152620ca62760eb1b604082015260600190565b60208082526003908201526245333160e81b604082015260600190565b602080825260029082015261653560f01b604082015260600190565b60208082526003908201526206531360ec1b604082015260600190565b602080825260039082015262194c4d60ea1b604082015260600190565b60208082526003908201526265313560e81b604082015260600190565b602080825260039082015262194c8d60ea1b604082015260600190565b60208082526003908201526232989b60e91b604082015260600190565b60208082526003908201526265323160e81b604082015260600190565b602080825260029082015261194d60f21b604082015260600190565b60208082526003908201526245313560e81b604082015260600190565b60208082526003908201526206532360ec1b604082015260600190565b60208082526003908201526232989960e91b604082015260600190565b60208082526003908201526265323760e81b604082015260600190565b60208082526003908201526265313760e81b604082015260600190565b602080825260029082015261329960f11b604082015260600190565b60208082526003908201526265323560e81b604082015260600190565b90815260200190565b60ff91909116815260200190565b60405181810167ffffffffffffffff8111828210171561233d5761233d612480565b604052919050565b6000821982111561235857612358612454565b500190565b60008261236c5761236c61246a565b500490565b600081600019048311821515161561238b5761238b612454565b500290565b6000828210156123a2576123a2612454565b500390565b60005b838110156123c25781810151838201526020016123aa565b838111156110ec5750506000910152565b6000816123e2576123e2612454565b506000190190565b6002810460018216806123fe57607f821691505b6020821081141561241f57634e487b7160e01b600052602260045260246000fd5b50919050565b600060001982141561243957612439612454565b5060010190565b60008261244f5761244f61246a565b500690565b634e487b7160e01b600052601160045260246000fd5b634e487b7160e01b600052601260045260246000fd5b634e487b7160e01b600052604160045260246000fd5b6001600160e01b031981168114610aed57600080fdfea2646970667358221220bfbf5469a0a40266290526bc472b1f6395e72b667621275371aaaf150a846c6064736f6c63430008000033516d58586255514c734c3769446a54646d714b5657414d7a78364339536473346e61326b76723842464a43794c72",
  "linkReferences": {},
  "deployedLinkReferences": {}
}