{
  "_format": "hh-sol-artifact-1",
  "contractName": "swimskin",
  "sourceName": "contracts/swimskin.sol",
  "abi": [
    {
      "inputs": [
        {
          "internalType": "string",
          "name": "name",
          "type": "string"
        },
        {
          "internalType": "string",
          "name": "symbol",
          "type": "string"
        },
        {
          "internalType": "uint256",
          "name": "maxNftSupply",
          "type": "uint256"
        }
      ],
      "stateMutability": "nonpayable",
      "type": "constructor"
    },
    {
      "anonymous": false,
      "inputs": [
        {
          "indexed": true,
          "internalType": "address",
          "name": "owner",
          "type": "address"
        },
        {
          "indexed": true,
          "internalType": "address",
          "name": "approved",
          "type": "address"
        },
        {
          "indexed": true,
          "internalType": "uint256",
          "name": "tokenId",
          "type": "uint256"
        }
      ],
      "name": "Approval",
      "type": "event"
    },
    {
      "anonymous": false,
      "inputs": [
        {
          "indexed": true,
          "internalType": "address",
          "name": "owner",
          "type": "address"
        },
        {
          "indexed": true,
          "internalType": "address",
          "name": "operator",
          "type": "address"
        },
        {
          "indexed": false,
          "internalType": "bool",
          "name": "approved",
          "type": "bool"
        }
      ],
      "name": "ApprovalForAll",
      "type": "event"
    },
    {
      "anonymous": false,
      "inputs": [
        {
          "indexed": true,
          "internalType": "address",
          "name": "previousOwner",
          "type": "address"
        },
        {
          "indexed": true,
          "internalType": "address",
          "name": "newOwner",
          "type": "address"
        }
      ],
      "name": "OwnershipTransferred",
      "type": "event"
    },
    {
      "anonymous": false,
      "inputs": [
        {
          "indexed": true,
          "internalType": "address",
          "name": "from",
          "type": "address"
        },
        {
          "indexed": true,
          "internalType": "address",
          "name": "to",
          "type": "address"
        },
        {
          "indexed": true,
          "internalType": "uint256",
          "name": "tokenId",
          "type": "uint256"
        }
      ],
      "name": "Transfer",
      "type": "event"
    },
    {
      "inputs": [],
      "name": "MAX_SSK",
      "outputs": [
        {
          "internalType": "uint256",
          "name": "",
          "type": "uint256"
        }
      ],
      "stateMutability": "view",
      "type": "function"
    },
    {
      "inputs": [
        {
          "internalType": "address",
          "name": "userAddy",
          "type": "address"
        }
      ],
      "name": "addFree",
      "outputs": [],
      "stateMutability": "nonpayable",
      "type": "function"
    },
    {
      "inputs": [
        {
          "internalType": "address",
          "name": "to",
          "type": "address"
        },
        {
          "internalType": "uint256",
          "name": "tokenId",
          "type": "uint256"
        }
      ],
      "name": "approve",
      "outputs": [],
      "stateMutability": "nonpayable",
      "type": "function"
    },
    {
      "inputs": [
        {
          "internalType": "address",
          "name": "owner",
          "type": "address"
        }
      ],
      "name": "balanceOf",
      "outputs": [
        {
          "internalType": "uint256",
          "name": "",
          "type": "uint256"
        }
      ],
      "stateMutability": "view",
      "type": "function"
    },
    {
      "inputs": [],
      "name": "baseURI",
      "outputs": [
        {
          "internalType": "string",
          "name": "",
          "type": "string"
        }
      ],
      "stateMutability": "view",
      "type": "function"
    },
    {
      "inputs": [
        {
          "internalType": "uint256",
          "name": "amount",
          "type": "uint256"
        }
      ],
      "name": "changeWalletLimit",
      "outputs": [],
      "stateMutability": "nonpayable",
      "type": "function"
    },
    {
      "inputs": [],
      "name": "deposited",
      "outputs": [
        {
          "internalType": "uint256",
          "name": "",
          "type": "uint256"
        }
      ],
      "stateMutability": "view",
      "type": "function"
    },
    {
      "inputs": [],
      "name": "emergencyDeposit",
      "outputs": [],
      "stateMutability": "payable",
      "type": "function"
    },
    {
      "inputs": [
        {
          "internalType": "uint256",
          "name": "",
          "type": "uint256"
        }
      ],
      "name": "firstWinners",
      "outputs": [
        {
          "internalType": "uint256",
          "name": "",
          "type": "uint256"
        }
      ],
      "stateMutability": "view",
      "type": "function"
    },
    {
      "inputs": [
        {
          "internalType": "address",
          "name": "",
          "type": "address"
        }
      ],
      "name": "firstWinningsWithdrawn",
      "outputs": [
        {
          "internalType": "bool",
          "name": "",
          "type": "bool"
        }
      ],
      "stateMutability": "view",
      "type": "function"
    },
    {
      "inputs": [],
      "name": "firstWithdraw",
      "outputs": [],
      "stateMutability": "nonpayable",
      "type": "function"
    },
    {
      "inputs": [],
      "name": "flipState",
      "outputs": [],
      "stateMutability": "nonpayable",
      "type": "function"
    },
    {
      "inputs": [
        {
          "internalType": "address",
          "name": "",
          "type": "address"
        }
      ],
      "name": "freeMint",
      "outputs": [
        {
          "internalType": "bool",
          "name": "",
          "type": "bool"
        }
      ],
      "stateMutability": "view",
      "type": "function"
    },
    {
      "inputs": [
        {
          "internalType": "uint256",
          "name": "tokenId",
          "type": "uint256"
        }
      ],
      "name": "getApproved",
      "outputs": [
        {
          "internalType": "address",
          "name": "",
          "type": "address"
        }
      ],
      "stateMutability": "view",
      "type": "function"
    },
    {
      "inputs": [
        {
          "internalType": "address",
          "name": "owner",
          "type": "address"
        },
        {
          "internalType": "address",
          "name": "operator",
          "type": "address"
        }
      ],
      "name": "isApprovedForAll",
      "outputs": [
        {
          "internalType": "bool",
          "name": "",
          "type": "bool"
        }
      ],
      "stateMutability": "view",
      "type": "function"
    },
    {
      "inputs": [],
      "name": "maxSSKPurchase",
      "outputs": [
        {
          "internalType": "uint256",
          "name": "",
          "type": "uint256"
        }
      ],
      "stateMutability": "view",
      "type": "function"
    },
    {
      "inputs": [],
      "name": "mintContrib",
      "outputs": [
        {
          "internalType": "uint256",
          "name": "",
          "type": "uint256"
        }
      ],
      "stateMutability": "view",
      "type": "function"
    },
    {
      "inputs": [
        {
          "internalType": "uint8",
          "name": "numberOfTokens",
          "type": "uint8"
        }
      ],
      "name": "mintSSK",
      "outputs": [],
      "stateMutability": "payable",
      "type": "function"
    },
    {
      "inputs": [
        {
          "internalType": "address",
          "name": "",
          "type": "address"
        }
      ],
      "name": "mintedQty",
      "outputs": [
        {
          "internalType": "uint8",
          "name": "",
          "type": "uint8"
        }
      ],
      "stateMutability": "view",
      "type": "function"
    },
    {
      "inputs": [],
      "name": "name",
      "outputs": [
        {
          "internalType": "string",
          "name": "",
          "type": "string"
        }
      ],
      "stateMutability": "view",
      "type": "function"
    },
    {
      "inputs": [],
      "name": "owner",
      "outputs": [
        {
          "internalType": "address",
          "name": "",
          "type": "address"
        }
      ],
      "stateMutability": "view",
      "type": "function"
    },
    {
      "inputs": [
        {
          "internalType": "uint256",
          "name": "tokenId",
          "type": "uint256"
        }
      ],
      "name": "ownerOf",
      "outputs": [
        {
          "internalType": "address",
          "name": "",
          "type": "address"
        }
      ],
      "stateMutability": "view",
      "type": "function"
    },
    {
      "inputs": [],
      "name": "ownerWithdrawals",
      "outputs": [
        {
          "internalType": "uint256",
          "name": "",
          "type": "uint256"
        }
      ],
      "stateMutability": "view",
      "type": "function"
    },
    {
      "inputs": [],
      "name": "preMaxPerWallet",
      "outputs": [
        {
          "internalType": "uint256",
          "name": "",
          "type": "uint256"
        }
      ],
      "stateMutability": "view",
      "type": "function"
    },
    {
      "inputs": [
        {
          "internalType": "uint256",
          "name": "amount",
          "type": "uint256"
        }
      ],
      "name": "priceUpdate",
      "outputs": [],
      "stateMutability": "nonpayable",
      "type": "function"
    },
    {
      "inputs": [
        {
          "internalType": "address",
          "name": "userAddy",
          "type": "address"
        }
      ],
      "name": "removeFree",
      "outputs": [],
      "stateMutability": "nonpayable",
      "type": "function"
    },
    {
      "inputs": [],
      "name": "renounceOwnership",
      "outputs": [],
      "stateMutability": "nonpayable",
      "type": "function"
    },
    {
      "inputs": [
        {
          "internalType": "uint8",
          "name": "numberOfTokens",
          "type": "uint8"
        }
      ],
      "name": "reserveSSK",
      "outputs": [],
      "stateMutability": "nonpayable",
      "type": "function"
    },
    {
      "inputs": [
        {
          "internalType": "address",
          "name": "from",
          "type": "address"
        },
        {
          "internalType": "address",
          "name": "to",
          "type": "address"
        },
        {
          "internalType": "uint256",
          "name": "tokenId",
          "type": "uint256"
        }
      ],
      "name": "safeTransferFrom",
      "outputs": [],
      "stateMutability": "nonpayable",
      "type": "function"
    },
    {
      "inputs": [
        {
          "internalType": "address",
          "name": "from",
          "type": "address"
        },
        {
          "internalType": "address",
          "name": "to",
          "type": "address"
        },
        {
          "internalType": "uint256",
          "name": "tokenId",
          "type": "uint256"
        },
        {
          "internalType": "bytes",
          "name": "_data",
          "type": "bytes"
        }
      ],
      "name": "safeTransferFrom",
      "outputs": [],
      "stateMutability": "nonpayable",
      "type": "function"
    },
    {
      "inputs": [],
      "name": "saleIsActive",
      "outputs": [
        {
          "internalType": "bool",
          "name": "",
          "type": "bool"
        }
      ],
      "stateMutability": "view",
      "type": "function"
    },
    {
      "inputs": [
        {
          "internalType": "uint256",
          "name": "",
          "type": "uint256"
        }
      ],
      "name": "secondWinners",
      "outputs": [
        {
          "internalType": "uint256",
          "name": "",
          "type": "uint256"
        }
      ],
      "stateMutability": "view",
      "type": "function"
    },
    {
      "inputs": [
        {
          "internalType": "address",
          "name": "",
          "type": "address"
        }
      ],
      "name": "secondWinningsWithdrawn",
      "outputs": [
        {
          "internalType": "bool",
          "name": "",
          "type": "bool"
        }
      ],
      "stateMutability": "view",
      "type": "function"
    },
    {
      "inputs": [],
      "name": "secondWithdraw",
      "outputs": [],
      "stateMutability": "nonpayable",
      "type": "function"
    },
    {
      "inputs": [
        {
          "internalType": "address",
          "name": "operator",
          "type": "address"
        },
        {
          "internalType": "bool",
          "name": "approved",
          "type": "bool"
        }
      ],
      "name": "setApprovalForAll",
      "outputs": [],
      "stateMutability": "nonpayable",
      "type": "function"
    },
    {
      "inputs": [
        {
          "internalType": "string",
          "name": "baseURI",
          "type": "string"
        }
      ],
      "name": "setBaseURI",
      "outputs": [],
      "stateMutability": "nonpayable",
      "type": "function"
    },
    {
      "inputs": [
        {
          "internalType": "uint256[]",
          "name": "winningTokens",
          "type": "uint256[]"
        }
      ],
      "name": "setFirstWinners",
      "outputs": [],
      "stateMutability": "nonpayable",
      "type": "function"
    },
    {
      "inputs": [
        {
          "internalType": "uint256[]",
          "name": "winningTokens",
          "type": "uint256[]"
        }
      ],
      "name": "setSecondWinners",
      "outputs": [],
      "stateMutability": "nonpayable",
      "type": "function"
    },
    {
      "inputs": [
        {
          "internalType": "bytes4",
          "name": "interfaceId",
          "type": "bytes4"
        }
      ],
      "name": "supportsInterface",
      "outputs": [
        {
          "internalType": "bool",
          "name": "",
          "type": "bool"
        }
      ],
      "stateMutability": "view",
      "type": "function"
    },
    {
      "inputs": [],
      "name": "symbol",
      "outputs": [
        {
          "internalType": "string",
          "name": "",
          "type": "string"
        }
      ],
      "stateMutability": "view",
      "type": "function"
    },
    {
      "inputs": [],
      "name": "tokenPrice",
      "outputs": [
        {
          "internalType": "uint256",
          "name": "",
          "type": "uint256"
        }
      ],
      "stateMutability": "view",
      "type": "function"
    },
    {
      "inputs": [
        {
          "internalType": "uint256",
          "name": "tokenId",
          "type": "uint256"
        }
      ],
      "name": "tokenURI",
      "outputs": [
        {
          "internalType": "string",
          "name": "",
          "type": "string"
        }
      ],
      "stateMutability": "view",
      "type": "function"
    },
    {
      "inputs": [],
      "name": "tokensMinted",
      "outputs": [
        {
          "internalType": "uint256",
          "name": "",
          "type": "uint256"
        }
      ],
      "stateMutability": "view",
      "type": "function"
    },
    {
      "inputs": [],
      "name": "totalSupply",
      "outputs": [
        {
          "internalType": "uint256",
          "name": "",
          "type": "uint256"
        }
      ],
      "stateMutability": "view",
      "type": "function"
    },
    {
      "inputs": [
        {
          "internalType": "address",
          "name": "from",
          "type": "address"
        },
        {
          "internalType": "address",
          "name": "to",
          "type": "address"
        },
        {
          "internalType": "uint256",
          "name": "tokenId",
          "type": "uint256"
        }
      ],
      "name": "transferFrom",
      "outputs": [],
      "stateMutability": "nonpayable",
      "type": "function"
    },
    {
      "inputs": [
        {
          "internalType": "uint256",
          "name": "amount",
          "type": "uint256"
        }
      ],
      "name": "withdraw",
      "outputs": [],
      "stateMutability": "nonpayable",
      "type": "function"
    },
    {
      "inputs": [
        {
          "internalType": "address",
          "name": "",
          "type": "address"
        }
      ],
      "name": "withdrawn",
      "outputs": [
        {
          "internalType": "bool",
          "name": "",
          "type": "bool"
        }
      ],
      "stateMutability": "view",
      "type": "function"
    }
  ],
  "bytecode": "0x600060085560e0604052602e6080818152906200298f60a03980516200002e91600c91602090910190620001c4565b5066470de4df820000600d556005600e556000600f8190556012805460ff1916905560138190556014553480156200006557600080fd5b50604051620029bd380380620029bd833981016040819052620000889162000315565b828260006200009662000162565b600080546001600160a01b0319166001600160a01b0383169081178255604051929350917f8be0079c531659141344cd1fd0a4f28419497f9722a3daafe3b4186f6b6457e0908290a350620000f26301ffc9a760e01b62000166565b815162000107906009906020850190620001c4565b5080516200011d90600a906020840190620001c4565b50620001306380ac58cd60e01b62000166565b62000142635b5e139f60e01b62000166565b6200015463780e9d6360e01b62000166565b5050600b5550620003f49050565b3390565b6001600160e01b031980821614156200019c5760405162461bcd60e51b8152600401620001939062000385565b60405180910390fd5b6001600160e01b0319166000908152600160208190526040909120805460ff19169091179055565b828054620001d290620003a1565b90600052602060002090601f016020900481019282620001f6576000855562000241565b82601f106200021157805160ff191683800117855562000241565b8280016001018555821562000241579182015b828111156200024157825182559160200191906001019062000224565b506200024f92915062000253565b5090565b5b808211156200024f576000815560010162000254565b600082601f8301126200027b578081fd5b81516001600160401b0380821115620002985762000298620003de565b6040516020601f8401601f1916820181018381118382101715620002c057620002c0620003de565b6040528382528584018101871015620002d7578485fd5b8492505b83831015620002fa5785830181015182840182015291820191620002db565b838311156200030b57848185840101525b5095945050505050565b6000806000606084860312156200032a578283fd5b83516001600160401b038082111562000341578485fd5b6200034f878388016200026a565b9450602086015191508082111562000365578384fd5b5062000374868287016200026a565b925050604084015190509250925092565b602080825260029082015261329b60f11b604082015260600190565b600281046001821680620003b657607f821691505b60208210811415620003d857634e487b7160e01b600052602260045260246000fd5b50919050565b634e487b7160e01b600052604160045260246000fd5b61258b80620004046000396000f3fe6080604052600436106102885760003560e01c8063735263561161015a578063bb7471fe116100c1578063d885a21e1161007a578063d885a21e14610747578063e985e9c51461074f578063e9b5a2f71461076f578063eb8d244414610784578063eef49ee314610799578063fa07ce1d146107ae57610288565b8063bb7471fe14610685578063c2e1debf146106a5578063c44644d0146106ba578063c87b56dd146106da578063cfb15ef0146106fa578063d8795f5c1461072757610288565b80638da5cb5b116101135780638da5cb5b146105e65780638e920351146105fb57806395d89b4114610610578063a22cb46514610625578063a930aa6814610645578063b88d4fde1461066557610288565b806373526356146105545780637db1342c146105745780637ff9b59614610594578063807f54f6146105a9578063861d47b4146105be57806388dba7fd146105d357610288565b80634a2eeebb116101fe578063686e1079116101b7578063686e1079146104c05780636c0360eb146104d55780636de9f32b146104ea5780636ef61092146104ff57806370a082311461051f578063715018a61461053f57610288565b80634a2eeebb1461040b5780634a6b07af1461042057806354e05b871461044057806355f804b3146104605780636352211e1461048057806366ebc7d3146104a057610288565b80631c2f8211116102505780631c2f82111461035657806323b872dd146103765780632e1a7d4d146103965780633d363f15146103b657806342842e0e146103cb57806345e13a0c146103eb57610288565b806301ffc9a71461028d57806306fdde03146102c3578063081812fc146102e5578063095ea7b31461031257806318160ddd14610334575b600080fd5b34801561029957600080fd5b506102ad6102a8366004611ee6565b6107ce565b6040516102ba9190612085565b60405180910390f35b3480156102cf57600080fd5b506102d86107f1565b6040516102ba9190612090565b3480156102f157600080fd5b50610305610300366004611f64565b610883565b6040516102ba9190612034565b34801561031e57600080fd5b5061033261032d366004611e16565b6108cf565b005b34801561034057600080fd5b50610349610967565b6040516102ba91906123ad565b34801561036257600080fd5b50610349610371366004611f64565b61096d565b34801561038257600080fd5b50610332610391366004611d28565b61098e565b3480156103a257600080fd5b506103326103b1366004611f64565b6109c6565b3480156103c257600080fd5b50610332610a36565b3480156103d757600080fd5b506103326103e6366004611d28565b610b10565b3480156103f757600080fd5b50610332610406366004611f64565b610b2b565b34801561041757600080fd5b50610349610b6f565b34801561042c57600080fd5b506102ad61043b366004611cdc565b610b75565b34801561044c57600080fd5b506102ad61045b366004611cdc565b610b8a565b34801561046c57600080fd5b5061033261047b366004611f1e565b610b9f565b34801561048c57600080fd5b5061030561049b366004611f64565b610be7565b3480156104ac57600080fd5b506103496104bb366004611f64565b610c24565b3480156104cc57600080fd5b50610349610c34565b3480156104e157600080fd5b506102d8610c3a565b3480156104f657600080fd5b50610349610c49565b34801561050b57600080fd5b506102ad61051a366004611cdc565b610c4f565b34801561052b57600080fd5b5061034961053a366004611cdc565b610c64565b34801561054b57600080fd5b50610332610ca8565b34801561056057600080fd5b5061033261056f366004611f7c565b610d31565b34801561058057600080fd5b5061033261058f366004611f64565b610e2c565b3480156105a057600080fd5b50610349610e70565b3480156105b557600080fd5b50610349610e76565b3480156105ca57600080fd5b50610349610e7c565b6103326105e1366004611f7c565b610e82565b3480156105f257600080fd5b50610305610fbd565b34801561060757600080fd5b50610332610fcc565b34801561061c57600080fd5b506102d861101f565b34801561063157600080fd5b50610332610640366004611ddc565b61102e565b34801561065157600080fd5b50610332610660366004611cdc565b6110fc565b34801561067157600080fd5b50610332610680366004611d63565b61115c565b34801561069157600080fd5b506103326106a0366004611e3f565b61119b565b3480156106b157600080fd5b5061034961120e565b3480156106c657600080fd5b506103326106d5366004611cdc565b611213565b3480156106e657600080fd5b506102d86106f5366004611f64565b611276565b34801561070657600080fd5b5061071a610715366004611cdc565b6112db565b6040516102ba91906123b6565b34801561073357600080fd5b50610332610742366004611e3f565b6112f0565b610332611363565b34801561075b57600080fd5b506102ad61076a366004611cf6565b611396565b34801561077b57600080fd5b506103326113c4565b34801561079057600080fd5b506102ad611485565b3480156107a557600080fd5b5061034961148e565b3480156107ba57600080fd5b506102ad6107c9366004611cdc565b611494565b6001600160e01b0319811660009081526001602052604090205460ff165b919050565b60606009805461080090612493565b80601f016020809104026020016040519081016040528092919081815260200182805461082c90612493565b80156108795780601f1061084e57610100808354040283529160200191610879565b820191906000526020600020905b81548152906001019060200180831161085c57829003601f168201915b5050505050905090565b600061088e826114a9565b6108b35760405162461bcd60e51b81526004016108aa90612357565b60405180910390fd5b506000908152600260205260409020546001600160a01b031690565b60006108da82610be7565b9050806001600160a01b0316836001600160a01b0316141561090e5760405162461bcd60e51b81526004016108aa90612253565b806001600160a01b03166109206114be565b6001600160a01b0316148061093c575061093c8161076a6114be565b6109585760405162461bcd60e51b81526004016108aa9061228d565b61096283836114c2565b505050565b60085490565b6016818154811061097d57600080fd5b600091825260209091200154905081565b61099f6109996114be565b82611530565b6109bb5760405162461bcd60e51b81526004016108aa906121a6565b6109628383836115b5565b6109ce6114be565b6001600160a01b03166109df610fbd565b6001600160a01b031614610a055760405162461bcd60e51b81526004016108aa9061216c565b604051339082156108fc029083906000818181858888f19350505050158015610a32573d6000803e3d6000fd5b5050565b60005b601654811015610b0d57336001600160a01b0316610a8160168381548110610a7157634e487b7160e01b600052603260045260246000fd5b9060005260206000200154610be7565b6001600160a01b0316148015610aac57503360009081526018602052604090205460ff161515600114155b15610afb5733600081815260186020526040808220805460ff1916600117905551671bc16d674ec800009082818181858883f19350505050158015610af5573d6000803e3d6000fd5b50610b0d565b80610b05816124ce565b915050610a39565b50565b6109628383836040518060200160405280600081525061115c565b610b336114be565b6001600160a01b0316610b44610fbd565b6001600160a01b031614610b6a5760405162461bcd60e51b81526004016108aa9061216c565b600d55565b60135481565b60186020526000908152604090205460ff1681565b60176020526000908152604090205460ff1681565b610ba76114be565b6001600160a01b0316610bb8610fbd565b6001600160a01b031614610bde5760405162461bcd60e51b81526004016108aa9061216c565b610b0d816116e0565b6000808211610c085760405162461bcd60e51b81526004016108aa90612132565b506000908152600560205260409020546001600160a01b031690565b6015818154811061097d57600080fd5b600b5481565b6060600c805461080090612493565b60085481565b60106020526000908152604090205460ff1681565b60006001600160a01b038216610c8c5760405162461bcd60e51b81526004016108aa9061231d565b506001600160a01b031660009081526004602052604090205490565b610cb06114be565b6001600160a01b0316610cc1610fbd565b6001600160a01b031614610ce75760405162461bcd60e51b81526004016108aa9061216c565b600080546040516001600160a01b03909116907f8be0079c531659141344cd1fd0a4f28419497f9722a3daafe3b4186f6b6457e0908390a3600080546001600160a01b0319169055565b610d396114be565b6001600160a01b0316610d4a610fbd565b6001600160a01b031614610d705760405162461bcd60e51b81526004016108aa9061216c565b6000610d7a610967565b905060058260ff161115610da05760405162461bcd60e51b81526004016108aa90612374565b600b54610db060ff8416836123ee565b1115610dce5760405162461bcd60e51b81526004016108aa906120dc565b60125460ff16610df05760405162461bcd60e51b81526004016108aa906122c7565b60015b8260ff16811161096257600b54821015610e1a57610e1a33610e1583856123ee565b6116f3565b80610e24816124ce565b915050610df3565b610e346114be565b6001600160a01b0316610e45610fbd565b6001600160a01b031614610e6b5760405162461bcd60e51b81526004016108aa9061216c565b600e55565b600d5481565b600f5481565b600e5481565b6000610e8c610967565b905060058260ff161115610eb25760405162461bcd60e51b81526004016108aa90612374565b600b54610ec260ff8416836123ee565b1115610ee05760405162461bcd60e51b81526004016108aa906120dc565b60125460ff16610f025760405162461bcd60e51b81526004016108aa906122c7565b600e548260ff16610f1233610c64565b610f1c91906123ee565b1115610f3a5760405162461bcd60e51b81526004016108aa906121fd565b3360009081526011602052604090205460ff161515600114610f8657348260ff16600d54610f68919061241a565b1115610f865760405162461bcd60e51b81526004016108aa906122e3565b60015b8260ff16811161096257600b54821015610fab57610fab33610e1583856123ee565b80610fb5816124ce565b915050610f89565b6000546001600160a01b031690565b610fd46114be565b6001600160a01b0316610fe5610fbd565b6001600160a01b03161461100b5760405162461bcd60e51b81526004016108aa9061216c565b6012805460ff19811660ff90911615179055565b6060600a805461080090612493565b6110366114be565b6001600160a01b0316826001600160a01b031614156110675760405162461bcd60e51b81526004016108aa906121c3565b80600360006110746114be565b6001600160a01b03908116825260208083019390935260409182016000908120918716808252919093529120805460ff1916921515929092179091556110b86114be565b6001600160a01b03167f17307eab39ab6107e8899845ad3d59bd9653f200f220920489ca2b5937696c31836040516110f09190612085565b60405180910390a35050565b6111046114be565b6001600160a01b0316611115610fbd565b6001600160a01b03161461113b5760405162461bcd60e51b81526004016108aa9061216c565b6001600160a01b03166000908152601160205260409020805460ff19169055565b61116d6111676114be565b83611530565b6111895760405162461bcd60e51b81526004016108aa90612300565b6111958484848461170d565b50505050565b6111a36114be565b6001600160a01b03166111b4610fbd565b6001600160a01b0316146111da5760405162461bcd60e51b81526004016108aa9061216c565b8051600a146111fb5760405162461bcd60e51b81526004016108aa906121e0565b8051610a32906016906020840190611b9a565b600581565b61121b6114be565b6001600160a01b031661122c610fbd565b6001600160a01b0316146112525760405162461bcd60e51b81526004016108aa9061216c565b6001600160a01b03166000908152601160205260409020805460ff19166001179055565b6060611281826114a9565b61129d5760405162461bcd60e51b81526004016108aa90612236565b60006112a7610c3a565b9050806112b384611740565b6040516020016112c4929190611fe5565b604051602081830303815290604052915050919050565b60076020526000908152604090205460ff1681565b6112f86114be565b6001600160a01b0316611309610fbd565b6001600160a01b03161461132f5760405162461bcd60e51b81526004016108aa9061216c565b80516005146113505760405162461bcd60e51b81526004016108aa90612115565b8051610a32906015906020840190611b9a565b600034116113835760405162461bcd60e51b81526004016108aa906120c0565b3460145461139191906123ee565b601455565b6001600160a01b03918216600090815260036020908152604080832093909416825291909152205460ff1690565b60005b601554811015610b0d57336001600160a01b03166113ff60158381548110610a7157634e487b7160e01b600052603260045260246000fd5b6001600160a01b031614801561142a57503360009081526017602052604090205460ff161515600114155b156114735733600081815260176020526040808220805460ff1916600117905551671bc16d674ec800009082818181858883f19350505050158015610af5573d6000803e3d6000fd5b8061147d816124ce565b9150506113c7565b60125460ff1681565b60145481565b60116020526000908152604090205460ff1681565b60009081526006602052604090205460ff1690565b3390565b600081815260026020526040902080546001600160a01b0319166001600160a01b03841690811790915581906114f782610be7565b6001600160a01b03167f8c5be1e5ebec7d5bd14f71427d1e84f3dd0314c0f7b2291e5b200ac8c7c3b92560405160405180910390a45050565b600061153b826114a9565b6115575760405162461bcd60e51b81526004016108aa9061214f565b600061156283610be7565b9050806001600160a01b0316846001600160a01b0316148061159d5750836001600160a01b031661159284610883565b6001600160a01b0316145b806115ad57506115ad8185611396565b949350505050565b826001600160a01b03166115c882610be7565b6001600160a01b0316146115ee5760405162461bcd60e51b81526004016108aa90612189565b6001600160a01b0382166116145760405162461bcd60e51b81526004016108aa9061233a565b61161f838383610962565b61162a6000826114c2565b6001600160a01b038316600090815260046020526040812080549161164e8361247c565b9091555050600081815260056020908152604080832080546001600160a01b0319166001600160a01b038716908117909155835260049091528120805491611695836124ce565b919050555080826001600160a01b0316846001600160a01b03167fddf252ad1be2c89b69c2b068fc378daa952ba7f163c4a11628f55a4df523b3ef60405160405180910390a4505050565b8051610a3290600c906020840190611be5565b610a3282826040518060200160405280600081525061185b565b6117188484846115b5565b6117248484848461188e565b6111955760405162461bcd60e51b81526004016108aa906122aa565b60608161176557506040805180820190915260018152600360fc1b60208201526107ec565b8160005b811561178f5780611779816124ce565b91506117889050600a83612406565b9150611769565b60008167ffffffffffffffff8111156117b857634e487b7160e01b600052604160045260246000fd5b6040519080825280601f01601f1916602001820160405280156117e2576020820181803683370190505b5090505b84156115ad576117f7600183612439565b9150611804600a866124e9565b61180f9060306123ee565b60f81b81838151811061183257634e487b7160e01b600052603260045260246000fd5b60200101906001600160f81b031916908160001a905350611854600a86612406565b94506117e6565b611865838361196d565b611872600084848461188e565b6109625760405162461bcd60e51b81526004016108aa906120f8565b60006118a2846001600160a01b0316611a82565b6118ae575060016115ad565b6000611936630a85bd0160e11b6118c36114be565b8887876040516024016118d99493929190612048565b60408051601f19818403018152918152602080830180516001600160e01b03166001600160e01b031990951694909417909352805180820190915260038152620ca64760eb1b928101929092526001600160a01b03881691611a88565b905060008180602001905181019061194e9190611f02565b6001600160e01b031916630a85bd0160e11b1492505050949350505050565b6001600160a01b0382166119935760405162461bcd60e51b81526004016108aa90612270565b61199c816114a9565b156119b95760405162461bcd60e51b81526004016108aa90612390565b6119c560008383610962565b600081815260056020908152604080832080546001600160a01b0319166001600160a01b03871690811790915560068352818420805460ff19166001908117909155908452600490925290912054611a1c916123ee565b6001600160a01b038316600090815260046020526040902055600854611a439060016123ee565b60085560405181906001600160a01b038416906000907fddf252ad1be2c89b69c2b068fc378daa952ba7f163c4a11628f55a4df523b3ef908290a45050565b3b151590565b6060611a978484600085611aa1565b90505b9392505050565b606082471015611ac35760405162461bcd60e51b81526004016108aa90612219565b611acc85611a82565b611ae85760405162461bcd60e51b81526004016108aa906120a3565b600080866001600160a01b03168587604051611b049190611fc9565b60006040518083038185875af1925050503d8060008114611b41576040519150601f19603f3d011682016040523d82523d6000602084013e611b46565b606091505b5091509150611b56828286611b61565b979650505050505050565b60608315611b70575081611a9a565b825115611b805782518084602001fd5b8160405162461bcd60e51b81526004016108aa9190612090565b828054828255906000526020600020908101928215611bd5579160200282015b82811115611bd5578251825591602001919060010190611bba565b50611be1929150611c58565b5090565b828054611bf190612493565b90600052602060002090601f016020900481019282611c135760008555611bd5565b82601f10611c2c57805160ff1916838001178555611bd5565b82800160010185558215611bd55791820182811115611bd5578251825591602001919060010190611bba565b5b80821115611be15760008155600101611c59565b600067ffffffffffffffff831115611c8757611c87612529565b611c9a601f8401601f19166020016123c4565b9050828152838383011115611cae57600080fd5b828260208301376000602084830101529392505050565b80356001600160a01b03811681146107ec57600080fd5b600060208284031215611ced578081fd5b611a9a82611cc5565b60008060408385031215611d08578081fd5b611d1183611cc5565b9150611d1f60208401611cc5565b90509250929050565b600080600060608486031215611d3c578081fd5b611d4584611cc5565b9250611d5360208501611cc5565b9150604084013590509250925092565b60008060008060808587031215611d78578081fd5b611d8185611cc5565b9350611d8f60208601611cc5565b925060408501359150606085013567ffffffffffffffff811115611db1578182fd5b8501601f81018713611dc1578182fd5b611dd087823560208401611c6d565b91505092959194509250565b60008060408385031215611dee578182fd5b611df783611cc5565b915060208301358015158114611e0b578182fd5b809150509250929050565b60008060408385031215611e28578182fd5b611e3183611cc5565b946020939093013593505050565b60006020808385031215611e51578182fd5b823567ffffffffffffffff80821115611e68578384fd5b818501915085601f830112611e7b578384fd5b813581811115611e8d57611e8d612529565b8381029150611e9d8483016123c4565b8181528481019084860184860187018a1015611eb7578788fd5b8795505b83861015611ed9578035835260019590950194918601918601611ebb565b5098975050505050505050565b600060208284031215611ef7578081fd5b8135611a9a8161253f565b600060208284031215611f13578081fd5b8151611a9a8161253f565b600060208284031215611f2f578081fd5b813567ffffffffffffffff811115611f45578182fd5b8201601f81018413611f55578182fd5b6115ad84823560208401611c6d565b600060208284031215611f75578081fd5b5035919050565b600060208284031215611f8d578081fd5b813560ff81168114611a9a578182fd5b60008151808452611fb5816020860160208601612450565b601f01601f19169290920160200192915050565b60008251611fdb818460208701612450565b9190910192915050565b600066697066733a2f2f60c81b82528351612007816007850160208801612450565b602f60f81b6007918401918201528351612028816008840160208801612450565b01600801949350505050565b6001600160a01b0391909116815260200190565b6001600160a01b038581168252841660208201526040810183905260806060820181905260009061207b90830184611f9d565b9695505050505050565b901515815260200190565b600060208252611a9a6020830184611f9d565b60208082526003908201526265313160e81b604082015260600190565b602080825260029082015261653160f01b604082015260600190565b602080825260029082015261653360f01b604082015260600190565b60208082526003908201526265323360e81b604082015260600190565b60208082526003908201526204533360ec1b604082015260600190565b60208082526003908201526265313360e81b604082015260600190565b60208082526003908201526232991960e91b604082015260600190565b60208082526003908201526265323960e81b604082015260600190565b60208082526003908201526232991b60e91b604082015260600190565b60208082526003908201526265313960e81b604082015260600190565b6020808252600390820152620ca62760eb1b604082015260600190565b60208082526003908201526245333160e81b604082015260600190565b602080825260029082015261653560f01b604082015260600190565b60208082526003908201526206531360ec1b604082015260600190565b602080825260039082015262194c4d60ea1b604082015260600190565b60208082526003908201526265313560e81b604082015260600190565b602080825260039082015262194c8d60ea1b604082015260600190565b60208082526003908201526232989b60e91b604082015260600190565b60208082526003908201526265323160e81b604082015260600190565b602080825260029082015261194d60f21b604082015260600190565b60208082526003908201526245313560e81b604082015260600190565b60208082526003908201526206532360ec1b604082015260600190565b60208082526003908201526232989960e91b604082015260600190565b60208082526003908201526265323760e81b604082015260600190565b60208082526003908201526265313760e81b604082015260600190565b602080825260029082015261329960f11b604082015260600190565b60208082526003908201526265323560e81b604082015260600190565b90815260200190565b60ff91909116815260200190565b60405181810167ffffffffffffffff811182821017156123e6576123e6612529565b604052919050565b60008219821115612401576124016124fd565b500190565b60008261241557612415612513565b500490565b6000816000190483118215151615612434576124346124fd565b500290565b60008282101561244b5761244b6124fd565b500390565b60005b8381101561246b578181015183820152602001612453565b838111156111955750506000910152565b60008161248b5761248b6124fd565b506000190190565b6002810460018216806124a757607f821691505b602082108114156124c857634e487b7160e01b600052602260045260246000fd5b50919050565b60006000198214156124e2576124e26124fd565b5060010190565b6000826124f8576124f8612513565b500690565b634e487b7160e01b600052601160045260246000fd5b634e487b7160e01b600052601260045260246000fd5b634e487b7160e01b600052604160045260246000fd5b6001600160e01b031981168114610b0d57600080fdfea264697066735822122041732cc10dbcf6268fa726ee1c8d701425a493f6d11f28c2952816f504f6e45c64736f6c63430008000033516d58586255514c734c3769446a54646d714b5657414d7a78364339536473346e61326b76723842464a43794c72",
  "linkReferences": {},
  "deployedLinkReferences": {}
}